:020000040000FA
:10000000001000102102000033020000290200004D
:1000100000000000000000000000000000000000E0
:100020000000000000000000000000002B020000A3
:1000300000000000000000002D0200002F02000060
:1000400033020000330200003302000033020000DC
:1000500033020000330200003302000033020000CC
:1000600033020000330200003302000033020000BC
:1000700033020000330200003302000033020000AC
:10008000330200003302000033020000330200009C
:100090003302000033020000310200003102000090
:1000A000330200003302000033020000310200007E
:1000B000330200003302000033020000330200006C
:1000C000FFFFFFFFFFFFFFFFFFFFFFFFFFFFFFFF40
:1000D000FFFFFFFFFFFFFFFFFFFFFFFFFFFFFFFF30
:1000E000FFFFFFFFFFFFFFFFFFFFFFFFFFFFFFFF20
:1000F000FFFFFFFFFFFFFFFFFFFFFFFFFFFFFFFF10
:10010000FFFFFFFFFFFFFFFFFFFFFFFFFFFFFFFFFF
:10011000FFFFFFFFFFFFFFFFFFFFFFFFFFFFFFFFEF
:10012000FFFFFFFFFFFFFFFFFFFFFFFFFFFFFFFFDF
:10013000FFFFFFFFFFFFFFFFFFFFFFFFFFFFFFFFCF
:10014000FFFFFFFFFFFFFFFFFFFFFFFFFFFFFFFFBF
:10015000FFFFFFFFFFFFFFFFFFFFFFFFFFFFFFFFAF
:10016000FFFFFFFFFFFFFFFFFFFFFFFFFFFFFFFF9F
:10017000FFFFFFFFFFFFFFFFFFFFFFFFFFFFFFFF8F
:10018000FFFFFFFFFFFFFFFFFFFFFFFFFFFFFFFF7F
:10019000FFFFFFFFFFFFFFFFFFFFFFFFFFFFFFFF6F
:1001A000FFFFFFFFFFFFFFFFFFFFFFFFFFFFFFFF5F
:1001B000FFFFFFFFFFFFFFFFFFFFFFFFFFFFFFFF4F
:1001C000FFFFFFFFFFFFFFFFFFFFFFFFFFFFFFFF3F
:1001D000FFFFFFFFFFFFFFFFFFFFFFFFFFFFFFFF2F
:1001E000FFFFFFFFFFFFFFFFFFFFFFFFFFFFFFFF1F
:1001F000FFFFFFFFFFFFFFFFFFFFFFFFFFFFFFFF0F
:100200000648854601F09AFC00F018F801F046F81F
:1002100000480047111F000001F062FB00100010B1
:100220000448804704480047FEE7FEE7FEE7FEE794
:10023000FEE7FEE7691F000001020000042104A0A0
:1002400002F03AFE0349086003490860FFF7DEFF49
:100250003A747400BC030010A803001030B50B46BC
:10026000014600202022012409E00D46D5409D4290
:1002700005D31D469540491B254695404019154616
:10028000521E002DF1DC30BD70B50024254600283B
:1002900001DA01244042002901DA01254942FFF731
:1002A000DDFFAC4200D04042002C00D0494270BD7E
:1002B00003460B439B0703D009E008C9121F08C07F
:1002C000042AFAD203E00B780370401C491C521E2A
:1002D000F9D27047421C0178401C0029FBD1801ADA
:1002E0007047C217C10F504010B54018CA07962377
:1002F000002101F01EFB10BD70477047FFFFFFFF9C
:1003000010B5FE4800680A30FC490860FC480068E7
:100310000A30FB490860FB4800680A30F949086068
:10032000F9480068012805D1F84800681E38F749E7
:10033000086004E0F54800681E30F4490860F3489E
:100340000068F349884202DB0846F0490860EF483C
:10035000006819218901884202DC0846EB490860DF
:10036000EA480168EB4801F0BDFF10BDF8B5E94C63
:100370000A252946204603F019FA00BFE64CE74D4E
:10038000E74FE849384600F0AEFF009001F09AF9D7
:10039000064629462046143001F069FE31462046C3
:1003A00001F0A8FF00BF00BFDFA002F0C3F80121E9
:1003B000E14801F017FED649D64801F093FF7F20AF
:1003C000C00503F0C5FCF8BD10B5CE480068642830
:1003D00004DA0121D94801F07FFF1AE0C94800681A
:1003E000C82804DA0221D54801F076FF11E0C5489B
:1003F0000068FF212D31884204DA0421CF4801F042
:100400006BFF06E00821CD4801F066FF0020BD49E2
:10041000086010BDA2B03F210906C94800F0ADFD3B
:100420003F210906C74800F0A8FD0221C64801F097
:1004300027FEC6480221059104900599049802F010
:100440006BFF00BF0021BD4801F046FF2CE0BE4815
:1004500001F08AFE012811D1BD48006800280DD1A5
:100460000120BB490860FF21B44801F035FFB9A065
:1004700002F060F8BA4803F06BFC15E0B24801F0F6
:1004800073FE012810D1B248006801280CD1002069
:10049000AF4908600021A94801F01EFFB1A002F099
:1004A00049F8AF4803F054FCA74801F05DFE02286C
:1004B000CDD1FFF75BFF002001218907219120901A
:1004C0001E901F90AA48AB491D911C9000BF00BF11
:1004D00000BF00BF00BF00BF00BF00BF00BF0021C2
:1004E0000C910D9100BF00BF00BF00BF00BF00BF57
:1004F0000020079000BF3F2000060690F7E29E48CC
:100500000068052806D00A2813D032287ED0642837
:100510000ED1A0E28E480068012803D17F20C005DB
:10052000069002E03F20000606900A2092490860EB
:10053000DCE2FFF749FF844801F016FE012806D1EE
:1005400064208D49086000217C4801F0C5FE00BF91
:1005500000BF00BF00BF00BF00BF00BF7B4900203D
:10056000085E401C002804D12A22844984A002F09D
:1005700011FF00BF754840680068002801D00120C5
:1005800000E00020002803D10798401C079001E0FC
:10059000002007900798322808DB3220764908604F
:1005A0000021664801F098FE00200790544800683A
:1005B000FF212D31884204DC01215F4801F012FD4A
:1005C0000DE000215C4801F00DFD00BF4C480068C3
:1005D0004B21C900884202DB0020494908606E486F
:1005E00001F0D9FE019001F081F86C4A6C4B039147
:1005F000029000F05FFF00226A4B0591049000F02A
:1006000061FF1B911A906448401C00E0D3E101F0A7
:10061000C2FE019001F06AF8604A614B03910290BA
:1006200000F048FF00225F4B0591049000F04AFF64
:10063000199118905848801C01F0ADFE019001F00E
:1006400055F8564A564B0391029000F033FF0022B2
:10065000544B0591049000F035FF179116904E48C9
:10066000C01C01F098FE019001F040F84B4A4C4B41
:100670000391029000F01EFF00224A4B0591049066
:1006800000F020FF159114904348001D01F083FEF7
:10069000019001F02BF8414A414B0391029000F088
:1006A00009FF00223F4B0591049000F00BFF1391CE
:1006B00012903948401D01F06EFE019001F016F8CD
:1006C000364A374B0391029000F0F4FE0022354B7E
:1006D0000591049000F0F6FE11911090002213464F
:1006E0001399129801F016F806D3002213461599B3
:1006F000149801F00FF85AD2012055E0CC000010F8
:10070000D0000010D4000010C8000010E400001059
:1007100098080000C6000010480100100103000006
:100720000AD7233C0024744970726F6772616D2090
:1007300073746172740D0A00480300107801001090
:1007400008020010A8020010C00100105803001099
:10075000DC0000106C6576656C203D20310D0A00D0
:100760009A99993E6C6576656C203D20300D0A00A3
:10077000FCA9F1D24D62503FE00000107844000027
:100780006F626A2D3E70696E20213D202850696E8F
:100790004E616D65294E4300C00000103333333382
:1007A0003333E33F00000840FE49086008E0FE489C
:1007B0000068FF212D31884202DD0020F9490860E0
:1007C000199B189A1B991A9800F06EFE0F910E90C3
:1007D00000BF00BF002213461599149800F09AFF3D
:1007E00006D3002213461399129800F093FF28D2E3
:1007F000ED480068642824DB0020EB4908600121F3
:10080000C907069841400846059100F06FFF06466B
:100810000F46069800F06AFF04460D4630463946FA
:1008200000F08CFF01460590E04801F053FE2046A1
:10083000294600F083FF01460590DD4801F04AFE9D
:100840009CE0002213461799169800F063FF28D207
:10085000D5480068642824DB0020D34908600121C2
:10086000C907069841400846059100F03FFF06463B
:100870000F46069800F03AFF04460D4630463946CA
:1008800000F05CFF01460590C84801F023FE2046B9
:10089000294600F053FF01460590C54801F01AFEB5
:1008A0006CE0002213461199109800F033FF28D213
:1008B000BD480068642824DB0020BB490860069816
:1008C00000F014FF06460F460121C9070698414073
:1008D0000846059100F00AFF04460D4630463946A9
:1008E00000F02CFF01460590B04801F0F3FD2046D2
:1008F000294600F023FF01460590AD4801F0EAFDCE
:100900003CE0002213461B991A9800F003FF06D31F
:10091000002213461999189800F0FCFE2AD20F9B6A
:100920000E9A2199209800F0CDFD0B910A900CA809
:100930000FC800F0B9FD039102901F9B1E9A00F0B2
:10094000C1FD059104901D9B1C9A00F023FE0991A6
:100950000890099B089A0B990A9800F0A5FD064695
:100960000F46099B089A0B990A9800F09DFD0D46C9
:10097000044603E00024254626462F468A480068A0
:10098000642811DB3046394600F0D8FE0146059058
:10099000864801F09FFD2046294600F0CFFE014623
:1009A0000590834801F096FD0F990E980D910C90DB
:1009B00000BF00BF9AE001217E4801F013FB002137
:1009C0007D4801F089FC7DA001F0B4FD002177484D
:1009D00001F080FD01460590754801F06EFD7C48F0
:1009E00001F0C2FB012811D17A48006800280DD11E
:1009F000012078490860FF216F4801F06DFC7648BE
:100A000001F098FD754803F0A3F916E0704801F075
:100A1000ABFB012811D16F48006801280DD10020DF
:100A20006C4908600021644801F056FC6A481030A7
:100A300001F080FD694803F08BF9654801F094FBF3
:100A4000022807D16448243801F074FD0520644968
:100A500008604BE04AE063A001F06CFD43E0002138
:100A6000524801F037FD01460590514801F025FD3F
:100A7000574801F079FB012811D156480068002839
:100A80000DD1012053490860FF214B4801F024FC9F
:100A9000514801F04FFD514803F05AF916E04C4817
:100AA00001F062FB012811D14A48006801280DD1EC
:100AB00000204849086000213F4801F00DFC4648ED
:100AC000103001F037FD454803F042F9404801F08D
:100AD0004BFB022807D14048243801F02BFD0520AC
:100AE0003F49086000E0BAE700BF00BF00BF06E56D
:100AF00030B58DB03D4C204601F08EFA04463C489E
:100B0000002120602046143001F0B5FA0546143D5E
:100B1000384A3949284600F0D1FB0020C0430990EB
:100B20000A900B900C900590069007900890019009
:100B3000029003900490CB20800075231B01872234
:100B400092002E4900901C4801F062FB0446294A9D
:100B50002B4900F0B3FB0020C04309900A900B9092
:100B60000C900590069007900890019002900390D9
:100B700004900346234A24490090154801F090FA56
:100B800004461C4A214900F099FB2149214801F003
:100B900008FC21491F48401C01F003FC1F491D4867
:100BA000801C3DE0C8000010CC00001008020010BE
:100BB000A80200104803001078010010636F6E67F0
:100BC000726174756C6174696F6E73210D0A000037
:100BD000C0010010DC000010540700009A99993EF3
:100BE000E000001073746F700D0A000048010010DF
:100BF000584400000000000069230000702B000032
:100C0000B1220000582A0000AC330000412100004E
:100C1000740B0000C0000010781000007C11000070
:100C200001F0BFFB2521C901364801F0BAFB364966
:100C30003448401C01F0B5FB34493248801C01F0B7
:100C4000B0FB334B334A3449344800F070F9044662
:100C5000334A344900F032FB91239B01324A13217D
:100C60004902324800F063F904462D4A2D4900F04C
:100C700025FB2F4C2F4D2946204602F03DFD00BF9D
:100C80002D4CAD256D01002020606060A060E0600B
:100C90002946204602F01AFB00BF284C284D0020B0
:100CA00020606060A060E0602946204602F0FCFA07
:100CB00000BF0DB030BD70B504460E4600BF002029
:100CC000205E401C002804D121221E491E4802F04B
:100CD00061FB00BF0020205E0F21090208400512C1
:100CE000002E07D0E06800680121A9400843E168B0
:100CF000086006E0E06800680121A9408843E168D7
:100D0000086070BDC300001094140000981B000020
:100D100020270000242800005429000008020010A9
:100D2000000000009924000044250000A8020010E3
:100D3000C6000010381900004803001058030010C6
:100D40009C320000784400008007000070B5044623
:100D50000E46251D00206060A060E06020613146E5
:100D6000284602F0B3FA00BF2C1F2046143001F0D1
:100D7000E7FA0446143C25464435284601F0E0FADB
:100D8000054631482C46443C2860204670BD016031
:100D90007047F8B504460D46164625602B48009668
:100DA00021460CC82046143003F01AF8F8BD10B5DF
:100DB00004462046143001F0ABFA10BD38B50446A5
:100DC0002068002804DC0021201D01F00BF90CE054
:100DD0000121201D01F006F9206800901C482146E1
:100DE0000CC82046443002F0FBFF38BD10B5044665
:100DF0000021201D01F0F6F810BD70B504460E4626
:100E000000BF0020205E401C002804D1212211498F
:100E100011A002F0BFFA00BF0020205E0F210902DE
:100E200008400512002E07D0E06800680121A940A3
:100E30000843E168086006E0E06800680121A94015
:100E40008843E168086070BD6C440000243E0000E7
:100E50001C3E0000784400006F626A2D3E70696E8F
:100E600020213D202850696E4E616D65294E43005A
:100E7000FEB504460E467F21C905304600F084FCCD
:100E800001D27F26F6055449304600F073FC00D2AB
:100E9000514E942006510021304600F075FC0AD2D4
:100EA00001212046743001F09DF800212046843055
:100EB00001F098F809E000212046743001F092F822
:100EC00001212046843001F08DF89C2001593046E4
:100ED00000F009FA054600BF6800400800BF009016
:100EE00098200159009800F0FEF9019000F0D1FB24
:100EF000074639462046FFF74AFFFEBDF8B50446CF
:100F00000D463649284600F0EEF9074600F0C1FBD1
:100F10000646FFF7E6F998210851085900F0B9FB99
:100F20000646324600212046FFF733FFF8BDF8B5EC
:100F300004460F4615461E4631462046FFF706FF7B
:100F4000044639462046743001F03EF80446743CAD
:100F500029462046843001F037F80446843C7D2140
:100F6000C9059C2001511E492046FFF7C7FF0021FB
:100F70002046FFF77DFF2046F8BD9C2211507047A8
:100F8000014694204058704770B504460E4600BF95
:100F90000020205E401C002804D12122114912A00B
:100FA00002F0F8F900BF0020205E0F21090208407E
:100FB0000512002E07D0E06800680121A94008430F
:100FC000E168086006E0E06800680121A940884304
:100FD000E168086070BD0000000080BF0024744913
:100FE0000AD7233C784400006F626A2D3E70696E18
:100FF00020213D202850696E4E616D65294E4300C9
:10100000F0B51FB40646002082B005464024019189
:1010100000901BE0019922460F46304600F0E7FBA6
:10102000049A059B801A994110D31046194622460E
:1010300000F0CDFB361A8F41019722460120002196
:10104000009F00F0C4FB38184D4100902046641EFC
:101050000028DFDC019B00982946324607B0F0BD2E
:10106000F0B51FB486B00020009001900290069861
:10107000069980B204900798090C020400141143E9
:1010800007900027089D099806913E463C4603902C
:101090000398A9B20204000C039004982D0C154388
:1010A00048430021224600F092FBC71971411034D9
:1010B0000E46402CECDB3846029A00F088FB009A82
:1010C000019B8018009059410298019110300290C4
:1010D0004028CCDB00980BB0F0BD10B5002200E03A
:1010E000521C835C8C5CA34201D1002BF8D1D8B296
:1010F000E1B2401A10BD30B505460020034600E0BD
:101100005B1C934205D2EC5CC85C201A01D1002C18
:10111000F6D130BD0FB400B58DB009900B9010A979
:1011200000200091C0430A9000200C9006480690D1
:10113000064807906A4609A80F9900F091FB0DB088
:1011400008BC04B01847000081180000A118000076
:10115000FFB50027FF4383B000205C6801909E68C4
:101160001D46A9697F1C049888470090296A884712
:101170000028F6D10098401C0CD003204002844384
:10118000002E19DD600614D500982B2809D02D28D3
:101190000FD103E00020C04307B0F0BD0120800262
:1011A0000443A9697F1C04988847761E0090002E8E
:1011B00002DD0098302803D00598002825D035E0BE
:1011C000012040020443A969761E7F1C04988847C9
:1011D0000090002E03DD782805D0582803D005980C
:1011E000002810D022E00598002801D010281DD139
:1011F000012040028443A969761E7F1C0498884719
:101200000090102002E0082000E00A2005900DE088
:10121000012149020C43059A0199761E5143081891
:101220000190A9697F1C049888470090002E05DD75
:101230000599009800F0FFFA0028E9DAE9690498B6
:101240008847A00502D40120C043A5E7E00722D1CA
:10125000600611D56005019800D5404229680A1D35
:101260002A600968220501D5087014E0220701D51B
:10127000088010E008600EE02868011D2960006801
:10128000210502D50199017005E02107019901D5D9
:10129000018000E0016038467EE7000070B5054C33
:1012A000054D03E0206800198047241DAC42F9D1A8
:1012B00070BD0000DC440000E0440000F8B50746C3
:1012C00015460E46102002F02FF8040009D0676082
:1012D000A660E56000F0F6FA016821600460002075
:1012E000F8BD0120F8BD024670B54A40D30FDB07B8
:1012F00040002DD04A002AD0010E140E0002120226
:101300000919400A520A8418E50104465443000AA8
:10131000120A2E045043A4194219200CC543AA18DE
:10132000120C0125AD03521C521912047F392404FA
:1013300000D0521C104301D44000491EC2B20C061A
:10134000C0092018401C4008802A02D003E0002079
:1013500070BD40084000002900DA0020184370BD2D
:10136000F0B507460846584087B0C00F04904800C3
:101370000E46590040084908BC1A884105D2384633
:1013800031461E4617460B46024658004008104399
:101390004CD0300D039040055900400D490D05908B
:1013A000401A0290402872DA18030121000B090547
:1013B0000843019004980092002805D001995242F8
:1013C0000020884100920190029840210A1A019958
:1013D000009800F0FCF905460C466B4607CB00F080
:1013E00017FAC0197141039A0E0D0023D717564002
:1013F0001A467A40164344D0049A002A2DD0029A05
:10140000012A039A15DC1205C01A914101263605FE
:10141000001C7141D20F059ED207009301920296E3
:101420002A46234600F0CBFA07B0F0BD38463146D5
:10143000FAE71605224A0F46B218C01AB741012131
:101440000905001C4F4100187F41114618187941C9
:10145000E20F10436D19644113E0E2076D08154374
:101460006408C2071443039A01261205C01A914169
:101470003605001C7141CE07400830434908C018AA
:1014800051412A46234600F08DFACDE7FFE7049844
:1014900001224000C117121A00238B4104983146E3
:1014A000C417381AA141EEE730B40124E4076340C1
:1014B00030BC55E730B40124E407614030BC4FE74D
:1014C0000000E0FFF0B51FB488B00B990998002424
:1014D00048400999C00F490049080991C0070B9974
:1014E0000090490049080B9109990898A6460843BD
:1014F0001CD00B990A98084318D009980124400081
:10150000420D4800410D099824050003000B2043BB
:1015100009900B980003000B20430B9050181C49B6
:101520004018002201901446104605E000200146B4
:101530000DB0F0BD032801DA034600E003239C460A
:10154000C11A0AAE0AE05F0008ADED5B4F00F75B21
:101550007D430027AA187C41491C5B1E6145F2DDD2
:10156000410004AB5A522104120C0A43240C401CC3
:101570000828DFDB019802900099704601910090E5
:10158000059B049A0799069800F019FAD0E7000025
:101590000DFCFFFFF0B50C465C4085B0E40FE4079E
:1015A00003944C00002664085900944649080246FA
:1015B0000296224321D062460A431ED06200570D94
:1015C0004A000E032303550D012402462C4924052D
:1015D000781B1B0B360B40182343264361460090B3
:1015E0001C46501AB44103D30098401C009002E0FE
:1015F000921800985B41002803DA0020014605B0EC
:10160000F0BD0020012109050746864611E0644629
:101610001D46141BB54106D36546521BB3417446A3
:1016200007430C43A646CD074008490828439218B3
:101630005B4105460D43EAD11046184313D060467E
:10164000194650407140084306D06046101AB34115
:1016500006D20122002306E000220123DB0702E07C
:101660000122D2435310009874460105381C614191
:10167000029C039D0019694100F094F9BFE7000046
:10168000FD03000010B500229623114600F051F929
:1016900010BDC20F410040020123400ADB05D20702
:1016A000090EC0187F2901DA00207047962903DC53
:1016B0009623591AC84001E096398840002AF4D090
:1016C00040427047410040020122400AD205090E03
:1016D00080187F2901DA00207047962903DC9622C2
:1016E000511AC8407047963988407047C20FD207D8
:1016F000400040080BD0C10D0723DB01C918400290
:101700000905400A1143C2084007114370470020F1
:101710000146704710B5002904DB0124E40740426C
:101720008C412146002B04DB1C460123DB0752427F
:10173000A3418B4200D1824210BD0000CB0FDB07DA
:10174000490010B5490802460A4307D00A0D07248C
:101750000903E401090B121B002A01DC002010BD63
:10176000C900440F0C43C100E018D205801800F0F6
:10177000D8F810BD0122D207002800DB101A00297A
:1017800000DB511A814270470122D207002800DB9A
:10179000101A002900DB511A8842704710B500F07A
:1017A00095F910BD38B50546684605700C460868C1
:1017B00000230122694601F005FC002802D0002028
:1017C000C04338BDE068401CE060284638BD10B515
:1017D000202A04DB0146203A9140002010BD9140B0
:1017E00020239C1A0346E3401943904010BD10B5D6
:1017F000202A04DB0846203AD040002110BD0B46C9
:10180000D340D0402024A21A91400843194610BD6D
:1018100010B5202A06DBCB170846203A1041C11725
:101820000B4306E00B461341D0402024A21A9140FE
:101830000843194610BD3A2800D23038202302460A
:101840009A43412A01D310463738884201D30020F9
:10185000C0437047026813785118016018467047FA
:1018600010B5D16004495161044911620021116130
:10187000114600F07DF910BD55180000611B0000F5
:101880004268002A08D001680B78491C002B03D05D
:10189000521E06C0184670470121C160881E70475D
:1018A0004268002A0BD0C3680168002B07D1836807
:1018B0008B4204D0491E521C06C0002070470020F5
:1018C000C04370470048704730010010034870471C
:1018D0000248001D011F8860001D70473401001080
:1018E000F8B50646FFF7EEFF0090054615E0002E1E
:1018F00002D0E068B0420FD1206828600098A1684B
:10190000076860688847204601F03EFC0098006840
:10191000B84202D00098E8E725462C68002CE6D1B2
:10192000F8BD002904DA401C490001D140084000FC
:10193000704770B40024050C05D11024000402D1B6
:10194000002921D01124050E01D100020834050F11
:1019500001D10001241D850F01D18000A41C0028A5
:1019600001DB4000641C002908D020252E1B0D46F9
:10197000F540A14000D001212943084301061B1B6B
:10198000000ADB1D02D5002070BC7047DB0518186B
:1019900080180029F8DA401C4900F5D170BC4008D5
:1019A0004000704710B5002B08DA0024401C61414C
:1019B00092185B411A4301D14008400010BDF0B5B8
:1019C0001FB482B005460C0003D0084600F0CEFDDF
:1019D00002E000F0CBFD2030024600902146284670
:1019E000FFF7F5FE049B059A04460F461843114382
:1019F000084314D0184610431BD0009840210A1AFF
:101A000018460599FFF7F3FE05460E46009A05991C
:101A10000498FFF7DCFE084305D0012004E02046CF
:101A2000394607B0F0BD0020C11705430E432C43D3
:101A3000374300990E986305401A7905E40A00229D
:101A40000C43FD0A0A3002D500200146E9E70105F2
:101A5000101969410C9C0D9D00196941FFF7A2FF07
:101A6000DFE700004A0009030123090B1B051943A6
:101A70000A4B10B5520D9A4202DA0020014610BD01
:101A8000064B34339A4203DC9A1AFFF7B0FE10BDBE
:101A9000034BD218FFF79BFE10BD0000FF030000B0
:101AA000CDFBFFFF10B5002904DB0124E407404211
:101AB0008C412146002B04DB1C460123DB075242EC
:101AC000A341994200D1904210BD000010B500F032
:101AD0000EF80169002903D000220261884701E065
:101AE00080688047C046C04610B5C046C04670B545
:101AF000FFF7EEFE04680546002C15D1202001F00A
:101B000013FC040012D0002009492C6003C40949C9
:101B100021602071A060E06007492061083C002935
:101B200001D000F0C1F9E061204670BDC046C0465A
:101B300000000000E91A000000000000064C01252A
:101B4000064E05E0E36807CC2B430C3C9847103465
:101B5000B442F7D3FEF758FBBC440000DC4400005D
:101B600010B50F21C0B2490200F0C0F910BD00004D
:101B7000F3B58DB000200A9001200B900026084696
:101B80000C300C4609906269012109989047051EA6
:101B90002ED0252D2DD0216A8847002818D06269C3
:101BA000012109989047216A88470028F7D1411EF2
:101BB00062690998904700E0761CA1690D988847F2
:101BC000216A88470028F7D1E1690D988847DAE74C
:101BD000A1690D9888470746A84201D1761CD2E733
:101BE000E1690D9888477F1C02D10A98002877D0B8
:101BF00049E1002762693D463946099890472A28FD
:101C00000CD16269012109989047012506E00A215B
:101C10004F433F18303FEBD4102005436269012148
:101C200009989047014630390A2903D29B498F42CF
:101C3000DEDCECE7E90600D4994F6C280AD04C288A
:101C400010D0682824D06A282ED074280CD07A2886
:101C50000AD00DE062690121099890476C2823D0D1
:101C600004211CE020200543626901210998904766
:101C7000A760656065284FD026DC582839D01ADC6B
:101C8000452849D012DC252834D04128B0D143E082
:101C90006269012109989047682802D008210D4304
:101CA000E6E70120C002DEE70220DCE7462833D069
:101CB00047282CD130E05B2870D061282CD06328D5
:101CC0006CD0642823D161E06F284FD009DC6628EE
:101CD00022D0672820D0692826D06E2817D12EE080
:101CE000CDE070284DD073286FD075284ED078285D
:101CF0000DD154E0A1690D9888470546252800D1EB
:101D00006CE7E1690D9888476D1C00D16DE7BAE07A
:101D10000A224CE00A2252E0012023466A46C043D0
:101D20000D99C046C046A3E02846402108436060A4
:101D3000A807234601D5002239E000223FE0E8074A
:101D400000D020E72068011D21600068290501D529
:101D5000067018E7290701D5068014E7A90703D5FF
:101D6000F117066041600EE706600CE72846402147
:101D700008436060A807234601D5082217E008221F
:101D80001DE0484928460840606016E0284640218A
:101D900008436060A8072346BCD5B9E715E028468C
:101DA000402108436060A80707D523461022012080
:101DB000C0430D99C046C0465AE023461022012078
:101DC000C0430D99FFF7C4F952E000210C910B4676
:101DD0000091632802D05B2807D043E0E80601D4D5
:101DE0000120A060012000903CE062690121099877
:101DF00090475E2805D101200C9001466269099840
:101E000090472169002906D10B4601AA8F00491C81
:101E1000D3510829FADB002835D0216900290ED1D9
:101E2000C117C90E09184A11930001AA9A18490945
:101E30004901411A01201368884003431360626915
:101E40000121099890475D28E5D10C98002808D019
:101E5000002001AB81005A58401CD2435A50082838
:101E6000F8DB01AB01202246C0430D99C046C046B5
:101E700000280ADA401C06D10B98002803D0002065
:101E8000C0430FB0F0BD0A98FBE7E90702D10A99F9
:101E9000491C0A91361800200B9074E6CCCCCC0C6F
:101EA000FFFFFF7FF1F7FFFF10B5882001F03CFA3C
:101EB000002801D00021017010BD802904D800281D
:101EC00002D00178002901D0002070470121017063
:101ED00008307047002803D002460832914201D0F2
:101EE0000020704700210170704700007F2801D951
:101EF000002207E0054B42089A5CC00700D1120996
:101F00001207120F0120904008407047DC43000088
:101F100010B501F032FB01F02FFBFEF77BFA10BD8C
:101F2000F0B484460E48026893070E4A9B0F176868
:101F3000012B0ED000252B463A469C002E591651F7
:101F400066197668A41866609B1C302BF5DB0122AD
:101F5000026060468000C0190164F0BC7047000058
:101F600000800440EC00001070B4134800240460AA
:101F700001234360446043604168C907FCD00F49B6
:101F800023228A600E4A956B8026B5439563CA6802
:101F9000D207FCD003210163436344634363416B75
:101FA000C907FCD08363074801680122120411436A
:101FB000016070BC70470000408004400080044015
:101FC000008204408080044070B504460D46002025
:101FD00020606060A060E0602946204601F076F94C
:101FE000204670BD70B504460D4600BF2946204608
:101FF000FEF761FE00BF204670BD01688968084792
:1020000010B50246001D01F003FE10BD10B5001D05
:1020100001F06AFE10BD000010B5044605482060BE
:1020200000206060A060E060034801F07DFE204673
:1020300010BD000024440000FB1F000010B5044642
:1020400003482060201D01F04FFE204610BD000017
:10205000244400000168002900D008474368002B91
:1020600004D0014682690831184610477047016064
:102070000021416070470022426082610160704728
:1020800070B50D4606460024A0008019406800285F
:1020900002D0294601F040F9641C102CF4DB70BD1D
:1020A000F0B589B09E469446044624480F9F109E82
:1020B000139D199B0E9A20606846018061464180FD
:1020C00071468180C2800781468111998181129970
:1020D000C181058214994182159981821699C18224
:1020E000179901831899418383831A99C18300202A
:1020F00005466E4660646F00F05F401C0CD01020F7
:1021000000F0F6F90890F15F002202604260826000
:10211000C26001F0C9F80898A90009194860F05F89
:10212000401C04D00120616CA840014361646D1C17
:10213000102DE0DB204609B0F0BD0000384400005F
:1021400070B50546074800242860A0004019406883
:10215000002801D000F0C7F9641C102CF5DB2846DC
:1021600070BD000038440000F8B50024074625463D
:10217000A800C0194668002E0FD00020305E401C19
:1021800004D12A220749084801F004F97068006860
:10219000002800D00120A84004436D1C102DE7DB6F
:1021A0002046F8BD3042000018420000F3B581B06F
:1021B00007460025A800C0194468002C1ED00298CC
:1021C0002841C6070020205EF60F401C04D12122C2
:1021D0000D490E4801F0DEF820880005000F002EA2
:1021E00006D0E1680B680122824013430B6005E0D2
:1021F000E2681368012181408B4313606D1C102D30
:10220000D8DB03B0F0BD0000604100004841000091
:10221000F0B589B09E469446044624480F9F109E10
:10222000139D199B0E9A206068460180614641808B
:1022300071468180C28007814681119981811299FE
:10224000C181058214994182159981821699C182B2
:10225000179901831899418383831A99C1830020B8
:1022600005466E4660646F00F05F401C0CD0102085
:1022700000F03EF90890F15F002202604260826047
:10228000C26001F023F80898A90009194860F05FBE
:10229000401C04D00120616CA840014361646D1CA6
:1022A000102DE0DB204609B0F0BD000048440000DE
:1022B00070B50546074800242860A0004019406812
:1022C000002801D000F00FF9641C102CF5DB284623
:1022D00070BD00004844000010B50446FFF766FFDB
:1022E000204610BD70B504460D462946204601F033
:1022F000A9FA70BD70B50D460446FFF787FE25614B
:1023000001F0C4FC216941182046FFF779FE70BD39
:1023100010B50446FFF77AFE204600211430FFF77F
:10232000A6FE10BD10B5044640682169411820463C
:10233000FFF766FE20461430FFF78CFE10BD00004C
:1023400010B504462046FFF767FE04460548002105
:10235000206020461430FFF78EFE0446143C2046D1
:1023600010BD00005844000010B504460648206027
:102370002046FFF74BFE204600211430FFF777FE82
:102380002046FFF75BFE10BD5844000010B5143026
:10239000FFF760FE10BD10B50446204600F07EFE3B
:1023A00010BD70B504460D462946204600F03EFE9D
:1023B000204670BD007B704770B506460C480D4640
:1023C0000468002C12D0A06800280CD02A463146A0
:1023D000FEF791FE002806D1A068FDF77BFFA8421A
:1023E00001D1204670BD6468002CECD1002070BD86
:1023F0002401001010B504464068002803D0FFF700
:10240000D9FF012801D0002010BD606810BD10B5B3
:1024100004464068002803D0FFF7CCFF002801D015
:10242000002010BD60680028FBD0001F10BD406870
:10243000002800D00120704710B54068002804D063
:10244000FFF7B8FF002801D0002010BD012010BD0B
:102450000068704710B5044600202060606008786E
:102460002F280FD1487800280CD04B1C00211A4689
:10247000236010782F2807D0002807D0491C521C51
:102480002260F6E7204610BD501C20601846FFF77A
:1024900093FF6060204610BD70B504462546264671
:1024A00044363046FFF760FF0546443D3038FFF7BD
:1024B0005BFF0446143C204670BD70B505460C46D3
:1024C0002046FEF75DFD064631462846FEF7D0FC65
:1024D000284670BD70B504460D4629462046FEF7D5
:1024E000C7FC204670BD10B500F04EFE10BD0000C8
:1024F00010B5040008D1012406E0FFF7E7F90068F1
:10250000002800D103488047204600F00DFF002836
:10251000F3D010BD9D1700000FB410B5024604A9FA
:10252000034B039800F02CF910BC08BC04B018470A
:10253000A51700000FB410B503A9044B044A029874
:1025400000F01EF910BC08BC04B01847A517000025
:10255000A803001070B514460D460246024B2146F2
:10256000284600F00DF970BDA51700002021020CCF
:1025700001D010211046020A01D010460839020984
:1025800001D01046091F820801D01046891E42085A
:1025900001D0881E7047081A7047F0B4040C8BB243
:1025A000264682B25E430D0C1046370C5843360463
:1025B00080190021794116466E43370C3604801984
:1025C000794126466E438919F0BC704710B500204A
:1025D000C046C04610BD02E008C8121F08C1002A4C
:1025E000FAD17047002001E001C1121F002AFBD17F
:1025F000704710B5C168006800F0D0FC002802DA0E
:102600000020C04310BD002010BD0000F0B51FB475
:1026100086B00998089A030D0021024314D051484E
:10262000514A1818504305141198012810981AD0CF
:10263000281A401C00264D4F4D49009601910490E8
:10264000002812DA444211E01198012449A301281C
:1026500001D11098C1430698119A84600360C2604A
:1026600041600BB0F0BD4042E4E704462105002084
:102670003F4A001C51410391029012E0E00707D04D
:1026800032463B4601990098FEF71CFF01910090ED
:1026900032463B4610461946FEF714FF06460F46E3
:1026A0006410002CEAD10498039B0028029A09992F
:1026B000089806DAFEF706FF019B009AFEF702FF74
:1026C00005E0FEF767FF019B009AFEF763FF0446F3
:1026D0000E460022284BFFF7E5F903D80020C0433F
:1026E000014607E00022254B20463146FEF738FE22
:1026F000FFF7B8F9102409E0002C0ADB0A220023B6
:10270000FEF77EFC079B30321A55641E02460A43D0
:10271000F2D11122641C079B121B1C19119B012B67
:1027200003D0012308430ED10AE0084304D011204E
:1027300010900020119077E71098151A6D1E0BE08D
:102740001098824202DD00236D1C03E0824201DA10
:1027500000236D1E002BEED0069811998260C16097
:1027600030C07EE701FCFFFF104D00000000144068
:102770000000F03F300000000000F0430000E03FA8
:10278000FFB597B00646002518E2252877D100242A
:102790002746FD49049400E00443761C327801206A
:1027A000203A90400842F7D130782A280ED00222F1
:1027B000307801463039092916D804990A2359433B
:1027C000303940181443761C0490F1E7189802C879
:1027D00004911890002904DA012040030443484280
:1027E000049002200443761C30782E2814D1042053
:1027F00004437078761C2A2809D11898761C80C862
:10280000189009E00A214F43303FC719761C3078F1
:10281000014630390929F5D930786C2810D006DC0A
:102820004C281AD068280ED06A2817D104E07428E2
:1028300013D07A2812D110E00120400504430CE0A7
:102840000121090501E0032109050C43717881424A
:1028500003D1012000052418761C761C30781190D5
:1028600066280BD013DC58287DD009DC00287BD0EB
:102870004528F6D04628F4D047281AD1A5E118E01B
:10288000632835D0642870D0652812D19DE1702866
:102890006CD008DC6728F1D069287BD06E280DD079
:1028A0006F2806D1BAE073282ED0752871D0782809
:1028B00059D01A9A199990476D1C7EE16002400F19
:1028C000022809D003280DD00428189801680DD0DB
:1028D0000D60001D189070E11898EA1701680D60EE
:1028E0004A60F6E7189801680D80F2E70D70F0E78E
:1028F00018986A4601781172001D189000205072D5
:1029000002A80090012005E0189802C81890002045
:102910000091C04361070DD5002101E00199491CD8
:102920000191B94212DA8142F8DB009A515C002928
:10293000F4D10BE0002101E00199491C0191814291
:10294000FADB019A0099895C0029F5D10199049874
:102950001A9B471A21463846199A00F097FA0199AE
:10296000401945180BE04FE02CE113E04EE00098D1
:1029700000990078491C00911A9A1999904701987A
:10298000401E0190401CF2D1214638461A9B199AEC
:1029900010E137E00A200021009001916002410F10
:1029A000022907D0189A01CA1892C217944603291F
:1029B00008D00AE01898C01DC108C90005C91891BF
:1029C000944607E000B2C2179446042902D140B2EF
:1029D000C1178C4600226146944506DA0A4600215A
:1029E000404291418C462D2102E0210504D52B2146
:1029F0006A461173012103E0E10701D02021F7E7C6
:102A0000029155E00A200AE0102008E01020009012
:102A10000021042004430191082703E0082000213D
:102A2000019100906002410F022907D0189A01CA53
:102A3000189200229446032908D008E01898C01D77
:102A4000C108C90005C91891944603E080B2042961
:102A500000D1C0B200210291210729D51199702916
:102A600006D0009A1021019B4A401A4305D00EE07F
:102A700040216A461173012108E06146014306D0F6
:102A800030216A4611731199517302210291009A03
:102A90000821019B4A401A430AD16146014301D1F2
:102AA000610705D530216A46117301217F1E02910D
:102AB0001199582904D035A10E910DA90D910DE061
:102AC00037A1F9E76146019B009AFEF799FA0E9B40
:102AD0008C469B5C0D9A521E0D9213706146014309
:102AE000F0D10D9805A9081A20300190600703D590
:102AF00001200004844300E001270198874201DDA2
:102B0000381A00E000200199009041180298091835
:102B10000498401A0490E00306D421461A9B199A9F
:102B2000049800F0B3F94519002706E003A81A9AA3
:102B3000C05D199990476D1C7F1C02988742F5DB98
:102B4000E0030CD521461A9B199A049800F09EF9CF
:102B5000451904E01A9A3020199990476D1C009984
:102B6000481E00900029F5DC08E00D980D990078CA
:102B7000491C0D911A9A199990476D1C0199481E8C
:102B800001900029F1DC63E1092801003031323382
:102B90003435363738396162636465660000000099
:102BA0003031323334353637383941424344454683
:102BB0000000000000F05AF94519761C3078002812
:102BC00000D0E2E528461BB0F0BD600700D4062720
:102BD0001898C01DC108C90048680A680831C30FA9
:102BE000DB071891190001D09CA108E0210501D54F
:102BF0009BA104E0E10701D09AA100E09AA1430063
:102C000011985B08109165280CD006DC452809D086
:102C100046281DD0472841D141E0662818D06728B2
:102C20003CD13CE00021112F01DB112000E0781C99
:102C30000191009008A911A8FFF7E8FC13990591EC
:102C40000021119A15927F1C12980197009150E073
:102C50000120C00703900120019008A9009711A846
:102C6000FFF7D4FC139A149905920022119B00924D
:102C700012981593059A0192002901D0104602E09E
:102C8000791C40180190381A01D5019804E040429F
:102C9000401E0090781C0190C01B029043E0012F61
:102CA00000DA01270021112F01DD112000E0384654
:102CB0000191009008A911A8FFF7A8FC13990591AC
:102CC000119A0021129815920091019721070CD4B6
:102CD0000599B94201DB019900E00191012904DD68
:102CE000159A491E515C302906D0B84201DA011DFF
:102CF00005DA0121029115E00199491EEDE700284E
:102D000005DC0099411800910199091A03E0019A24
:102D1000411C914200DD01910099401A401C029033
:102D20000120C0070390200706D402990198814230
:102D300002DB0020C043029000206946C87707AF3D
:102D4000012103980337C907884224D0022011903B
:102D50002B201290039800280CDA404203902D207B
:102D6000129007E00A210398FDF778FA30317F1EB0
:102D7000039039701199481E11900029F2DC0398D4
:102D80000028EFD1791E1298087030782021084071
:102D90004530BF1E387006A8C01BC01D0390109898
:102DA0000078002800D00120019941180298C0172E
:102DB0000918039809180498401A401E0490E0036B
:102DC00006D421461A9B199A049800F05FF8451919
:102DD00010980078002803D01A9A199990476D1C12
:102DE000E00324D521461A9B199A049800F04EF866
:102DF00045191CE00098002807DB009905988842D7
:102E000003DD1598405C199901E0199930201A9A50
:102E1000904700986D1C401C00900298401E029044
:102E2000002804D11A9A2E20199990476D1C0199F7
:102E3000481E01900029DDDC05E038781A9A7F1CD5
:102E4000199990476D1C0399481E03900029F4DCE2
:102E500021461A9B199A0498ACE600002D00000048
:102E60002B0000002000000000000000F8B5044620
:102E700000251E461746880404D405E03946202064
:102E8000B0476D1C641EF9D52846F8BDFFB5044651
:102E9000002581B01E46C80301D5302700E0202759
:102EA000880404D505E038460399B0476D1C641EBC
:102EB000F9D5284605B0F0BDF0B50E4683B00446FE
:102EC00032A1FEF70AF9002809D0314F0025A800E9
:102ED0003858002809D06D1C102DF8D351E02D4929
:102EE0000868421C0A6003B0F0BD102D49D220785A
:102EF0003A2811D021466846FFF7ACFA6846FFF73A
:102F000096FA00283DD06846FFF796FA00286846F2
:102F100009D0FFF77CFA2DE06A461FA12046FEF794
:102F2000F9F8009826E0FFF765FA002829D0B107E4
:102F300001D5022408E0710701D5012404E031071E
:102F400001D5092400E000243107890F02D00121B6
:102F500049020C43710702D5012189020C43264620
:102F600004466846FFF774FA0146206832468368D3
:102F700020469847002804D0A9007850E81C03B0E8
:102F8000F0BD0020C04303B0F0BD00003A747400EF
:102F900068030010E80000103A257000032801DAE9
:102FA00000207047064A800080184038406B002897
:102FB00003D002681369002218470020C0437047FD
:102FC0006803001070B514460E46032814DA124840
:102FD0000068002804D1114A1149124800F06AFD26
:102FE0000025002C06D9715D0E4800F0CDFD6D1C4A
:102FF000A542F8D320460AE00B498000401840382B
:10300000406B002805D001680B6831469847201AAC
:1030100070BD0020C04370BD10010010A416000058
:10302000A8170000180100106803001070B50C46C6
:1030300005461349204600F009FB28701148816BB2
:1030400010229143816310480168520211430160CC
:103050000E49E0B2401801688022914301600C489B
:103060000C4900684A1E8018FDF70EF9401E0A49F7
:10307000000208600249204600F016FB70BD000007
:10308000B43E0000008204408080044000400440C0
:10309000F000001020AA440000C00140F8B52A4901
:1030A00004460868000A00020860086823780127BF
:1030B0003A469A401043086008683A061043086090
:1030C00048680028FCDA0B6893430B6000040B6827
:1030D000800D1B0A1B020B600D6826783B46B3402F
:1030E0001D430D600B6813430B604B68002BFCDA2B
:1030F0000D6895430D601B040D689B0D2D0A2D0274
:103100000D600D682478A7403D430D600C681443A2
:103110000C604C68002CFCDA0D6895430D602104AE
:10312000890D984202D90246184613468B4200D9AF
:103130000B46984200D903461846FEF7A3FA034906
:10314000FEF7D1F8F8BD000000C001400820803A29
:103150000FB410B503AA03480299FFF7FBF9012049
:1031600000F002F8BC03001004460548FFF741FADE
:103170000448FFF73EFA002C01D000F033F9FEE7D7
:10318000A8030010BC03001010B5002823D0124B78
:103190000022001F196803E0814203D80A464968EB
:1031A0000029F9D1002A0AD01368841A9C4204D15C
:1031B000006818181060104602E0506000E01860C7
:1031C000002907D002680B1A934203D10B68D2186A
:1031D00002604968416010BD4001001070B50446AE
:1031E0000020205E0D46401C04D138220B490CA063
:1031F00000F0D0F820880005020F0120002D07D034
:10320000012D04D1A1680B68904003430B6070BD91
:10321000A1680B6890408343F8E70000283F000056
:103220006F626A2D3E70696E20213D202850696EC4
:103230004E616D65294E430070B505460180481CFE
:1032400029D00804000F0522000412078618002068
:103250000C460C290CD010498C4209D00F498C42E5
:1032600006D00F498C4203D02521C9018C4200D1E0
:1032700001200146204600F081F92005000F0121C0
:1032800081408800801968600120C0033018A86060
:1032900004483018E86070BD740B0000781000001E
:1032A0007C110000FC3F000070B5012605460C466D
:1032B000FFF7C2FF611C07D000212846FFF78EFFF1
:1032C0003146284600F028F870BD000070B50D4664
:1032D00004460026FFF7B0FF6D1C18D0A05F401C0D
:1032E00004D121220A490B4800F054F82088000537
:1032F000010FE068026801238B409A4302600121BC
:103300002046FFF76BFF3146204600F005F870BD00
:1033100000430000E842000010B502460020105EA5
:1033200000F050F910BD0000F0B50B30C108C90025
:10333000144F0026144A0FE003688B420BD38B42D4
:1033400005D95C1A4318456830C3083B00E0436860
:10335000136002C004E0021D10680028ECD1304662
:10336000002803D13868002801D00020F0BD064AAB
:1033700006481060064A121AD208D20044C0012042
:103380003860D7E74401001040010010D40300105A
:10339000D003001008B500920B46024603A1104866
:1033A000FFF7BAF800F01EF808BD00006D62656412
:1033B000206173736572746174696F6E20666169F0
:1033C0006C65643A2025732C2066696C653A20256B
:1033D000732C206C696E65202564200A00000000B3
:1033E000BC03001090B072B6AD246401214668465B
:1033F000FFF76CFF75252D01294604A8FFF766FF2E
:10340000214608A8FFF762FF29460CA8FFF75EFFD8
:10341000012569460020085E401C04D12122544940
:103420005448FFF7B7FF6946088803990005096803
:10343000000F2A468240039811430160694610201C
:10344000085E401C04D1212249494A48FFF7A2FFE7
:103450006846008A079900050968000F2A468240DD
:1034600007989143016068462021415E491C04D1C0
:1034700021223F493F48FFF78DFF6846008C0B999A
:1034800000050968000F2A4682400B9891430160AD
:1034900068463021415E491C04D121223449354817
:1034A000FFF778FF6846008E0F9900050968000F46
:1034B0002A4682400F9811430160962000F05AFC82
:1034C00068460021415E491C04D12122284929482F
:1034D000FFF760FF68460088039900050968000F40
:1034E0002A46824003989143016068461021415E5C
:1034F000491C04D121221E491E48FFF74BFF684694
:10350000008A079900050968000F2A46824007983B
:1035100011432C46016068462021415E491C04D1BC
:10352000212213491348FFF735FF6846008C0B9999
:1035300000050968000F224682400B981143016084
:1035400068463021415E491C04D1212208490948BE
:10355000FFF720FF6846008E0F9900050968000FED
:1035600084400F98A1430160962000F003FC50E7CF
:10357000443E00002C3E00007047704770B5044682
:103580000D46401C04D11522074908A0FFF702FF91
:103590000B49E0B2401801686A07C908C900520F18
:1035A0001143016070BD00007043000070696E201F
:1035B000213D202850696E4E616D65294E43000003
:1035C0000040044070B504460D46401C04D11E2244
:1035D0000A490BA0FFF7DEFE69070E4AE0B2C90FE9
:1035E00083181A6818208243A807C00E10430122CE
:1035F0009202904389020143196070BD704300003C
:1036000070696E20213D202850696E4E616D6529DC
:103610004E43000000400440884202D0421C01D1C9
:103620000846704710B5491C04D003A0FFF790FD71
:103630000020C04310BD000070696E6D6170206D88
:1036400069732D6D6174636800000000002210B57D
:10365000D243431C0BD00023CB5E5B1C0ED0002357
:10366000CB5E834205D14C68601C08D00AE010464E
:1036700010BD0C310023CB5E5B1CF0D1144602A0C0
:10368000FFF766FD204610BD70696E6D6170206E9B
:103690006F7420666F756E6420666F72207065723D
:1036A0006970686572616C0010B50446401C0FD0EB
:1036B0000020085E401C11D00020085EA04208D106
:1036C00089682046FFF75AFF00212046FFF77AFF5E
:1036D00010BD0C310020085E401CEDD101A0FFF7A9
:1036E00037FD10BD636F756C64206E6F7420706958
:1036F0006E6F757400000000F3B581B00446244974
:103700000298FFF7A3FFC0B22070224E400080193C
:10371000007821498200895800224A601F4A1368B4
:103720000125C01D2F4687403B4313600F2048678B
:10373000101548611A48814202D01A48814201D1CD
:103740001E20C8602046184900F038F8207800276D
:103750004000801906883006810D0F484458606A81
:10376000FDF790FF3946FDF7BEFDFDF7ABFF616A3F
:10377000081A401C022161603104090E89000919F0
:103780008861656002490298FFF78EFF03B0F0BDC3
:10379000943F0000F40000100001001080800440FD
:1037A00000C0004000000140204E00007D2210B506
:1037B000D200514300F002F810BD000070B50D4674
:1037C00000781C494000401800781B4980000C58C4
:1037D000666A1B4819490068FCF740FDE1686843C8
:1037E000491CFCF73BFD0546022060606562002E27
:1037F0001DD0A0692946FEF7D0FE32460023FDF712
:10380000FFFB281AA061E0692946FEF7C6FE324692
:103810000023FDF7F5FB281AE061206A2946FEF730
:10382000BCFE32460023FDF7EBFB281A2062012084
:10383000606070BDF40000100001001040420F00F5
:10384000F0000010F3B581B001980D4600781649DC
:1038500040004018068815493006800D0C58144861
:10386000002100682A46EB17FDF7FAFB114A0023F6
:10387000FDF7C6FBE2680023521CFDF7C1FB0746BB
:1038800002206060606AB84203D229460198FFF7BF
:1038900095FF606A3104090EC01B8900091988610F
:1038A0000120606003B0F0BDF400001000010010C2
:1038B000F000001040420F00F3B543498BB00120E7
:1038C00088614248006801900C9801010198FCF75A
:1038D000C5FC80B2069000200990012000270790C7
:1038E000002953D00C9801240025049002E0002503
:1038F000002C45D90198604340000ED50C98291939
:103900004143019A60005043FCF7A8FC0009C10341
:103910000120C0030818060C0DE00C98291941433A
:10392000019AA0005043FCF799FC4009C103012013
:10393000C0030818060C002E00D10126002D02D06D
:10394000022E00D2022628197043C100019860435C
:10395000FCF784FC401C0C994008401A00D54042FA
:103960000499884208DA07940C9909950696049000
:10397000884201D1012703E06D1CEDB2A542B9D305
:10398000641CE4B2102C01D2002FB0D00B98006858
:10399000C26880210A43C2600698020A0B98006838
:1039A00042600698C2B20B98006802600798099AB4
:1039B000000110430B9A126890620B980068C2686D
:1039C0008A43C2600DB0F0BD80800440F00000105A
:1039D000F8B51D4614460F460646012B06D0022DAB
:1039E00004D0BC221E491FA0FFF7D4FC042F01DD28
:1039F000092F04DBBD221A4924A0FFF7CBFC002CC1
:103A00000CD0012C0AD0022C08D0032C06D0042C98
:103A100004D0BE2212492648FFF7BCFC681E7F1F57
:103A2000052C14D223007B441B79DB189F4402042D
:103A3000070A0D00002500E00125002407E001250C
:103A40002C4604E00125022401E001250324800026
:103A50003843E9000843210108433168C860F8BDD4
:103A6000544000002873746F705F62697473203D66
:103A70003D203129207C7C202873746F705F62693F
:103A80007473203D3D2032290000000028646174D9
:103A9000615F62697473203E203429202626202825
:103AA000646174615F62697473203C20392900008D
:103AB000C4400000F7B5044628490198FFF7C6FD49
:103AC000054627490298FFF7C1FD01462846FFF742
:103AD000A3FD0546401C04D13C22224922A0FFF749
:103AE00059FC254825600168012212031143016039
:103AF0002068012686602068002747604B21C901A5
:103B00002046FFF7D9FE0123002208212046FFF7B7
:103B10005FFF12490198FFF7C7FD11490298FFF7AF
:103B2000C3FD0198401C03D002210198FFF74AFD14
:103B30000298401C03D002210298FFF743FD0F4872
:103B4000281800D167600E48854205D10D484660AF
:103B5000626821680261C16003B0F0BDDC3F000013
:103B6000184000005440000028696E742975617285
:103B70007420213D204E4300808004400080FFBF20
:103B8000008000400C0100100068202342691A42A6
:103B9000FCD00160704700000149012008607047B7
:103BA000008001400248416949084900416170476D
:103BB000008001400F48016800291AD170B5012525
:103BC00005600D4801680215114301600B480C4C5B
:103BD0000068022161600B49FCF740FB401EE06079
:103BE000656009491320FEF79BF90849E80408605D
:103BF00070BD70472001001080800440F00000106C
:103C00000080014040420F004D3C000000E100E018
:103C100070B5054672B642600B4A01601468002018
:103C2000002C0CD02368CB1A03D42046A468002CA7
:103C3000F8D1002803D08560AC6062B670BD08463C
:103C4000156000F07BF8F7E72801001010B5FFF7CA
:103C5000A3FF0D4C206800280ED000F017F8216853
:103C60000A68101A00280ADC886820606268002A46
:103C7000F0D048689047EDE7FFF794FF10BD086863
:103C800000F05CF810BD00002801001070B50F486E
:103C90000F4C0168002917D1012505600D48016806
:103CA0000215114301600C480221006861600B4954
:103CB000FCF7D4FA401EE060656009491320FEF766
:103CC0002FF90849E8040860A06870BD20010010C1
:103CD0000080014080800440F000001040420F004E
:103CE0004D3C000000E100E010B572B60D4A1168CD
:103CF00081420AD180681060002803D0006800F07B
:103D00001DF80CE0FFF74EFF09E0002907D08A6894
:103D1000824202D18068886001E01100F7D162B66A
:103D200010BD00002801001010B50446FFF742FF47
:103D30000148446010BD000028010010034988615B
:103D4000486901221043486170470000008001402B
:103D500070B50749FDF7C7FAFDF79BFC0446FFF76E
:103D600095FF0546FFF792FF401BA042FAD370BDB6
:103D70000024744970B57D21C90048430446FFF70B
:103D800085FF0546FFF782FF401BA042FAD370BDB6
:103D9000F3B58BB004460A94082208A80C99FCF7E6
:103DA00087FA099908980191009048100A9C051912
:103DB000089803910290C807C00F002804D1099900
:103DC00008980591049006E00999089807910690D3
:103DD00029684618306807462846B8470DB0F0BD38
:103DE0007FB582B005460C460A9E28461430059AD7
:103DF0000499019200914460019A0099C260816027
:103E0000054981610021016000BF31462846FEF767
:103E100071FA06B070BD0000913D0000ED0D00008C
:103E200000000000BD0D0000000000006F626A2D60
:103E30003E70696E20213D202850696E4E616D658F
:103E4000294E4300433A5C436F64655C6769745F65
:103E50007265706F5C6769746875625C6D626564D9
:103E60002D6F6666696369616C5C6275696C645C20
:103E70006D6265645C5441524745545F4C50433118
:103E80003131345C5441524745545F4E58505C5474
:103E900041524745545F4C5043313158585F31319E
:103EA0004358585C6770696F5F6F626A6563742E10
:103EB00068000000740B0000000000000200000019
:103EC0007810000001000000020000007C110000DA
:103ED0000200000002000000801200000300000049
:103EE0000200000094140000050000000100000022
:103EF0006C1A00000600000001000000981B000082
:103F00000700000001000000FFFF0000FFFFFFFFAF
:103F10000000000070696E20213D202850696E4E1F
:103F2000616D65294E430000433A5C436F64655CF4
:103F30006769745F7265706F5C6769746875625CED
:103F40006D6265642D6F6666696369616C5C6C693E
:103F5000627261726965735C6D6265645C746172E2
:103F6000676574735C68616C5C5441524745545F8B
:103F70004E58505C5441524745545F4C5043313188
:103F800058585F31314358585C6770696F5F617092
:103F9000692E6300600800000000000002000000BD
:103FA0006409000001000000020000003819000050
:103FB00002000000010000006C1A00000300000075
:103FC00002000000100100000400000002000000D8
:103FD000FFFF0000FFFFFFFF00000000242800009B
:103FE00000800040020000004835000000800040D2
:103FF0000200000084300000008000400300000048
:10400000A81700000080004001000000FFFF000032
:10401000FFFFFFFF0000000020270000008000409D
:10402000020000003C34000000800040020000005C
:10403000883100000080004003000000A41600004A
:104040000080004001000000FFFF0000FFFFFFFFB5
:1040500000000000433A5C436F64655C6769745F0D
:104060007265706F5C6769746875625C6D626564C7
:104070002D6F6666696369616C5C6C6962726172FE
:104080006965735C6D6265645C74617267657473A5
:104090005C68616C5C5441524745545F4E58505CBB
:1040A0005441524745545F4C5043313158585F3169
:1040B000314358585C73657269616C5F6170692E39
:1040C0006300000028706172697479203D3D2050C2
:1040D00061726974794E6F6E6529207C7C2028702E
:1040E0006172697479203D3D205061726974794F25
:1040F000646429207C7C2028706172697479203D79
:104100003D205061726974794576656E29207C7C0A
:104110002028706172697479203D3D205061726978
:104120007479466F726365643129207C7C20287025
:104130006172697479203D3D2050617269747946DD
:104140006F726365643029006F626A2D3E70696E1C
:1041500020213D202850696E4E616D65294E430037
:10416000433A5C436F64655C6769745F7265706F46
:104170005C6769746875625C6D6265642D6F666604
:10418000696369616C5C6275696C645C6D626564CD
:104190005C5441524745545F4C5043313131345C9B
:1041A0005441524745545F4E58505C544152474524
:1041B000545F4C5043313158585F31314358585C4B
:1041C0006770696F5F6F626A6563742E68000000D4
:1041D000433A5C436F64655C6769745F7265706FD6
:1041E0005C6769746875625C6D6265642D6F666694
:1041F000696369616C5C6C69627261726965735C48
:104200006D6265645C636F6D6D6F6E5C4275734F5C
:1042100075742E63707000006F626A2D3E70696E57
:1042200020213D202850696E4E616D65294E430066
:10423000433A5C436F64655C6769745F7265706F75
:104240005C6769746875625C6D6265642D6F666633
:10425000696369616C5C6275696C645C6D626564FC
:104260005C5441524745545F4C5043313131345CCA
:104270005441524745545F4E58505C544152474553
:10428000545F4C5043313158585F31314358585C7A
:104290006770696F5F6F626A6563742E6800000003
:1042A000433A5C436F64655C6769745F7265706F05
:1042B0005C6769746875625C6D6265642D6F6666C3
:1042C000696369616C5C6C69627261726965735C77
:1042D0006D6265645C636F6D6D6F6E5C4275734992
:1042E0006E2E6370700000006F626A2D3E70696E02
:1042F00020213D202850696E4E616D65294E430096
:10430000433A5C436F64655C6769745F7265706FA4
:104310005C6769746875625C6D6265642D6F666662
:10432000696369616C5C6275696C645C6D6265642B
:104330005C5441524745545F4C5043313131345CF9
:104340005441524745545F4E58505C544152474582
:10435000545F4C5043313158585F31314358585CA9
:104360006770696F5F6F626A6563742E6800000032
:10437000433A5C436F64655C6769745F7265706F34
:104380005C6769746875625C6D6265642D6F6666F2
:10439000696369616C5C6C69627261726965735CA6
:1043A0006D6265645C746172676574735C68616C8E
:1043B0005C5441524745545F4E58505C54415247FB
:1043C00045545F4C5043313158585F313143585850
:1043D0005C70696E6D61702E63000000DDDDDDDDF7
:1043E000DCBBBBDDDDDDDDDDDDDDDDDD9888888886
:1043F000888888887777777777888888855555562D
:104400006666666666666666666888888333333283
:1044100022222222222222222228888D000000002D
:10442000000000003D20000000000000CD2500003D
:10443000000000000000000041210000000000001A
:104440000000000000000000B12200000000000099
:1044500000000000000000006923000000000000D0
:104460002523000000000000000000000000000004
:10447000000000008D2300006D6265642F544152DE
:104480004745545F4C5043313131342F54415247EA
:1044900045545F4E58502F5441524745545F4C503D
:1044A00043313158585F31314358582F6770696F25
:1044B0005F6F626A6563742E68000000E04400006C
:1044C000C000001088000000D625000068450000EC
:1044D0004801001088020000E425000015C6FFFF17
:1044E00000000000000000000000000000000000CC
:1044F00000000000000000000000000000000000BC
:1045000005000000980800000000000000000010F6
:10451000006CDC0200000001010001010202000049
:1045200000C00040000001400040014000000000C9
:10453000000000000000000000000000000000007B
:10454000000000000000000000000000000000006B
:10455000000000000000000000000000000000005B
:08456000000000000000000053
:0400000500000201F4
:00000001FF
