:020000040000FA
:10000000001000102102000033020000290200004D
:1000100000000000000000000000000000000000E0
:100020000000000000000000000000002B020000A3
:1000300000000000000000002D0200002F02000060
:1000400033020000330200003302000033020000DC
:1000500033020000330200003302000033020000CC
:1000600033020000330200003302000033020000BC
:1000700033020000330200003302000033020000AC
:10008000330200003302000033020000330200009C
:100090003302000033020000310200003102000090
:1000A000330200003302000033020000310200007E
:1000B000330200003302000033020000330200006C
:1000C000FFFFFFFFFFFFFFFFFFFFFFFFFFFFFFFF40
:1000D000FFFFFFFFFFFFFFFFFFFFFFFFFFFFFFFF30
:1000E000FFFFFFFFFFFFFFFFFFFFFFFFFFFFFFFF20
:1000F000FFFFFFFFFFFFFFFFFFFFFFFFFFFFFFFF10
:10010000FFFFFFFFFFFFFFFFFFFFFFFFFFFFFFFFFF
:10011000FFFFFFFFFFFFFFFFFFFFFFFFFFFFFFFFEF
:10012000FFFFFFFFFFFFFFFFFFFFFFFFFFFFFFFFDF
:10013000FFFFFFFFFFFFFFFFFFFFFFFFFFFFFFFFCF
:10014000FFFFFFFFFFFFFFFFFFFFFFFFFFFFFFFFBF
:10015000FFFFFFFFFFFFFFFFFFFFFFFFFFFFFFFFAF
:10016000FFFFFFFFFFFFFFFFFFFFFFFFFFFFFFFF9F
:10017000FFFFFFFFFFFFFFFFFFFFFFFFFFFFFFFF8F
:10018000FFFFFFFFFFFFFFFFFFFFFFFFFFFFFFFF7F
:10019000FFFFFFFFFFFFFFFFFFFFFFFFFFFFFFFF6F
:1001A000FFFFFFFFFFFFFFFFFFFFFFFFFFFFFFFF5F
:1001B000FFFFFFFFFFFFFFFFFFFFFFFFFFFFFFFF4F
:1001C000FFFFFFFFFFFFFFFFFFFFFFFFFFFFFFFF3F
:1001D000FFFFFFFFFFFFFFFFFFFFFFFFFFFFFFFF2F
:1001E000FFFFFFFFFFFFFFFFFFFFFFFFFFFFFFFF1F
:1001F000FFFFFFFFFFFFFFFFFFFFFFFFFFFFFFFF0F
:100200000648854601F078FA00F018F800F016FE6E
:1002100000480047ED1A000001F040F900100010FE
:100220000448804704480047FEE7FEE7FEE7FEE794
:10023000FEE7FEE7451B000001020000042104A0C8
:1002400002F01AFC0349086003490860FFF7DEFF6B
:100250003A747400180700100407001030B50B46FC
:10026000014600202022012409E00D46D5409D4290
:1002700005D31D469540491B254695404019154616
:10028000521E002DF1DC30BD03460B439B0703D00B
:1002900009E008C9121F08C0042AFAD203E00B784B
:1002A0000370401C491C521EF9D27047421C017851
:1002B000401C0029FBD1801A704710B5002200E0D5
:1002C000521C835C8C5CA34201D1002BF8D1D8B2C4
:1002D000E1B2401A10BD30B505460020034600E0EB
:1002E0005B1C934205D2EC5CC85C201A01D1002C47
:1002F000F6D130BD10B501F0C7F910BDFFFFFFFF0B
:1003000010B50022FD4BFE4903C900F0F9FDFC4A7F
:1003100003C210BDF0B58DB0FA4800F038FCFA49C0
:100320000860FA4800F033FCF9490860F54800F02D
:1003300022FCF64800F01FFCF348006800F07EFF46
:10034000F44AF54B0591049000F08CFEF34AF44B0F
:100350000791069000F0EEFE0B910A90EC480068C1
:1003600000F06CFFEB4AEC4B0591049000F07AFE34
:10037000EA4AEB4B0791069000F0DCFE09910890E9
:10038000E8480CC8E848E94900F06CFE079106907F
:10039000E748E8490B9B0A9A00F064FE0591049037
:1003A000079B069A00F0ACFDDE4A03C2E2480CC887
:1003B000DD48DE4900F056FE07910690DC48DD4935
:1003C000099B089A00F04EFE05910490079B069A3F
:1003D00000F096FDD84A03C2D8480068052807D126
:1003E000D7480068401CD64908600020D3490860FF
:1003F000D3480068D349884220DAD1490968C90046
:10040000D14A505800F01AFF0022D04B07910690B5
:1004100000F090FECE4A03C2C94909684900491C50
:100420008900C94A505800F009FF0022C74B0791C4
:10043000069000F07FFEC74A03C20FE00020C44AC6
:1004400010605060C34A106050600021C24801F043
:1004500049FE01460790C14801F037FEB148BD4949
:100460000CC803C900F0F0FD04460D46B84903C9A5
:100470000122D207514007910690AF480CC8069858
:1004800000F0E2FD06460F46A44AA54B2046294649
:1004900000F0E8FD07910690B1480CC8069800F0FE
:1004A000D9FDAF4A03C29D4A9D4B3046394600F004
:1004B000D9FD07910690AB480CC8069800F020FDC6
:1004C000A84A03C2A6480CC80020A74900F0CAFDEC
:1004D00022462B4603910290A448A54900F0C2FD94
:1004E00001910090039B029A00F00AFD059104908F
:1004F00000F0E5FE01460790984801F0F3FD9948A9
:100500000CC80020984900F0ADFD32463B460391EF
:1005100002909648974900F0A5FD01910090039B39
:10052000029A00F0EDFC0591049000F0C8FE01462F
:100530000790894801F0D6FD80480068401C7F493B
:1005400008600DB0F0BDF8B502218B4801F0EEFB5C
:1005500002218A4801F0EAFB09E0874801F05AFCD1
:10056000022804D17F20C00503F056F900E0F4E72B
:1005700000BF7F21C905794800F059FA7F21C905DC
:10058000754800F054FA7E4C7E4D7F4F7F493846C7
:1005900000F079FC009000F07EFE064629462046D9
:1005A000143001F0BAFB3146204601F0B9FC00BF1F
:1005B00000BFF8BDFFF7C7FF10E06F4801F02AFC4D
:1005C00001280BD16E4801F0B9FC0021624801F00E
:1005D00089FD04462146614801F077FDEDE710B53D
:1005E0008EB00020C04309900A900B900C900590AB
:1005F0000690079008900190029003900490CB2001
:10060000800075231B018722920061490090614898
:1006100001F022FC0446604A604900F01FFC002003
:10062000C04309900A900B900C900590069007909B
:10063000089001900290039004900346584A59494B
:1006400000904D4801F082FB0446534A564900F0A1
:1006500005FC0020C04309900A900B900C90059077
:1006600006900790089001900290039004904F48E4
:100670004F4B504AAD2149010090404801F066FBC4
:100680000446454A484900F0E9FB4B4B4B4A4C496C
:10069000324800F0A6F904463F4A4A4900F0DEFB22
:1006A00091239B01484A132149022B4800F099F9F4
:1006B0000446394A434900F0D1FB01203021831E12
:1006C000AD225201009101903A490E4800F0F2F932
:1006D0000446314A3D4900F0C1FB01203021831E10
:1006E000334A009101903149084800F0E3F904468B
:1006F000294A364900F0B2FB214869E00000F03F8A
:10070000100100107C030010F00000109C04001089
:10071000F4000010FCA9F1D24D62403F7B14AE47BB
:10072000E17A943FD0000010333333333333E33F67
:100730009A9999999999D93FD80000100801001009
:100740000C010010670700009439000000408F4042
:10075000C8000010C0000010DC0200103C020010B5
:10076000E0000010E800001000003E408FC2F528B5
:100770005C8F12C05C8F1240AC010010F4010010BD
:10078000BC050010150300000AD7A33C00247449DF
:10079000702B00006401001000000000F91E000032
:1007A000582A0000AC330000ED1D0000843000002A
:1007B0004C06000014180000202700002428000028
:1007C00054290000A920000044250000A51B0000BA
:1007D00001F0CCFB0446074A074900F03FFB0748FD
:1007E00001F0C4FB0446034A034900F037FB0EB096
:1007F00010BD000000000000951F0000EC05001077
:1008000070B504460E46251D00206060A060E060C3
:1008100020613146284602F0A7FA00BF2C1F20466F
:10082000143001F0A3FB0446143C25464435284609
:1008300001F09CFB054631482C46443C286020468C
:1008400070BD01607047F8B504460D461646256038
:100850002B48009621460CC82046143003F07CF843
:10086000F8BD10B504462046143001F067FB10BDFA
:1008700038B504462068002804DC0021201D01F062
:10088000B2F90CE00121201D01F0ADF920680090C3
:100890001C4821460CC82046443003F05DF838BDA2
:1008A00010B504460021201D01F09DF910BD70B562
:1008B00004460E4600BF0020205E401C002804D1E4
:1008C0002122114911A002F0A9FB00BF0020205EE7
:1008D0000F21090208400512002E07D0E0680068C9
:1008E0000121A9400843E168086006E0E06800686B
:1008F0000121A9408843E168086070BD687A000062
:10090000E8740000E0740000747A00006F626A2DE1
:100910003E70696E20213D202850696E4E616D65E4
:10092000294E4300FEB504460E467F21C9053046D8
:1009300000F0ECFC01D27F26F6055449304600F069
:10094000DBFC00D2514E942006510021304600F0CD
:10095000DDFC0AD201212046743001F044F9002167
:100960002046843001F03FF909E000212046743030
:1009700001F039F901212046843001F034F99C203E
:100980000159304600F07FFA054600BF6800400874
:1009900000BF009098200159009800F074FA01906F
:1009A00000F060FC074639462046FFF74AFFFEBDCF
:1009B000F8B504460D463649284600F064FA074665
:1009C00000F050FC064600F02DFC98210851085913
:1009D00000F048FC0646324600212046FFF733FF70
:1009E000F8BDF8B504460F4615461E46314620466A
:1009F000FFF706FF044639462046743001F0E5F85B
:100A00000446743C29462046843001F0DEF8044652
:100A1000843C7D21C9059C2001511E492046FFF7D9
:100A2000C7FF00212046FFF77DFF2046F8BD9C222E
:100A300011507047014694204058704770B50446E5
:100A40000E4600BF0020205E401C002804D1212259
:100A5000114912A002F0E2FA00BF0020205E0F212F
:100A6000090208400512002E07D0E0680068012145
:100A7000A9400843E168086006E0E06800680121D9
:100A8000A9408843E168086070BD0000000080BF95
:100A9000002474490AD7233C747A00006F626A2DDF
:100AA0003E70696E20213D202850696E4E616D6553
:100AB000294E4300FFB583B0044616461D460D9FE0
:100AC000201D049901F0EAF8041F314620465C30ED
:100AD00001F0E4F804465C3C29462046B43001F0BD
:100AE000DDF80446B43C0021FF2019300151001DFF
:100AF0000151FF210D310C9808512770201D01F084
:100B0000B7F8029020465C3001F0B2F801900298EC
:100B1000400001990843FF21153108510846015949
:100B2000001F0151604821460CC8201D02F0A5FE9F
:100B30005E4821460CC8201D02F08EFE012F0DD10B
:100B4000594821460CC820465C3002F096FE5748B2
:100B500021460CC820465C3002F07EFE681C00284E
:100B600006D0534821460CC82046B43002F085FE1A
:100B7000204607B0F0BD0022FF2119310A50091D9F
:100B80000A5070470146FF20153040587047014613
:100B9000FF201930405870470146FF201D30405853
:100BA0007047F8B504460025201D01F061F806469F
:100BB00020465C3001F05CF8074670003843FF21A6
:100BC000153108512078002835D1081F0059032815
:100BD00003D108460059002809D0FF2011300059E0
:100BE00000280CD1FF2015300059032807D1FF2021
:100BF00019300059401CFF211931085145E0FF20F0
:100C000011300059022804D1FF2015300059012865
:100C100009D0FF2011300059012836D1FF201530AE
:100C20000059022831D1FF2019300059401EFF2100
:100C30001931085129E02078012826D1FF201530EC
:100C40000059FF2111310959484003281DD0FF20C8
:100C500015300159001F0059814216D0FF20113074
:100C6000005DC007C00FFF21153109590222114054
:100C7000491048400546002D00D1451EFF2019307F
:100C80000059411BFF2019300151FF201530015937
:100C9000001F0151F8BDFF211D310958491CFF22D9
:100CA0001D32115070470000F0740000F87400000D
:100CB000007500000FB400B58DB009900B9010A91D
:100CC00000200091C0430A9000200C900648069036
:100CD000064807906A4609A80F9900F09FFB0DB0DF
:100CE00008BC04B0184700003D1400005D1400006B
:100CF000FFB50027FF4383B000205C6801909E6829
:100D00001D46A9697F1C049888470090296A884776
:100D10000028F6D10098401C0CD0032040028443E8
:100D2000002E19DD600614D500982B2809D02D2837
:100D30000FD103E00020C04307B0F0BD01208002C6
:100D40000443A9697F1C04988847761E0090002EF2
:100D500002DD0098302803D00598002825D035E022
:100D6000012040020443A969761E7F1C049888472D
:100D70000090002E03DD782805D0582803D0059870
:100D8000002810D022E00598002801D010281DD19D
:100D9000012040028443A969761E7F1C049888477D
:100DA0000090102002E0082000E00A2005900DE0ED
:100DB000012149020C43059A0199761E51430818F6
:100DC0000190A9697F1C049888470090002E05DDDA
:100DD0000599009800F00CFB0028E9DAE96904980D
:100DE0008847A00502D40120C043A5E7E00722D12F
:100DF000600611D56005019800D5404229680A1D9A
:100E00002A600968220501D5087014E0220701D57F
:100E1000088010E008600EE02868011D2960006865
:100E2000210502D50199017005E02107019901D53D
:100E3000018000E0016038467EE7000070B5054C97
:100E4000054D03E0206800198047241DAC42F9D10C
:100E500070BD0000D87A0000DC7A0000F8B50746C3
:100E600015460E46102002F0A3F8040009D0676072
:100E7000A660E56000F004FB0168216004600020CA
:100E8000F8BD0120F8BD024670B54A40D30FDB071C
:100E900040002DD04A002AD0010E140E000212028A
:100EA0000919400A520A8418E50104465443000A0D
:100EB000120A2E045043A4194219200CC543AA1843
:100EC000120C0125AD03521C521912047F3924045F
:100ED00000D0521C104301D44000491EC2B20C067F
:100EE000C0092018401C4008802A02D003E00020DE
:100EF00070BD40084000002900DA0020184370BD92
:100F0000F0B507460846584087B0C00F0490480027
:100F10000E46590040084908BC1A884105D2384697
:100F200031461E4617460B460246580040081043FD
:100F30004CD0300D039040055900400D490D0590EF
:100F4000401A0290402872DA18030121000B0905AB
:100F50000843019004980092002805D0019952425C
:100F60000020884100920190029840210A1A0199BC
:100F7000009800F01AFA05460C466B4607CB00F0C5
:100F800024FAC0197141039A0E0D0023D717564059
:100F90001A467A40164344D0049A002A2DD0029A69
:100FA000012A039A15DC1205C01A91410126360563
:100FB000001C7141D20F059ED20700930192029648
:100FC0002A46234600F0D9FA07B0F0BD384631462C
:100FD000FAE71605224A0F46B218C01AB741012196
:100FE0000905001C4F4100187F411146181879412E
:100FF000E20F10436D19644113E0E2076D081543D9
:101000006408C2071443039A01261205C01A9141CD
:101010003605001C7141CE07400830434908C0180E
:1010200051412A46234600F09BFACDE7FFE704989A
:1010300001224000C117121A00238B410498314647
:10104000C417381AA141EEE730B40124E407634025
:1010500030BC55E730B40124E407614030BC4FE7B1
:101060000000E0FFF0B51FB488B00B990998002488
:1010700048400999C00F490049080991C0070B99D8
:101080000090490049080B9109990898A646084321
:101090001CD00B990A98084318D0099801244000E5
:1010A000420D4800410D099824050003000B204320
:1010B00009900B980003000B20430B9050181C491B
:1010C0004018002201901446104605E00020014619
:1010D0000DB0F0BD032801DA034600E003239C466F
:1010E000C11A0AAE0AE05F0008ADED5B4F00F75B86
:1010F0007D430027AA187C41491C5B1E6145F2DD37
:10110000410004AB5A522104120C0A43240C401C27
:101110000828DFDB01980290009970460191009049
:10112000059B049A0799069800F027FAD0E700007B
:101130000DFCFFFFF0B50C465C4085B0E40FE40702
:1011400003944C000026640859009446490802465E
:101150000296224321D062460A431ED06200570DF8
:101160004A000E032303550D012402462C49240591
:10117000781B1B0B360B4018234326436146009017
:101180001C46501AB44103D30098401C009002E062
:10119000921800985B41002803DA0020014605B050
:1011A000F0BD0020012109050746864611E064468E
:1011B0001D46141BB54106D36546521BB341744608
:1011C00007430C43A646CD07400849082843921818
:1011D0005B4105460D43EAD11046184313D06046E3
:1011E000194650407140084306D06046101AB3417A
:1011F00006D20122002306E000220123DB0702E0E1
:101200000122D2435310009874460105381C6141F5
:10121000029C039D0019694100F0A2F9BFE700009C
:10122000FD030000C217C10F504010B54018CA0797
:101230009623002100F05BF910BD00000EB5C21727
:10124000C10F5040CA0740180021054B029301927C
:1012500000910A460B4600F090F903B000BD000073
:1012600033040000C20F410040020123400ADB05A5
:10127000D207090EC0187F2901DA0020704796298D
:1012800003DC9623591AC84001E096398840002AA9
:10129000F4D040427047410040020122400AD2058A
:1012A000090E80187F2901DA00207047962903DC97
:1012B0009622511AC8407047963988407047CB0F24
:1012C000DB07490010B5490802460A4307D00A0D5A
:1012D00007240903E401090B121B002A01DC00208A
:1012E00010BDC900440F0C43C100E018D20580189E
:1012F00000F0F5F810BD00000122D207002800DB45
:10130000101A002900DB511A814270470122D207CE
:10131000002800DB101A002900DB511A88427047B0
:1013200038B50546684605700C460868002301225A
:10133000694601F027FC002802D00020C04338BDD8
:10134000E068401CE060284638BDF0B51FB4064692
:10135000002082B005464024019100901BE00199D5
:1013600022460F46304600F0D9F9049A059B801AB0
:10137000994110D310461946224600F016F8361A45
:101380008F410197224601200021009F00F00DF8B7
:1013900038184D4100902046641E0028DFDC019B78
:1013A00000982946324607B0F0BD10B5202A04DB6C
:1013B0000146203A9140002010BD914020239C1A04
:1013C0000346E3401943904010BD10B5202A06DBC8
:1013D000CB170846203A1041C1170B4306E00B46D5
:1013E0001341D0402024A21A91400843194610BD51
:1013F0003A2800D23038202302469A43412A01D3AA
:1014000010463738884201D30020C043704700009F
:1014100002681378511801601846704710B5D16002
:10142000044951610449116200211161114600F023
:101430008DF910BD111400003F1700004268002A0A
:1014400008D001680B78491C002B03D0521E06C03F
:10145000184670470121C160881E70474268002A03
:101460000BD0C3680168002B07D183688B4204D07E
:10147000491E521C06C0002070470020C043704720
:10148000004870474C010010034870470248001D97
:10149000011F8860001D704750010010F8B5064616
:1014A000FFF7EEFF0090054615E0002E02D0E06841
:1014B000B0420FD1206828600098A1680768606872
:1014C0008847204601F0AEFB00980068B84202D081
:1014D0000098E8E725462C68002CE6D1F8BD0029E5
:1014E00004DA401C490001D140084000704770B444
:1014F0000024050C05D11024000402D1002921D0BC
:101500001124050E01D100020834050F01D100019C
:10151000241D850F01D18000A41C002801DB4000A0
:10152000641C002908D020252E1B0D46F540A14043
:1015300000D001212943084301061B1B000ADB1DC3
:1015400002D5002070BC7047DB05181880180029F0
:10155000F8DA401C4900F5D170BC400840007047E3
:1015600010B5002B08DA0024401C614192185B4141
:101570001A4301D14008400010BDF0B51FB482B03D
:1015800005460C0003D0084600F0E8FD02E000F03C
:10159000E5FD20300246009021462846FFF705FF72
:1015A000049B059A04460F4618431143084314D080
:1015B000184610431BD0009840210A1A1846059976
:1015C00000F0ACF805460E46009A05990498FFF71E
:1015D000ECFE084305D0012004E02046394607B060
:1015E000F0BD0020C11705430E432C43374300993B
:1015F0000E986305401A7905E40A00220C43FD0A9F
:101600000A3002D500200146E9E7010510196941B9
:101610000C9C0D9D00196941FFF7A2FFDFE7000058
:101620004A0009030123090B1B0519430A4B10B596
:10163000520D9A4202DA0020014610BD064B3433A7
:101640009A4203DC9A1A00F069F810BD034BD218D5
:10165000FFF7ABFE10BD0000FF030000CDFBFFFF56
:1016600010B5002904DB0124E40740428C412146E7
:10167000002B04DB1C460123DB075242A3419942A5
:1016800000D1904210BD000010B500F00EF80169C5
:10169000002903D000220261884701E0806880476A
:1016A000C046C04610B5C046C04670B5FFF7EEFE56
:1016B00004680546002C15D1202001F079FC0400B7
:1016C00012D0002009492C6003C40949216020710F
:1016D000A060E06007492061083C002901D000F0CB
:1016E000D2F9E061204670BDC046C046000000004F
:1016F000A516000000000000064C0125064E05E07E
:10170000E36807CC2B430C3C98471034B442F7D322
:10171000FEF77AFDB87A0000D87A000010B5202ACA
:1017200004DB0846203AD040002110BD0B46D340D0
:10173000D0402024A21A91400843194610BD10B58C
:101740000F21C0B2490200F0BFF910BDF3B58DB052
:1017500000200A9001200B90002608460C300C4611
:1017600009906269012109989047051E2ED0252D08
:101770002DD0216A8847002818D062690121099874
:101780009047216A88470028F7D1411E626909986D
:10179000904700E0761CA1690D988847216A884728
:1017A0000028F7D1E1690D988847DAE7A1690D981B
:1017B00088470746A84201D1761CD2E7E1690D9817
:1017C00088477F1C02D10A98002877D049E100277A
:1017D00062693D463946099890472A280CD16269CA
:1017E000012109989047012506E00A214F433F183F
:1017F000303FEBD4102005436269012109989047DE
:10180000014630390A2903D29B498F42DEDCECE7DE
:10181000E90600D4994F6C280AD04C2810D06828CB
:1018200024D06A282ED074280CD07A280AD00DE053
:1018300062690121099890476C2823D004211CE09B
:10184000202005436269012109989047A7606560DF
:1018500065284FD026DC582839D01ADC452849D0D5
:1018600012DC252834D04128B0D143E0626901213F
:1018700009989047682802D008210D43E6E7012027
:10188000C002DEE70220DCE7462833D047282CD10F
:1018900030E05B2870D061282CD063286CD064289D
:1018A00023D161E06F284FD009DC662822D0672859
:1018B00020D0692826D06E2817D12EE0CDE07028E0
:1018C0004DD073286FD075284ED078280DD154E0B4
:1018D000A1690D9888470546252800D16CE7E16984
:1018E0000D9888476D1C00D16DE7BAE00A224CE0E4
:1018F0000A2252E0012023466A46C0430D99C046A1
:10190000C046A3E02846402108436060A80723465C
:1019100001D5002239E000223FE0E80700D020E7AF
:101920002068011D21600068290501D5067018E7AF
:10193000290701D5068014E7A90703D5F11706602A
:1019400041600EE706600CE72846402108436060CE
:10195000A807234601D5082217E008221DE04849C0
:1019600028460840606016E0284640210843606031
:10197000A8072346BCD5B9E715E02846402108430F
:101980006060A80707D5234610220120C0430D99A7
:10199000C046C0465AE0234610220120C0430D999C
:1019A000FFF7A6F952E000210C910B460091632845
:1019B00002D05B2807D043E0E80601D40120A060F4
:1019C000012000903CE062690121099890475E285F
:1019D00005D101200C900146626909989047216960
:1019E000002906D10B4601AA8F00491CD3510829B2
:1019F000FADB002835D0216900290ED1C117C90EA4
:101A000009184A11930001AA9A1849094901411A73
:101A1000012013688840034313606269012109981B
:101A200090475D28E5D10C98002808D0002001AB34
:101A300081005A58401CD2435A500828F8DB01ABA9
:101A400001202246C0430D99C046C04600280ADA4C
:101A5000401C06D10B98002803D00020C0430FB0D3
:101A6000F0BD0A98FBE7E90702D10A99491C0A91DF
:101A7000361800200B9074E6CCCCCC0CFFFFFF7F17
:101A8000F1F7FFFF704710B5882001F091FA0028A8
:101A900001D00021017010BD802904D8002802D097
:101AA0000178002901D00020704701210170083021
:101AB0007047002803D002460832914201D000202E
:101AC00070470021017070477F2801D9002207E08C
:101AD000054B42089A5CC00700D112091207120F89
:101AE0000120904008407047C879000010B501F00F
:101AF00088FB01F085FBFEF75DFD10BDF0B4844668
:101B00000E48026893070E4A9B0F1768012B0ED0F0
:101B100000252B463A469C002E59165166197668C8
:101B2000A41866609B1C302BF5DB01220260604626
:101B30008000C0190164F0BC7047000000800440C0
:101B40001C01001070B4134800240460012343609A
:101B5000446043604168C907FCD00F4923228A6072
:101B60000E4A956B8026B5439563CA68D207FCD0B0
:101B700003210163436344634363416BC907FCD0A2
:101B8000836307480168012212041143016070BC9D
:101B90007047000040800440008004400082044000
:101BA0008080044010B504462046B43000F09CF814
:101BB0000446B43C583800F097F804465C3C58386A
:101BC00000F092F8041F204610BD70B504460D4683
:101BD000002020606060A060E0602946204601F09F
:101BE000C3F8204670BD70B504460D4600BF2946B7
:101BF0002046FEF75CFE00BF204670BD0168896884
:101C0000084710B50246001D01F066FD10BD10B575
:101C1000001D01F0CDFD10BD10B504460548206043
:101C200000206060A060E060034801F0E1FD204614
:101C300010BD0000107A0000FD1B000010B5044626
:101C400003482060201D01F0B3FD204610BD0000B8
:101C5000107A000010B5002906D0012905D002290C
:101C600002D13C3000F04CF810BD2030FAE7000003
:101C700010B504460420205E401C04D12A220549E8
:101C8000054801F0CBF9A0680068002800D00120C9
:101C900010BD0000E4770000CC77000070B50D4661
:101CA0000F490160002141608160C16001614161B3
:101CB0008161C161203000F034F800211C3000F057
:101CC00030F83C3804460346064A2946143001F0F1
:101CD0008DF82946201D01F035F8204670BD000022
:101CE000247A0000551C000010B50446034820600B
:101CF0002046143001F072F8204610BD247A00000E
:101D00000168002900D008474368002B04D0014631
:101D10008269083118461047704701600021416010
:101D200070470022426082610160704770B50D46C5
:101D300006460024A00080194068002802D02946E9
:101D400001F0DBF8641C102CF4DB70BDF0B589B039
:101D50009E469446044624480F9F109E139D199B4F
:101D60000E9A2060684601806146418071468180FC
:101D7000C28007814681119981811299C1810582B2
:101D800014994182159981821699C182179901830C
:101D90001899418383831A99C183002005466E46B2
:101DA00060646F00F05F401C0CD0102000F0A8F9B8
:101DB0000890F15F0022026042608260C26000F021
:101DC000C1FF0898A90009194860F05F401C04D0C1
:101DD0000120616CA840014361646D1C102DE0DBA3
:101DE000204609B0F0BD0000347A000070B5054609
:101DF000074800242860A00040194068002801D04E
:101E000000F079F9641C102CF5DB284670BD000049
:101E1000347A0000F8B5002407462546A800C0190A
:101E20004668002E0FD00020305E401C04D12A22CC
:101E30000749084801F0F2F870680068002800D0EF
:101E40000120A84004436D1C102DE7DB2046F8BD9F
:101E500014770000FC760000F0B589B09E469446E9
:101E6000044624480F9F109E139D199B0E9A2060D4
:101E7000684601806146418071468180C280078149
:101E80004681119981811299C181058214994182FB
:101E9000159981821699C1821799018318994183F6
:101EA00083831A99C183002005466E4660646F00E3
:101EB000F05F401C0CD0102000F022F90890F15F78
:101EC0000022026042608260C26000F04DFF08980C
:101ED000A90009194860F05F401C04D00120616C22
:101EE000A840014361646D1C102DE0DB204609B061
:101EF000F0BD0000447A000070B505460748002494
:101F00002860A00040194068002801D000F0F3F8D4
:101F1000641C102CF5DB284670BD0000447A0000DC
:101F200070B50D460446FFF772FE256101F012FC04
:101F3000216941182046FFF764FE70BD10B50446C4
:101F4000FFF765FE204600211430FFF7E6FE10BDC6
:101F500010B504464068216941182046FFF751FE3C
:101F600020461430FFF7CCFE10BD000010B504462B
:101F70002046FFF751FE0446054800212060204618
:101F80001430FFF7CEFE0446143C204610BD00007E
:101F9000547A000010B50446064820602046FFF73A
:101FA00036FE204600211430FFF7B7FE2046FFF72B
:101FB00045FE10BD547A000010B51430FFF7A0FEA6
:101FC00010BD007B7047000070B506460C480D46FA
:101FD0000468002C12D0A06800280CD02A46314694
:101FE000FEF779F9002806D1A068FEF75FF9A8424C
:101FF00001D1204670BD6468002CECD1002070BD7A
:102000004001001010B504464068002803D0FFF7D7
:10201000D8FF012801D0002010BD606810BD10B5A8
:1020200004464068002803D0FFF7CBFF002801D00A
:10203000002010BD60680028FBD0001F10BD406864
:10204000002800D00120704710B54068002804D057
:10205000FFF7B7FF002801D0002010BD012010BD00
:102060000068704710B50446002020606060087862
:102070002F280FD1487800280CD04B1C00211A467D
:10208000236010782F2807D0002807D0491C521C45
:102090002260F6E7204610BD501C20601846FFF76E
:1020A00093FF6060204610BD70B504462546264665
:1020B00044363046FFF76EFF0546443D3038FFF7A3
:1020C00069FF0446143C204670BD70B505460C46B9
:1020D0002046FEF7AFFC064631462846FEF722FCB6
:1020E000284670BD70B504460D4629462046FEF7C9
:1020F00019FC204670BD10B500F094FD10BD000025
:1021000010B5040008D1012406E0FFF7BDF900680E
:10211000002800D103488047204600F049FF0028EE
:10212000F3D010BDF50200000FB410B5024604A9AB
:10213000034B039800F004F910BC08BC04B0184726
:102140002113000070B514460D460246024B21468D
:10215000284600F0F5F870BD211300002021020C84
:1021600001D010211046020A01D010460839020998
:1021700001D01046091F820801D01046891E42086E
:1021800001D0881E7047081A704710B50020C0465D
:10219000C04610BD02E008C8121F08C1002AFAD1CB
:1021A00070477047002001E001C1121F002AFBD1D7
:1021B000704710B5C168006800F0D0FC002802DA52
:1021C0000020C04310BD002010BD0000F0B51FB4BA
:1021D00086B00998089A030D0021024314D0514893
:1021E000514A1818504305141198012810981AD014
:1021F000281A401C00264D4F4D490096019104902D
:10220000002812DA444211E01198012449A3012860
:1022100001D11098C1430698119A84600360C2608E
:1022200041600BB0F0BD4042E4E7044621050020C8
:102230003F4A001C51410391029012E0E00707D091
:1022400032463B4601990098FEF70CFF0191009041
:1022500032463B4610461946FEF704FF06460F4637
:102260006410002CEAD10498039B0028029A099973
:10227000089806DAFEF7F6FE019B009AFEF7F2FEDA
:1022800005E0FEF757FF019B009AFEF753FF044657
:102290000E460022284BFFF7E3F903D80020C04385
:1022A000014607E00022254B20463146FEF728FE76
:1022B000FFF7B6F9102409E0002C0ADB0A220023FC
:1022C000FFF743F8079B30321A55641E02460A4353
:1022D000F2D11122641C079B121B1C19119B012BAC
:1022E00003D0012308430ED10AE0084304D0112093
:1022F00010900020119077E71098151A6D1E0BE0D2
:102300001098824202DD00236D1C03E0824201DA54
:1023100000236D1E002BEED0069811998260C160DB
:1023200030C07EE701FCFFFF104D000000001440AC
:102330000000F03F300000000000F0430000E03FEC
:10234000FFB597B00646002518E2252877D100246E
:102350002746FD49049400E00443761C32780120AE
:10236000203A90400842F7D130782A280ED0022235
:10237000307801463039092916D804990A2359437F
:10238000303940181443761C0490F1E7189802C8BD
:1023900004911890002904DA0120400304434842C4
:1023A000049002200443761C30782E2814D1042097
:1023B00004437078761C2A2809D11898761C80C8A6
:1023C000189009E00A214F43303FC719761C307836
:1023D000014630390929F5D930786C2810D006DC4F
:1023E0004C281AD068280ED06A2817D104E0742827
:1023F00013D07A2812D110E00120400504430CE0EC
:102400000121090501E0032109050C43717881428E
:1024100003D1012000052418761C761C3078119019
:1024200066280BD013DC58287DD009DC00287BD02F
:102430004528F6D04628F4D047281AD1A5E118E05F
:10244000632835D0642870D0652812D19DE17028AA
:102450006CD008DC6728F1D069287BD06E280DD0BD
:102460006F2806D1BAE073282ED0752871D078284D
:1024700059D01A9A199990476D1C7EE16002400F5D
:10248000022809D003280DD00428189801680DD01F
:102490000D60001D189070E11898EA1701680D6032
:1024A0004A60F6E7189801680D80F2E70D70F0E7D2
:1024B00018986A4601781172001D18900020507219
:1024C00002A80090012005E0189802C8189000208A
:1024D0000091C04361070DD5002101E00199491C1D
:1024E0000191B94212DA8142F8DB009A515C00296D
:1024F000F4D10BE0002101E00199491C01918142D6
:10250000FADB019A0099895C0029F5D101990498B8
:102510001A9B471A21463846199A00F097FA0199F2
:10252000401945180BE04FE02CE113E04EE0009815
:1025300000990078491C00911A9A199990470198BE
:10254000401E0190401CF2D1214638461A9B199A30
:1025500010E137E00A200021009001916002410F54
:10256000022907D0189A01CA1892C2179446032963
:1025700008D00AE01898C01DC108C90005C9189103
:10258000944607E000B2C2179446042902D140B233
:10259000C1178C4600226146944506DA0A4600219E
:1025A000404291418C462D2102E0210504D52B218A
:1025B0006A461173012103E0E10701D02021F7E70A
:1025C000029155E00A200AE0102008E01020009057
:1025D0000021042004430191082703E00820002182
:1025E000019100906002410F022907D0189A01CA98
:1025F000189200229446032908D008E01898C01DBC
:10260000C108C90005C91891944603E080B20429A5
:1026100000D1C0B200210291210729D5119970295A
:1026200006D0009A1021019B4A401A4305D00EE0C3
:1026300040216A461173012108E06146014306D03A
:1026400030216A4611731199517302210291009A47
:102650000821019B4A401A430AD16146014301D136
:10266000610705D530216A46117301217F1E029151
:102670001199582904D035A10E910DA90D910DE0A5
:1026800037A1F9E76146019B009AFEF75EFE0E9BBB
:102690008C469B5C0D9A521E0D921370614601434D
:1026A000F0D10D9805A9081A20300190600703D5D4
:1026B00001200004844300E001270198874201DDE6
:1026C000381A00E00020019900904118029809187A
:1026D0000498401A0490E00306D421461A9B199AE4
:1026E000049800F0B3F94519002706E003A81A9AE8
:1026F000C05D199990476D1C7F1C02988742F5DBDD
:10270000E0030CD521461A9B199A049800F09EF913
:10271000451904E01A9A3020199990476D1C0099C8
:10272000481E00900029F5DC08E00D980D9900780E
:10273000491C0D911A9A199990476D1C0199481ED0
:1027400001900029F1DC63E10928010030313233C6
:1027500034353637383961626364656600000000DD
:1027600030313233343536373839414243444546C7
:102770000000000000F05AF94519761C3078002856
:1027800000D0E2E528461BB0F0BD600700D4062764
:102790001898C01DC108C90048680A680831C30FED
:1027A000DB071891190001D09CA108E0210501D593
:1027B0009BA104E0E10701D09AA100E09AA14300A7
:1027C00011985B08109165280CD006DC452809D0CB
:1027D00046281DD0472841D141E0662818D06728F7
:1027E0003CD13CE00021112F01DB112000E0781CDE
:1027F0000191009008A911A8FFF7E8FC1399059131
:102800000021119A15927F1C12980197009150E0B7
:102810000120C00703900120019008A9009711A88A
:10282000FFF7D4FC139A149905920022119B009291
:1028300012981593059A0192002901D0104602E0E2
:10284000791C40180190381A01D5019804E04042E3
:10285000401E0090781C0190C01B029043E0012FA5
:1028600000DA01270021112F01DD112000E0384698
:102870000191009008A911A8FFF7A8FC13990591F0
:10288000119A0021129815920091019721070CD4FA
:102890000599B94201DB019900E00191012904DDAC
:1028A000159A491E515C302906D0B84201DA011D43
:1028B00005DA0121029115E00199491EEDE7002892
:1028C00005DC0099411800910199091A03E0019A69
:1028D000411C914200DD01910099401A401C029078
:1028E0000120C0070390200706D402990198814275
:1028F00002DB0020C043029000206946C87707AF82
:10290000012103980337C907884224D0022011907F
:102910002B201290039800280CDA404203902D20BF
:10292000129007E00A210398FDF798FC30317F1ED2
:10293000039039701199481E11900029F2DC039818
:102940000028EFD1791E12980870307820210840B5
:102950004530BF1E387006A8C01BC01D03901098DC
:102960000078002800D00120019941180298C01772
:102970000918039809180498401A401E0490E003AF
:1029800006D421461A9B199A049800F05FF845195D
:1029900010980078002803D01A9A199990476D1C56
:1029A000E00324D521461A9B199A049800F04EF8AA
:1029B00045191CE00098002807DB0099059888421B
:1029C00003DD1598405C199901E0199930201A9A95
:1029D000904700986D1C401C00900298401E029089
:1029E000002804D11A9A2E20199990476D1C01993C
:1029F000481E01900029DDDC05E038781A9A7F1C1A
:102A0000199990476D1C0399481E03900029F4DC26
:102A100021461A9B199A0498ACE600002D0000008C
:102A20002B0000002000000000000000F8B5044664
:102A300000251E461746880404D405E039462020A8
:102A4000B0476D1C641EF9D52846F8BDFFB5044695
:102A5000002581B01E46C80301D5302700E020279D
:102A6000880404D505E038460399B0476D1C641E00
:102A7000F9D5284605B0F0BDF0B50E4683B0044642
:102A800032A1FDF71AFC002809D0314F0025A8001B
:102A90003858002809D06D1C102DF8D351E02D496D
:102AA0000868421C0A6003B0F0BD102D49D220789E
:102AB0003A2811D021466846FFF7D4FA6846FFF756
:102AC000BEFA00283DD06846FFF7BEFA00286846E7
:102AD00009D0FFF7A4FA2DE06A461FA12046FEF7B1
:102AE000E9F8009826E0FFF78DFA002829D0B10711
:102AF00001D5022408E0710701D5012404E0310763
:102B000001D5092400E000243107890F02D00121FA
:102B100049020C43710702D5012189020C43264664
:102B200004466846FFF79CFA0146206832468368EF
:102B300020469847002804D0A9007850E81C03B02C
:102B4000F0BD0020C04303B0F0BD00003A74740033
:102B50001C060010180100103A257000032801DA45
:102B600000207047064A800080184038406B0028DB
:102B700003D002681369002218470020C043704741
:102B80001C06001070B514460E46032814DA1248CD
:102B90000068002804D1114A1149124800F0EEFCE7
:102BA0000025002C06D9715D0E4800F051FD6D1C0A
:102BB000A542F8D320460AE00B498000401840386F
:102BC000406B002805D001680B6831469847201AF1
:102BD00070BD0020C04370BD2C010010A416000081
:102BE000A8170000340100101C0600100FB410B527
:102BF00003AA03480299FFF7A5FA012000F002F8A2
:102C00001807001004460548FFF7D3FA0448FFF7F9
:102C1000D0FA002C01D000F029FAFEE704070010DA
:102C20001807001010B5002823D0124B0022001FF7
:102C3000196803E0814203D80A4649680029F9D19E
:102C4000002A0AD01368841A9C4204D1006818181C
:102C50001060104602E0506000E01860002907D0C4
:102C600002680B1A934203D10B68D21802604968BC
:102C7000416010BD5C01001070B504460020205E6C
:102C80000D46401C04D138220B490CA000F0C6F9B7
:102C900020880005020F0120002D07D0012D04D14E
:102CA000A1680B68904003430B6070BDA1680B687E
:102CB00090408343F8E70000F07800006F626A2DCF
:102CC0003E70696E20213D202850696E4E616D6511
:102CD000294E430070B505460180481C29D00804E0
:102CE000000F052200041207861800200C460C294C
:102CF0000CD010498C4209D00F498C4206D00F49A4
:102D00008C4203D02521C9018C4200D1012001460B
:102D1000204600F077FA2005000F0121814088004D
:102D2000801968600120C0033018A860044830187A
:102D3000E86070BD740B0000781000007C1100008A
:102D4000FC3F000070B5012605460C46FFF7C2FFA8
:102D5000611C07D000212846FFF78EFF3146284628
:102D600000F0CBF870BD000070B50D46044600269B
:102D7000FFF7B0FF6D1C18D0A05F401C04D12122CA
:102D80000A490B4800F04AF920880005010FE06865
:102D9000026801238B409A43026001212046FFF71D
:102DA0006BFF3146204600F0A8F870BD6C7800003B
:102DB0005478000010B5002000F0A6F810BD10B542
:102DC000012000F0A1F810BD10B5022000F09CF821
:102DD00010BD10B5032000F097F810BD0068002169
:102DE000014A8000115070475C060010FFB507468D
:102DF0000C461C4881B0491C1DD01B49BC800A6090
:102E000021041A4E0D0F18D0012D1DD0022D22D0F5
:102E1000032D10D116491C20FEF770FE30053060DE
:102E20000C2045432005000F2818124B82000499FE
:102E300099503860002005B0F0BD0F491F20FEF703
:102E40005DFE0120C007EAE70C491E20FEF756FE92
:102E500001208007E3E70A491D20FEF74FFE01200D
:102E60004007DCE7FFFFFFFF2401001000E100E066
:102E7000D32D00005C060010B52D0000BF2D000012
:102E8000C92D000010B4838805241804000F000425
:102E9000240700191B051C0F0123A3400124E40390
:102EA0000019C4691C43C46144689C4344600469BC
:102EB0001C4214D0002A03D081681943816007E0C6
:102EC00082689A4382600129C16806D01943C160B3
:102ED00001691943016110BC70479943F7E78468A1
:102EE0009C4384600129C16805D09943C160002AD0
:102EF000EED110BC70471943F8E710B50246002028
:102F0000105E00F0A3F910BD052270B50104120790
:102F10008B180121C9035C18A1691F4A491E0D467F
:102F200049081540114069181C4A0D46890815408A
:102F3000114069181A4A0D460909154011406918CF
:102F4000184A0D46090A1540114069188AB2090C41
:102F500051180C225043A5690818A168134A0D4264
:102F6000114912680BD0FF25AD015B19DB6BA56918
:102F70002B4208D10BE09047A069E06170BDA369C6
:102F8000E5682B4203D0800008580121F3E7800058
:102F900008580221EFE700005555555533333333B8
:102FA0000F0F0F0FFF00FF005C0600102401001040
:102FB000F0B50B30C108C900144F0026144A0FE0C9
:102FC00003688B420BD38B4205D95C1A43184568C2
:102FD00030C3083B00E04368136002C004E0021DF8
:102FE00010680028ECD13046002803D1386800284A
:102FF00001D00020F0BD064A06481060064A121AA9
:10300000D208D20044C001203860D7E76001001028
:103010005C010010340700103007001008B5009262
:103020000B46024603A11048FFF77EF800F01EF899
:1030300008BD00006D626564206173736572746120
:1030400074696F6E206661696C65643A2025732C23
:103050002066696C653A2025732C206C696E6520AA
:103060002564200A000000001807001090B072B616
:10307000AD24640121466846FFF776FE75252D01D3
:10308000294604A8FFF770FE214608A8FFF76CFE4A
:1030900029460CA8FFF768FE012569460020085E56
:1030A000401C04D1212254495448FFF7B7FF694618
:1030B0000888039900050968000F2A468240039892
:1030C0001143016069461020085E401C04D1212292
:1030D00049494A48FFF7A2FF6846008A0799000558
:1030E0000968000F2A4682400798914301606846AC
:1030F0002021415E491C04D121223F493F48FFF76E
:103100008DFF6846008C0B9900050968000F2A4660
:1031100082400B989143016068463021415E491C12
:1031200004D1212234493548FFF778FF6846008EE4
:103130000F9900050968000F2A4682400F98114335
:103140000160962000F07AFB68460021415E491C30
:1031500004D1212228492948FFF760FF68460088EA
:10316000039900050968000F2A468240039891439D
:10317000016068461021415E491C04D121221E498C
:103180001E48FFF74BFF6846008A0799000509684B
:10319000000F2A468240079811432C46016068467A
:1031A0002021415E491C04D1212213491348FFF715
:1031B00035FF6846008C0B9900050968000F224610
:1031C00082400B981143016068463021415E491CE2
:1031D00004D1212208490948FFF720FF6846008EE4
:1031E0000F9900050968000F84400F98A143016002
:1031F000962000F023FB50E72075000008750000C2
:103200007047704770B504460D46401C04D1152226
:10321000074908A0FFF702FF0B49E0B24018016818
:103220006A07C908C900520F1143016070BD000050
:103230005C79000070696E20213D202850696E4E37
:10324000616D65294E4300000040044070B504469E
:103250000D46401C04D11E220A490BA0FFF7DEFEDA
:1032600069070E4AE0B2C90F83181A681820824312
:10327000A807C00E10430122920290438902014325
:10328000196070BD5C79000070696E20213D2028B6
:1032900050696E4E616D65294E4300000040044048
:1032A000884202D0421C01D10846704710B5491C23
:1032B00004D003A0FFF79AFC0020C04310BD00001B
:1032C00070696E6D6170206D69732D6D61746368D6
:1032D00000000000002210B5D243431C0BD0002395
:1032E000CB5E5B1C0ED00023CB5E834205D14C68C5
:1032F000601C08D00AE0104610BD0C310023CB5EE4
:103300005B1CF0D1144602A0FFF770FC204610BDF4
:1033100070696E6D6170206E6F7420666F756E647B
:1033200020666F72207065726970686572616C00EA
:1033300010B50446401C0FD00020085E401C11D080
:103340000020085EA04208D189682046FFF75AFF96
:1033500000212046FFF77AFF10BD0C310020085EE7
:10336000401CEDD101A0FFF741FC10BD636F756CEF
:1033700064206E6F742070696E6F757400000000B9
:10338000F3B543498BB00120886142480068019041
:103390000C9801010198FCF761FF80B206900020B3
:1033A0000990012000270790002953D00C98012490
:1033B0000025049002E00025002C45D901986043C7
:1033C00040000ED50C9829194143019A60005043E2
:1033D000FCF744FF0009C1030120C0030818060CD4
:1033E0000DE00C9829194143019AA0005043FCF7C5
:1033F00035FF4009C1030120C0030818060C002E48
:1034000000D10126002D02D0022E00D2022628195A
:103410007043C10001986043FCF720FF401C0C99E9
:103420004008401A00D540420499884208DA0794BF
:103430000C99099506960490884201D1012703E072
:103440006D1CEDB2A542B9D3641CE4B2102C01D2BC
:10345000002FB0D00B980068C26880210A43C26078
:103460000698020A0B98006842600698C2B20B9850
:10347000006802600798099A000110430B9A1268CD
:1034800090620B980068C2688A43C2600DB0F0BDBC
:103490008080044020010010F8B51D4614460F46F8
:1034A0000646012B06D0022D04D0BC221E491FA0C7
:1034B000FFF7B4FD042F01DD092F04DBBD221A49FB
:1034C00024A0FFF7ABFD002C0CD0012C0AD0022C5D
:1034D00008D0032C06D0042C04D0BE221249264862
:1034E000FFF79CFD681E7F1F052C14D223007B4430
:1034F0001B79DB189F440204070A0D00002500E039
:103500000125002407E001252C4604E001250224C2
:1035100001E00125032480003843E900084321012C
:1035200008433168C860F8BD087600002873746FDE
:10353000705F62697473203D3D203129207C7C20BE
:103540002873746F705F62697473203D3D20322967
:103550000000000028646174615F62697473203E3A
:103560002034292026262028646174615F626974F2
:1035700073203C203929000078760000F7B5044616
:1035800028490198FFF7A6FE054627490298FFF74C
:10359000A1FE01462846FFF783FE0546401C04D1E4
:1035A0003C22224922A0FFF739FD25482560016809
:1035B0000122120311430160206801268660206801
:1035C000002747604B21C9012046FFF7D9FE0123A0
:1035D000002208212046FFF75FFF12490198FFF7FC
:1035E000A7FE11490298FFF7A3FE0198401C03D0E3
:1035F00002210198FFF72AFE0298401C03D0022105
:103600000298FFF723FE0F48281800D167600E4884
:10361000854205D10D484660626821680261C1603B
:1036200003B0F0BD90750000CC7500000876000076
:1036300028696E74297561727420213D204E430003
:10364000808004400080FFBF0080004028010010FF
:103650000068202342691A42FCD0016070470000D4
:10366000014901200860704700800140024841691B
:103670004908490041617047008001400F480168D6
:1036800000291AD170B5012505600D4801680215A1
:10369000114301600B480C4C0068022161600B492A
:1036A000FCF7DCFD401EE060656009491320FEF771
:1036B00025FA0849E804086070BD70473C01001015
:1036C00080800440200100100080014040420F0033
:1036D0001537000000E100E070B5054672B64260A3
:1036E0000B4A016014680020002C0CD02368CB1A10
:1036F00003D42046A468002CF8D1002803D08560AC
:10370000AC6062B670BD0846156000F07BF8F7E764
:103710004401001010B5FFF7A3FF0D4C20680028EE
:103720000ED000F017F821680A68101A00280ADC89
:10373000886820606268002AF0D048689047EDE70A
:10374000FFF794FF10BD086800F05CF810BD0000A2
:103750004401001070B50F480F4C0168002917D1C3
:10376000012505600D4801680215114301600C48F0
:103770000221006861600B49FCF770FD401EE060AB
:10378000656009491320FEF7B9F90849E8040860A3
:10379000A06870BD3C0100100080014080800440A2
:1037A0002001001040420F001537000000E100E04A
:1037B00010B572B60D4A116881420AD18068106056
:1037C000002803D0006800F01DF80CE0FFF74EFF62
:1037D00009E0002907D08A68824202D180688860A7
:1037E00001E01100F7D162B610BD000044010010E5
:1037F00010B50446FFF742FF0148446010BD0000C9
:10380000440100100349886148690122104348615E
:10381000704700000080014070B50749FDF733FB99
:10382000FDF720FD0446FFF795FF0546FFF792FFE1
:10383000401BA042FAD370BD0024744970B57D21AD
:10384000C90048430446FFF785FF0546FFF782FF9E
:10385000401BA042FAD370BD7FB504460D462946F1
:1038600020463C30039B029A00F068F801220221B6
:1038700020461430FFF706FB7FBD7FB504460D469A
:10388000294620462030039B029A00F057F8012277
:10389000114620461430FFF7F5FA7FBDF3B58BB023
:1038A00004460A94082208A80C99FCF7EDFC099933
:1038B00008980191009048100A9C051908980391F6
:1038C0000290C807C00F002804D1099908980591F3
:1038D000049006E00999089807910690296846180F
:1038E000306807462846B8470DB0F0BDF3B58BB039
:1038F00004460A94082208A80C99FCF7C5FC09990B
:1039000008980191009048100A9C051908980391A5
:103910000290C807C00F002804D1099908980591A2
:10392000049006E0099908980791069029684618BE
:10393000306807462846B8470DB0F0BD0FB5416066
:10394000039B029AC3608260024A82610022026085
:103950000FBD0000ED3800007FB582B005460C4673
:103960000A9E28461430059A0499019200914460F9
:10397000019A0099C260816005498161002101605E
:1039800000BF31462846FEF7CBFA06B070BD0000F6
:103990009D38000038000000EEFFFFFF2600000009
:1039A000FEFFFFFF160000000C0000000C000000EE
:1039B000150000000A0000001700000010000000C1
:1039C000130000001B0000000A0000002600000099
:1039D0000000000031000000F7FFFFFF3B00000087
:1039E000EEFFFFFF43000000E5FFFFFF4A0000007D
:1039F000DEFFFFFF50000000D7FFFFFF5300000075
:103A0000D3FFFFFF53000000D2FFFFFF4F00000075
:103A1000D5FFFFFF47000000DDFFFFFF3B00000078
:103A2000E9FFFFFF2F000000F6FFFFFF230000006B
:103A300001000000190000000C000000110000004F
:103A4000140000000A0000001B0000000400000039
:103A5000200000000000000024000000FCFFFFFF29
:103A600027000000FAFFFFFF28000000FBFFFFFF18
:103A700027000000FFFFFFFF2300000004000000FC
:103A80001D0000000C0000001600000013000000E4
:103A90000F000000180000000B0000001B000000D9
:103AA000080000001C000000070000001A000000D1
:103AB00009000000170000000C00000012000000C8
:103AC000100000000D0000001500000009000000BB
:103AD00019000000070000001C00000006000000A4
:103AE0001D000000070000001D000000090000008C
:103AF0001C0000000C0000001B0000000D00000076
:103B00001A0000000E000000190000000E00000066
:103B1000190000000D0000001A0000000D00000058
:103B20001A0000000D0000001A0000000E00000046
:103B30001900000010000000170000001300000032
:103B40001400000016000000120000001900000020
:103B5000100000001B0000000F0000001C0000000F
:103B60000E0000001D0000000C0000001F000000FF
:103B70000A000000220000000500000027000000ED
:103B8000000000002E000000F8FFFFFF36000000DC
:103B9000EFFFFFFF3C000000E9FFFFFF3F000000D8
:103BA000E6FFFFFF3F000000E7FFFFFF3C000000D3
:103BB000EAFFFFFF39000000EFFFFFFF36000000C3
:103BC000F2FFFFFF34000000F3FFFFFF35000000AD
:103BD000F1FFFFFF38000000ECFFFFFF3C0000009A
:103BE000E7FFFFFF3E000000E4FFFFFF3A00000098
:103BF000E7FFFFFF30000000F2FFFFFF22000000A0
:103C00000100000013000000120000000700000087
:103C100020000000FEFFFFFF2B000000F4FFFFFF6D
:103C200035000000E5FFFFFF40000000CAFFFFFF76
:103C3000550000008FFFFFFF89000000ECFEFFFF32
:103C4000240100008AFDFFFF830200000CFEFFFF3D
:103C50000702000042FFFFFFDA000000B2FFFFFF93
:103C600072000000DDFFFFFF4C000000F1FFFFFFCE
:103C70003B000000FBFFFFFF3200000000000000DF
:103C80002A000000020000002400000006000000DE
:103C90001D0000000B0000001600000010000000D6
:103CA0000F000000140000000C00000014000000D1
:103CB0000D000000100000001400000009000000CA
:103CC0001D0000000000000028000000F5FFFFFFBD
:103CD00034000000E7FFFFFF42000000D7FFFFFFB6
:103CE00051000000C8FFFFFF5E000000BFFFFFFFA4
:103CF00065000000C3FFFFFF60000000D7FFFFFF6B
:103D00004C000000F6FFFFFF2D0000001600000031
:103D10000D00000032000000F3FFFFFF4400000030
:103D2000E1FFFFFF4B000000DBFFFFFF480000004A
:103D3000DFFFFFFF3D000000EBFFFFFF2D00000055
:103D4000FAFFFFFF1B0000000A000000090000004E
:103D50001B000000FCFFFFFF29000000F4FFFFFF35
:103D600031000000F4FFFFFF31000000FBFFFFFF08
:103D70002B00000004000000210000000F000000E4
:103D800017000000170000000F0000001B000000DB
:103D90000B0000001B0000000A00000019000000DA
:103DA0000C00000014000000100000000F000000D4
:103DB000140000000B0000001800000009000000C3
:103DC0001A000000090000001A0000000A000000AC
:103DD0001A0000000B0000001A0000000A0000009A
:103DE0001C0000000500000020000000FFFFFFFF96
:103DF00027000000F5FFFFFF30000000EBFFFFFF92
:103E000039000000E4FFFFFF3F000000E4FFFFFF78
:103E10003F000000ECFFFFFF36000000FAFFFFFF4D
:103E20002800000009000000190000001500000033
:103E30000E0000001A0000000B000000140000003B
:103E400010000000050000001F000000EDFFFFFF54
:103E500037000000CDFFFFFF56000000ADFFFFFF61
:103E6000750000009EFFFFFF85000000A9FFFFFF17
:103E70007B000000CBFFFFFF5C000000F4FFFFFFB2
:103E8000350000001C0000000D0000004300000091
:103E9000E6FFFFFF6D000000BBFFFFFF9E0000007C
:103EA00086FFFFFFDA00000046FFFFFF160100005B
:103EB00008FFFFFF2E010000F1FEFFFF11010000CF
:103EC00010FFFFFFDF00000046FFFFFFB40000000F
:103ED00074FFFFFF9500000095FFFFFF80000000CA
:103EE000ACFFFFFF70000000BBFFFFFF620000009F
:103EF000C7FFFFFF57000000D0FFFFFF4C0000008E
:103F0000D8FFFFFF43000000DEFFFFFF3C00000082
:103F1000E3FFFFFF38000000E7FFFFFF370000006E
:103F2000E9FFFFFF37000000EAFFFFFF3800000055
:103F3000EBFFFFFF39000000ECFFFFFF390000003E
:103F4000EDFFFFFF3B000000EEFFFFFF3D00000024
:103F5000ECFFFFFF41000000E8FFFFFF460000000C
:103F6000E1FFFFFF4D000000D9FFFFFF54000000FC
:103F7000D0FFFFFF59000000CAFFFFFF58000000FC
:103F8000CBFFFFFF50000000D3FFFFFF4300000006
:103F9000E1FFFFFF34000000F1FFFFFF27000000FA
:103FA000000000001C0000000A00000014000000D7
:103FB000120000000F000000170000000C000000BD
:103FC0001A0000000A0000001B00000009000000A9
:103FD0001C000000080000001C0000000800000099
:103FE0001C000000080000001C000000070000008A
:103FF0001D000000070000001E0000000700000078
:104000001E000000080000001E0000000A00000062
:104010001D0000000D0000001A000000110000004B
:1040200015000000160000000F0000001B0000003B
:104030000900000020000000040000002300000030
:104040000100000022000000020000001F0000002C
:1040500006000000180000000D0000001200000023
:10406000140000000B0000001B0000000600000010
:1040700020000000040000002200000005000000F5
:1040800021000000080000001D0000000F000000DB
:1040900016000000170000000D00000020000000C6
:1040A0000400000026000000FFFFFFFF29000000C1
:1040B000FDFFFFFF28000000FFFFFFFF23000000BF
:1040C000020000001E0000000800000017000000B1
:1040D0000F00000011000000140000000D0000009F
:1040E000180000000A0000001A000000090000008B
:1040F0001B0000000B000000190000000E00000073
:10410000160000001200000012000000180000005D
:104110000D0000001D000000090000002300000049
:10412000030000002B000000FDFFFFFF3400000033
:10413000F2FFFFFF40000000E5FFFFFF4F0000001F
:10414000D5FFFFFF5D000000C5FFFFFF6700000017
:10415000BBFFFFFF65000000BCFFFFFF5600000033
:10416000CCFFFFFF3E000000E6FFFFFF2100000044
:1041700002000000060000001E000000F0FFFFFF2C
:1041800035000000DFFFFFFF47000000D4FFFFFF06
:1041900052000000D1FFFFFF55000000D6FFFFFFD7
:1041A00050000000E1FFFFFF45000000F0FFFFFFAF
:1041B0003600000000000000260000000D00000096
:1041C000180000001500000010000000170000009B
:1041D0000E00000013000000130000000B000000A0
:1041E0001C0000000100000026000000F8FFFFFF97
:1041F00030000000F0FFFFFF36000000EDFFFFFF82
:1042000039000000EFFFFFFF37000000F5FFFFFF60
:1042100030000000FFFFFFFF250000000900000044
:104220001A0000001100000012000000150000003C
:104230000F00000014000000110000000F0000003B
:1042400017000000090000001E000000030000002D
:104250002300000001000000250000000300000012
:10426000220000000B0000001A00000017000000F0
:104270000C00000027000000FDFFFFFF34000000DD
:10428000EFFFFFFF39000000EAFFFFFF32000000F0
:10429000F3FFFFFF22000000040000000D000000FB
:1042A0001B000000F8FFFFFF32000000E4FFFFFFEB
:1042B00046000000CFFFFFFF59000000B7FFFFFFDF
:1042C0006E00000093FFFFFF8D00000055FFFFFF11
:1042D000C5000000E2FEFFFF3301000052FEFFFFB9
:1042E000C00100006CFEFFFFAA0100000AFFFFFFF3
:1042F000120100007AFFFFFFA90000007302000016
:10430000B7FFFFFF70000000DDFFFFFF4E00000061
:10431000F7FFFFFF350000000B0000001F0000004A
:104320001E0000000A0000002D000000FAFFFFFF41
:1043300036000000EFFFFFFF35000000EEFFFFFF3B
:104340002A000000F9FFFFFF19000000090000002B
:104350000A00000019000000010000002300000016
:104360000100000025000000060000002100000000
:104370000F00000018000000190000000D000000F0
:10438000220000000400000027000000FFFFFFFFE4
:1043900027000000FEFFFFFF2000000003000000D8
:1043A000150000000E000000090000001B000000C6
:1043B0000000000025000000FDFFFFFF29000000B5
:1043C000FFFFFFFF270000000600000021000000A3
:1043D0000F00000017000000190000000D00000091
:1043E0002100000005000000240000000100000082
:1043F00022000000030000001A0000000A00000074
:104400001000000014000000050000001E00000065
:104410000000000025000000000000002500000052
:10442000060000001F000000110000001500000041
:104430001E0000000900000029000000FEFFFFFF31
:1044400030000000F7FFFFFF30000000F6FFFFFF25
:1044500029000000FDFFFFFF1A0000000A00000015
:10446000060000001E000000F2FFFFFF3200000007
:10447000E4FFFFFF40000000E1FFFFFF44000000F9
:10448000EAFFFFFF3D000000FAFFFFFF2D000000E4
:104490000C0000001B0000001F00000008000000CE
:1044A0002E000000F9FFFFFF38000000EEFFFFFFC5
:1044B0003A000000EBFFFFFF32000000F2FFFFFFB9
:1044C00022000000000000000E00000014000000A8
:1044D0000000000023000000FCFFFFFF2900000097
:1044E0000300000022000000150000001200000080
:1044F0002D000000FCFFFFFF48000000E1FFFFFF70
:1045000066000000C1FFFFFF8A0000009BFFFFFF65
:10451000B60000006CFFFFFFE800000036FFFFFF61
:104520001301000009FFFFFF20010000FDFEFFFF57
:104530000801000017FFFFFFDF00000042FFFFFF40
:10454000B80000006DFFFFFF980000008FFFFFFF25
:104550007D000000ACFFFFFF64000000C5FFFFFF0F
:104560004D000000DBFFFFFF37000000F0FFFFFF02
:1045700023000000030000001200000012000000F1
:10458000070000001C000000040000001F000000E5
:10459000080000001C0000000F00000016000000D2
:1045A0001500000010000000190000000D000000C0
:1045B0001B0000000C0000001A0000000C000000AE
:1045C0001A0000000B0000001D00000008000000A1
:1045D00023000000010000002E000000F7FFFFFF95
:1045E0003B000000EAFFFFFF48000000DEFFFFFF86
:1045F0004F000000D9FFFFFF4E000000DBFFFFFF70
:1046000046000000E5FFFFFF3A000000F3FFFFFF58
:104610002A00000003000000180000001500000040
:104620000500000027000000F2FFFFFF3900000036
:10463000E1FFFFFF48000000D5FFFFFF5200000030
:10464000D4FFFFFF51000000E0FFFFFF4600000025
:10465000F3FFFFFF32000000C70000000800000069
:104660001D000000190000000C00000022000000E6
:104670000300000023000000030000001C000000F5
:104680000A000000110000001500000003000000F7
:1046900023000000F8FFFFFF2E000000F1FFFFFFE6
:1046A00035000000F1FFFFFF34000000FAFFFFFFBC
:1046B0002B000000080000001C0000001900000092
:1046C0000C00000027000000FFFFFFFF300000008B
:1046D000F6FFFFFF32000000F4FFFFFF2D00000097
:1046E000F9FFFFFF24000000010000001800000097
:1046F0000D0000000C000000180000000300000086
:104700002100000000000000240000000200000062
:10471000210000000A000000190000001500000040
:104720000F0000001F000000050000002600000030
:10473000FFFFFFFF29000000FDFFFFFF2800000032
:10474000FEFFFFFF23000000020000001D0000002C
:1047500008000000180000000D0000001500000017
:104760000F000000150000000F00000019000000FD
:104770000A000000200000000300000028000000E4
:10478000FCFFFFFF2F000000F6FFFFFF32000000DC
:10479000F3FFFFFF31000000F4FFFFFF2D000000DA
:1047A000F9FFFFFF27000000FFFFFFFF22000000CE
:1047B000030000001D000000070000001C000000B6
:1047C000080000001E00000005000000240000009A
:1047D000000000002B000000F9FFFFFF3100000087
:1047E000F3FFFFFF35000000EFFFFFFF3500000083
:1047F000F0FFFFFF31000000F5FFFFFF2A0000007F
:10480000FCFFFFFF21000000040000001900000071
:104810000C00000012000000130000000F00000058
:10482000150000000F00000014000000140000003C
:104830000E0000001D000000050000002700000021
:10484000FDFFFFFF2F000000F5FFFFFF330000001A
:10485000F1FFFFFF32000000F3FFFFFF2C0000001C
:10486000F9FFFFFF23000000020000001800000015
:104870000C0000000D000000170000000400000004
:10488000200000000000000025000000FFFFFFFFE7
:104890002500000003000000200000000D000000C3
:1048A00016000000180000000B00000023000000AC
:1048B000010000002B000000FAFFFFFF2F000000A6
:1048C000F7FFFFFF2E000000F8FFFFFF2A000000A7
:1048D000FCFFFFFF23000000020000001A000000A0
:1048E0000A00000012000000120000000B0000008F
:1048F00018000000080000001B0000000700000076
:104900001B0000000A000000190000000E0000005B
:10491000150000001200000012000000130000004B
:104920001100000012000000120000000E00000044
:1049300017000000070000001D000000FFFFFFFF40
:1049400025000000F7FFFFFF2D000000F2FFFFFF32
:1049500032000000F0FFFFFF34000000F3FFFFFF14
:1049600032000000F9FFFFFF2C00000000000000F3
:1049700025000000070000001E0000000C000000E1
:104980001A0000000E000000180000000D000000DA
:1049900019000000090000001C00000004000000D5
:1049A000200000000000000025000000FCFFFFFFC9
:1049B00029000000FBFFFFFF2A000000FCFFFFFFB3
:1049C0002800000000000000250000000400000096
:1049D00020000000080000001C0000000B00000088
:1049E0001A0000000B000000190000000900000080
:1049F0001B000000050000001F0000000000000078
:104A000024000000FCFFFFFF28000000FAFFFFFF6A
:104A10002A000000FCFFFFFF29000000000000004A
:104A200025000000060000001F0000000D0000002F
:104A30001700000015000000100000001B0000001F
:104A40000900000020000000050000002100000017
:104A5000030000001F000000050000001A00000015
:104A600009000000140000000F0000000E0000000C
:104A7000150000000B000000190000000B000000F2
:104A80001A0000000F0000001600000018000000CF
:104A90000E000000240000000200000032000000B0
:104AA000F4FFFFFF40000000E5FFFFFF4C000000A7
:104AB000D9FFFFFF51000000D3FFFFFF4D000000B2
:104AC000D8FFFFFF3E000000E7FFFFFF28000000C7
:104AD000FEFFFFFF0C00000018000000EFFFFFFFCB
:104AE00036000000D0FFFFFF54000000B4FFFFFFBE
:104AF0006F000000A0FFFFFF830000009AFFFFFF90
:104B000089000000A4FFFFFF80000000BBFFFFFF43
:104B10006B000000D7FFFFFF4F000000F4FFFFFF16
:104B2000320000000F000000170000002700000006
:104B30000000000038000000EEFFFFFF4000000012
:104B4000E5FFFFFF3D000000E8FFFFFF320000002F
:104B5000F4FFFFFF20000000040000000E00000032
:104B6000170000000000000026000000F7FFFFFF14
:104B70002E000000F7FFFFFF2F000000FEFFFFFFE9
:104B8000270000000A0000001B00000019000000C0
:104B90000C00000026000000FFFFFFFF2F000000B8
:104BA000F7FFFFFF30000000F6FFFFFF2B000000C3
:104BB000FBFFFFFF1F0000000500000011000000C8
:104BC000130000000300000021000000F8FFFFFFB9
:104BD0002C000000F2FFFFFF31000000F4FFFFFF98
:104BE0002F000000FDFFFFFF26000000090000006D
:104BF00019000000160000000D0000001E0000005B
:104C00000500000021000000030000001D0000005E
:104C10000800000013000000120000000700000060
:104C20001E000000FDFFFFFF2A000000F3FFFFFF52
:104C300033000000EFFFFFFF37000000F1FFFFFF30
:104C400034000000FAFFFFFF2C0000000500000008
:104C50001F00000012000000120000001C000000F5
:104C60000800000020000000040000001D000000FB
:104C700007000000160000000F0000000B000000FD
:104C8000190000000200000023000000FEFFFFFFEB
:104C900028000000FFFFFFFF2600000008000000C2
:104CA0001C000000170000000D000000290000009B
:104CB000FBFFFFFF38000000ECFFFFFF3F0000009C
:104CC000E6FFFFFF3A000000ECFFFFFF29000000B5
:104CD000FEFFFFFF0E00000018000000EFFFFFFFC7
:104CE00039000000CDFFFFFF5B000000AEFFFFFFBB
:104CF0007A0000009BFFFFFF8E00000097FFFFFF80
:104D000093000000A0FFFFFF8B000000AFFFFFFF3C
:104D10007D000000BCFFFFFF70000000C3FFFFFF2D
:104D200068000000C4FFFFFF65000000C0FFFFFF38
:104D300067000000BCFFFFFF69000000C0FFFFFF2D
:104D400063000000D3FFFFFF51000000F3FFFFFFEF
:104D500032000000170000000E0000003A000000C2
:104D6000EEFFFFFF57000000D2FFFFFF6E000000C4
:104D7000BCFFFFFF81000000A9FFFFFF91000000C2
:104D800098FFFFFFA000000088FFFFFFAF000000BA
:104D900078FFFFFFBE00000066FFFFFFCF000000AE
:104DA00053FFFFFFDF00000042FFFFFFE8000000AD
:104DB00038FFFFFFE10000003FFFFFFFC6000000DB
:104DC0005CFFFFFF9D00000088FFFFFF71000000F7
:104DD000B7FFFFFF47000000E3FFFFFF23000000D5
:104DE000080000000100000029000000E1FFFFFFB3
:104DF00048000000BCFFFFFF690000008DFFFFFFBF
:104E0000950000004CFFFFFFD100000008FFFFFFEE
:104E100013010000F7FEFFFF2501000034FFFFFF34
:104E2000EB0000008BFFFFFF98000000D4FFFFFFA6
:104E3000520000000F0000001600000049000000B2
:104E4000DBFFFFFF8D00000095FFFFFFDD0000008E
:104E500041FFFFFF1F010000FEFEFFFF24010000D5
:104E6000FBFEFFFFF80000002AFFFFFFCE0000005E
:104E700057FFFFFFB90000006FFFFFFFB200000007
:104E800077FFFFFFAF0000007AFFFFFFA6000000E2
:104E900083FFFFFF8D0000009CFFFFFF6500000007
:104EA000C3FFFFFF32000000F5FFFFFFF4FFFFFF2D
:104EB00030000000ACFFFFFF7500000066FFFFFF41
:104EC000B900000044FFFFFFDB00000059FFFFFFB7
:104ED000C90000008AFFFFFF9B000000B7FFFFFF33
:104EE00071000000D9FFFFFF50000000F2FFFFFF3C
:104EF0003700000008000000070000001F0000004D
:104F00001E0000000500000036000000ECFFFFFF5F
:104F10004C000000D5FFFFFF57000000C9FFFFFF56
:104F200054000000CDFFFFFF48000000DCFFFFFF42
:104F300039000000EDFFFFFF2D000000FAFFFFFF2A
:104F40002500000002000000200000000700000013
:104F50001D00000009000000180000000C00000007
:104F600013000000100000000B00000016000000FD
:104F7000020000001F000000FAFFFFFF28000000F1
:104F8000F4FFFFFF2F000000F2FFFFFF33000000DF
:104F9000F2FFFFFF35000000F2FFFFFF36000000C8
:104FA000F1FFFFFF37000000EEFFFFFF3A000000B7
:104FB000EAFFFFFF3C000000E9FFFFFF3C000000AC
:104FC000ECFFFFFF37000000FAFFFFFF28000000A2
:104FD000120000000E00000032000000F0FFFFFF92
:104FE00050000000D4FFFFFF64000000C2FFFFFF7D
:104FF0006E000000BCFFFFFF70000000BEFFFFFF5F
:1050000070000000C0FFFFFF73000000BFFFFFFF44
:105010007A000000B8FFFFFF87000000A9FFFFFF34
:105020009C00000091FFFFFFB900000070FFFFFF30
:10503000D80000004EFFFFFFE90000003CFFFFFF2B
:10504000E000000045FFFFFFC100000066FFFFFF1A
:105050009E0000008BFFFFFF7F000000ABFFFFFF03
:1050600069000000C2FFFFFF59000000D1FFFFFFF1
:105070004E000000DBFFFFFF47000000E2FFFFFFE4
:1050800040000000E8FFFFFF38000000EFFFFFFFD7
:105090002F000000F8FFFFFF2200000003000000C7
:1050A0001100000013000000FDFFFFFF26000000BC
:1050B000E3FFFFFF3E000000C8FFFFFF58000000B5
:1050C000AFFFFFFF70000000A2FFFFFF7C000000A9
:1050D000A9FFFFFF76000000C3FFFFFF5E00000096
:1050E000E4FFFFFF3E000000040000001F0000007E
:1050F000200000000400000035000000F0FFFFFF6A
:1051000042000000E4FFFFFF45000000E2FFFFFF58
:105110003F000000E8FFFFFF30000000F6FFFFFF48
:105120001D00000009000000060000001E00000035
:10513000F2FFFFFF33000000E2FFFFFF430000002B
:10514000DAFFFFFF4B000000DBFFFFFF4A0000001B
:10515000E3FFFFFF42000000F0FFFFFF360000000A
:10516000FCFFFFFF2A0000000500000020000000F7
:105170000A0000001B0000000A0000001A000000E6
:10518000060000001E0000000000000025000000D6
:10519000F8FFFFFF2D000000F1FFFFFF34000000CB
:1051A000EDFFFFFF38000000EDFFFFFF39000000BA
:1051B000F0FFFFFF36000000F5FFFFFF31000000A9
:1051C000FBFFFFFF2B000000010000002400000097
:1051D000060000001E0000000B0000001900000087
:1051E0000D000000160000000E0000001600000078
:1051F0000D000000170000000B0000001A00000066
:10520000090000001D000000070000001F00000052
:105210000600000021000000040000002300000040
:105220000300000024000000030000002400000030
:105230000300000024000000040000002300000020
:1052400006000000200000000A0000001D00000011
:105250000F000000180000001500000013000000FF
:105260001B0000000D0000002100000008000000ED
:1052700027000000020000002C000000FDFFFFFFDF
:1052800030000000F8FFFFFF33000000F4FFFFFFD5
:1052900034000000F2FFFFFF32000000F3FFFFFFC9
:1052A0002D000000F8FFFFFF2400000000000000B8
:1052B0001A0000000A0000001000000014000000A6
:1052C000080000001D000000030000002300000093
:1052D0000000000026000000000000002700000081
:1052E0000100000025000000040000002200000072
:1052F000070000001E0000000C0000001A00000063
:105300001000000015000000150000001000000053
:105310001A0000000B0000001E0000000700000043
:105320002100000004000000240000000100000033
:10533000270000000000000028000000FFFFFFFF22
:1053400028000000FEFFFFFF27000000FFFFFFFF17
:105350002500000000000000210000000400000003
:105360001B00000009000000160000000E000000F5
:1053700012000000120000001000000015000000E4
:1053800010000000150000001300000012000000D3
:10539000180000000D0000001E00000008000000C2
:1053A000230000000200000028000000FEFFFFFFB5
:1053B0002A000000FCFFFFFF28000000FDFFFFFFA8
:1053C00024000000010000001C0000000800000094
:1053D00014000000110000000D0000001800000083
:1053E000080000001E000000050000002100000071
:1053F0000600000020000000090000001D00000061
:105400000D00000018000000120000001300000052
:10541000170000000E0000001A0000000A00000043
:105420001C000000090000001B0000000A00000032
:10543000180000000D000000140000001000000023
:1054400011000000140000000E0000001800000011
:105450000C0000001A0000000A0000001C00000000
:10546000080000001D0000000500000020000000F2
:105470000100000023000000FDFFFFFF28000000E6
:10548000F6FFFFFF2E000000F0FFFFFF35000000D9
:10549000EBFFFFFF3A000000E9FFFFFF3D000000C7
:1054A000EAFFFFFF3D000000EDFFFFFF3B000000B3
:1054B000F2FFFFFF36000000F9FFFFFF30000000A1
:1054C000000000002A00000005000000230000008A
:1054D0000C0000001D00000012000000160000007B
:1054E00018000000100000001E0000000A0000006C
:1054F00024000000030000002A000000FEFFFFFF60
:1055000031000000F7FFFFFF39000000EEFFFFFF52
:1055100043000000E4FFFFFF4E000000D9FFFFFF43
:1055200059000000CDFFFFFF63000000C4FFFFFF34
:1055300067000000BFFFFFFF65000000C3FFFFFF23
:105540005C000000CDFFFFFF4E000000DDFFFFFF0D
:105550003E000000EEFFFFFF2F000000FEFFFFFFF8
:10556000220000000B0000001700000016000000E1
:105570000F0000001E0000000A00000023000000D1
:1055800007000000250000000600000025000000C4
:1055900007000000230000000800000021000000B8
:1055A000090000001F0000000A0000001E000000AB
:1055B0000A0000001E0000000A0000001F0000009A
:1055C0000800000021000000060000002300000089
:1055D0000300000026000000000000002900000079
:1055E000FBFFFFFF2D000000F6FFFFFF3200000071
:1055F000F0FFFFFF36000000EBFFFFFF3B00000065
:10560000E7FFFFFF3F000000E5FFFFFF4000000055
:10561000E7FFFFFF3E000000ECFFFFFF3A00000045
:10562000F3FFFFFF33000000FBFFFFFF2B00000034
:1056300003000000230000000B0000001B0000001E
:105640001300000013000000190000000C0000000F
:105650001F00000006000000220000000200000001
:1056600024000000000000002400000000000000F2
:1056700022000000020000002000000005000000E1
:105680001D000000080000001B0000000A000000D0
:10569000190000000D000000170000000E000000BF
:1056A000160000000F0000001500000010000000B0
:1056B00014000000110000001200000012000000A1
:1056C00010000000140000000F0000001500000092
:1056D0000F00000016000000100000001500000080
:1056E0001100000014000000130000001200000070
:1056F0001600000010000000170000000E0000005F
:10570000170000000E00000015000000100000004F
:105710001000000014000000090000001B00000041
:105720000000000024000000F9FFFFFF2D00000032
:10573000F2FFFFFF34000000EEFFFFFF3800000023
:10574000EEFFFFFF39000000F2FFFFFF3500000011
:10575000F9FFFFFF2F0000000100000026000000FD
:105760000B0000001C0000001500000011000000EC
:105770001F0000000700000028000000FEFFFFFFE0
:105780002E000000F8FFFFFF31000000F5FFFFFFD3
:105790002F000000F7FFFFFF2A000000FCFFFFFFC3
:1057A00022000000030000001B0000000B000000AE
:1057B00014000000120000000E000000170000009E
:1057C0000B0000001A0000000A0000001B0000008F
:1057D0000B0000001A0000000E0000001600000080
:1057E00013000000110000001A0000000A00000071
:1057F000200000000500000025000000000000005F
:1058000028000000FEFFFFFF2A000000FDFFFFFF51
:1058100029000000FEFFFFFF25000000000000003F
:105820001F00000006000000160000000F0000002E
:105830000A0000001A000000FEFFFFFF2700000022
:10584000F1FFFFFF33000000E8FFFFFF3D00000015
:10585000E4FFFFFF41000000E6FFFFFF4000000003
:10586000EDFFFFFF3B000000F6FFFFFF33000000ED
:1058700000000000290000000900000020000000D6
:1058800012000000160000001A0000000E000000C8
:1058900021000000060000002600000000000000BB
:1058A00028000000FEFFFFFF28000000FDFFFFFFB3
:1058B00025000000FFFFFFFF2100000003000000A3
:1058C0001B00000008000000150000000E00000092
:1058D00010000000130000000C0000001700000082
:1058E000080000001B000000040000001E00000073
:1058F0000100000003000000000000002400000080
:10590000FDFFFFFF27000000FBFFFFFF2A00000054
:10591000F8FFFFFF2D000000F4FFFFFF3200000042
:10592000EEFFFFFF38000000E7FFFFFF3F00000031
:10593000DDFFFFFF48000000D3FFFFFF5100000024
:10594000CDFFFFFF57000000CEFFFFFF5600000015
:10595000D9FFFFFF4B000000F0FFFFFF3500000004
:105960000C000000180000002C000000FAFFFFFFF0
:105970004A000000DCFFFFFF66000000C0FFFFFFE1
:105980007E000000A7FFFFFF9400000090FFFFFFD4
:10599000AB00000078FFFFFFC30000005EFFFFFFC9
:1059A000DB00000045FFFFFFEB00000035FFFFFFBD
:1059B000E900000038FFFFFFD50000004EFFFFFFA9
:1059C000B60000006FFFFFFF980000008FFFFFFF91
:1059D0007F000000A9FFFFFF6B000000BDFFFFFF7D
:1059E0005C000000CCFFFFFF51000000D6FFFFFF6E
:1059F00048000000DDFFFFFF42000000E2FFFFFF64
:105A00003D000000E6FFFFFF3A000000E9FFFFFF56
:105A100038000000ECFFFFFF37000000EEFFFFFF43
:105A200036000000F0FFFFFF36000000F1FFFFFF2F
:105A300034000000F3FFFFFF32000000F6FFFFFF1D
:105A40002F000000F9FFFFFF2A000000FEFFFFFF0C
:105A500024000000030000001D00000009000000F9
:105A6000180000000F0000001500000012000000E8
:105A700016000000120000001A0000000E000000D6
:105A800022000000070000002B000000FEFFFFFFC7
:105A900035000000F3FFFFFF3F000000E8FFFFFFBD
:105AA00045000000E0FFFFFF47000000DEFFFFFFB2
:105AB00041000000E3FFFFFF35000000F0FFFFFFA3
:105AC000240000000000000012000000120000008E
:105AD0000500000020000000FEFFFFFF290000007D
