:020000040000FA
:1000000000100010010300001303000009030000AA
:1000100000000000000000000000000000000000E0
:100020000000000000000000000000000B030000C2
:1000300000000000000000000D0300000F0300009E
:100040001303000013030000130300001303000058
:100050001303000013030000130300001303000048
:100060001303000013030000130300001303000038
:100070001303000013030000130300001303000028
:100080001303000013030000130300001303000018
:10009000130300001303000011030000110300000C
:1000A00013030000130300001303000011030000FA
:1000B00013030000130300001303000013030000E8
:1000C000FFFFFFFFFFFFFFFFFFFFFFFFFFFFFFFF40
:1000D000FFFFFFFFFFFFFFFFFFFFFFFFFFFFFFFF30
:1000E000FFFFFFFFFFFFFFFFFFFFFFFFFFFFFFFF20
:1000F000FFFFFFFFFFFFFFFFFFFFFFFFFFFFFFFF10
:10010000FFFFFFFFFFFFFFFFFFFFFFFFFFFFFFFFFF
:10011000FFFFFFFFFFFFFFFFFFFFFFFFFFFFFFFFEF
:10012000FFFFFFFFFFFFFFFFFFFFFFFFFFFFFFFFDF
:10013000FFFFFFFFFFFFFFFFFFFFFFFFFFFFFFFFCF
:10014000FFFFFFFFFFFFFFFFFFFFFFFFFFFFFFFFBF
:10015000FFFFFFFFFFFFFFFFFFFFFFFFFFFFFFFFAF
:10016000FFFFFFFFFFFFFFFFFFFFFFFFFFFFFFFF9F
:10017000FFFFFFFFFFFFFFFFFFFFFFFFFFFFFFFF8F
:10018000FFFFFFFFFFFFFFFFFFFFFFFFFFFFFFFF7F
:10019000FFFFFFFFFFFFFFFFFFFFFFFFFFFFFFFF6F
:1001A000FFFFFFFFFFFFFFFFFFFFFFFFFFFFFFFF5F
:1001B000FFFFFFFFFFFFFFFFFFFFFFFFFFFFFFFF4F
:1001C000FFFFFFFFFFFFFFFFFFFFFFFFFFFFFFFF3F
:1001D000FFFFFFFFFFFFFFFFFFFFFFFFFFFFFFFF2F
:1001E000FFFFFFFFFFFFFFFFFFFFFFFFFFFFFFFF1F
:1001F000FFFFFFFFFFFFFFFFFFFFFFFFFFFFFFFF0F
:100200000448854600F0B2FAC046C04600480047A0
:10021000B3070000001000102C4800688C21084330
:100220002A4908602A48C06B00202949C8634BE06E
:100230002748C06B00202649C863264826490CC8B9
:1002400003C900F063F9044600F0B0F9064600F077
:1002500099FB1F48C06B042108431D49C8631D4911
:1002600003C900F0A3F9044600F08CFB1B4A1C4BA9
:10027000184903C900F086F903D80120194908601C
:1002800009E000221346134903C900F067F902D8B8
:1002900000201449086013480068002808D1124A59
:1002A000124B0C4903C900F08DF80A4A03C20BE057
:1002B0000C480068012807D10B4A0C4B054903C9BB
:1002C00000F024F9034A03C2B2E7000000800050A6
:1002D000C03F0050C8000010C0000010FCA9F1D2BF
:1002E0004D62503FD00000108DEDB5A0F7C6B03E76
:1002F000704770477047000000000000FFFFFFFFDD
:100300000448804704480047FEE7FEE7FEE7FEE7B3
:10031000FEE7FEE70D0800000102000030B50B46C5
:10032000014600202022012409E00D46D5409D42CF
:1003300005D31D469540491B254695404019154655
:10034000521E002DF1DC30BD024670B54A40D30F7D
:10035000DB0740002DD04A002AD0010E140E000207
:1003600012020919400A520A8418E501044654434E
:10037000000A120A2E045043A4194219200CC54346
:10038000AA18120C0125AD03521C521912047F3910
:10039000240400D0521C104301D44000491EC2B2B4
:1003A0000C06C0092018401C4008802A02D003E037
:1003B000002070BD40084000002900DA00201843EA
:1003C00070BD0000F0B507460846584087B0C00F22
:1003D000049048000E46590040084908BC1A88415C
:1003E00005D2384631461E4617460B46024658008F
:1003F000400810434CD0300D039040055900400D8B
:10040000490D0590401A0290402872DA1803012124
:10041000000B09050843019004980092002805D0BC
:100420000199524200208841009201900298402197
:100430000A1A0199009800F0D5F805460C466B465B
:1004400007CB00F0DFF8C0197141039A0E0D0023AD
:10045000D71756401A467A40164344D0049A002AC9
:100460002DD0029A012A039A15DC1205C01A914177
:1004700001263605001C7141D20F059ED20700935C
:10048000019202962A46234600F01DF907B0F0BDFE
:1004900038463146FAE71605224A0F46B218C01A06
:1004A000B74101210905001C4F4100187F41114649
:1004B00018187941E20F10436D19644113E0E20707
:1004C0006D0815436408C2071443039A01261205F8
:1004D000C01A91413605001C7141CE0740083043D7
:1004E0004908C01851412A46234600F0DFF8CDE7FD
:1004F000FFE7049801224000C117121A00238B4124
:1005000004983146C417381AA141EEE730B40124EB
:10051000E407634030BC55E730B40124E407614090
:1005200030BC4FE70000E0FFC20F41004002012352
:10053000400ADB05D207090EC0187F2901DA002026
:100540007047962903DC9623591AC84001E0963972
:100550008840002AF4D040427047000010B50029BE
:1005600004DB0124E40740428C412146002B04DBDC
:100570001C460123DB075242A3418B4200D1824239
:1005800010BD000010B5002904DB0124E40740423F
:100590008C412146002B04DB1C460123DB07524221
:1005A000A341994200D1904210BD0000CB0FDB0760
:1005B000490010B5490802460A4307D00A0D07242E
:1005C0000903E401090B121B002A01DC002010BD05
:1005D000C900440F0C43C100E018D205801800F098
:1005E00024F810BD10B5202A04DB0146203A9140C2
:1005F000002010BD914020239C1A0346E34019437C
:10060000904010BD10B5202A06DBCB170846203AD3
:100610001041C1170B4306E00B461341D040202484
:10062000A21A91400843194610BD002904DA401C63
:10063000490001D140084000704770B40024050C07
:1006400005D11024000402D1002921D01124050E67
:1006500001D100020834050F01D10001241D850FCE
:1006600001D18000A41C002801DB4000641C00298B
:1006700008D020252E1B0D46F540A14000D00121B9
:100680002943084301061B1B000ADB1D02D500207D
:1006900070BC7047DB05181880180029F8DA401C78
:1006A0004900F5D170BC40084000704710B5002BE0
:1006B00008DA0024401C614192185B411A4301D1C1
:1006C0004008400010BDF0B51FB482B005460C00D4
:1006D00003D0084600F0CAF802E000F0C7F8203066
:1006E0000246009021462846FFF77CFF049B059AAE
:1006F00004460F4618431143084314D018461043CC
:100700001BD0009840210A1A1846059900F040F8BD
:1007100005460E46009A05990498FFF763FF0843C3
:1007200005D0012004E02046394607B0F0BD002086
:10073000C11705430E432C43374300990E986305B8
:10074000401A7905E40A00220C43FD0A0A3002D55A
:1007500000200146E9E70105101969410C9C0D9D37
:1007600000196941FFF7A2FFDFE70000064C0125F1
:10077000064E05E0E36807CC2B430C3C9847103449
:10078000B442F7D3FFF740FDA8090000B809000004
:1007900010B5202A04DB0846203AD040002110BDC5
:1007A0000B46D340D0402024A21A9140084319465A
:1007B00010BD10B5FFF79EFDFFF79BFDFFF72CFD69
:1007C00010BD0000F0B484460E48026893070E4A3C
:1007D0009B0F1768012B0ED000252B463A469C0034
:1007E0002E59165166197668A41866609B1C302B2A
:1007F000F5DB0122026060468000C0190164F0BC94
:100800007047000000800440D400001070B413480A
:100810000024046001234360446043604168C907C9
:10082000FCD00F4923228A600E4A956B8026B5437F
:100830009563CA68D207FCD0032101634363446314
:100840004363416BC907FCD08363074801680122F9
:1008500012041143016070BC7047000040800440E6
:100860000080044000820440808004402021020C6B
:1008700001D010211046020A01D0104608390209A1
:1008800001D01046091F820801D01046891E420877
:1008900001D0881E7047081A704702E008C8121F6E
:1008A00008C1002AFAD17047002001E001C1121FDF
:1008B000002AFBD170470000014901200860704701
:1008C0000080014002484169490849004161704780
:1008D0000080014010B5FFF7EFFF0D4C20680028A5
:1008E0000ED000F017F821680A68101A00280ADCF8
:1008F000886820606268002AF0D048689047EDE779
:10090000FFF7E0FF10BD086800F032F810BD0000EE
:10091000E000001070B50F480F4C0168002917D196
:10092000012505600D4801680215114301600C485E
:100930000221006861600B49FFF7F0FC401EE06097
:10094000656009491320FFF73DFF0849E804086086
:10095000A06870BDDC000010008001408080044071
:10096000D800001040420F00D508000000E100E070
:1009700003498861486901221043486170470000BB
:100980000080014070B50749FFF7DEFCFFF7CCFDA2
:100990000446FFF7BFFF0546FFF7BCFF401BA04220
:1009A000FAD370BD00247449B8090000C0000010DB
:1009B000280000009A080000FCA9F1D24D62503FC7
:1009C0000000000000000000000000000000001017
:1009D000006CDC02000000000000000000000000CD
:0400000500000201F4
:00000001FF
