:020000040000FA
:10000000001000102102000033020000290200004D
:1000100000000000000000000000000000000000E0
:100020000000000000000000000000002B020000A3
:1000300000000000000000002D0200002F02000060
:1000400033020000330200003302000033020000DC
:1000500033020000330200003302000033020000CC
:1000600033020000330200003302000033020000BC
:1000700033020000330200003302000033020000AC
:10008000330200003302000033020000330200009C
:100090003302000033020000310200003102000090
:1000A000330200003302000033020000310200007E
:1000B000330200003302000033020000330200006C
:1000C000FFFFFFFFFFFFFFFFFFFFFFFFFFFFFFFF40
:1000D000FFFFFFFFFFFFFFFFFFFFFFFFFFFFFFFF30
:1000E000FFFFFFFFFFFFFFFFFFFFFFFFFFFFFFFF20
:1000F000FFFFFFFFFFFFFFFFFFFFFFFFFFFFFFFF10
:10010000FFFFFFFFFFFFFFFFFFFFFFFFFFFFFFFFFF
:10011000FFFFFFFFFFFFFFFFFFFFFFFFFFFFFFFFEF
:10012000FFFFFFFFFFFFFFFFFFFFFFFFFFFFFFFFDF
:10013000FFFFFFFFFFFFFFFFFFFFFFFFFFFFFFFFCF
:10014000FFFFFFFFFFFFFFFFFFFFFFFFFFFFFFFFBF
:10015000FFFFFFFFFFFFFFFFFFFFFFFFFFFFFFFFAF
:10016000FFFFFFFFFFFFFFFFFFFFFFFFFFFFFFFF9F
:10017000FFFFFFFFFFFFFFFFFFFFFFFFFFFFFFFF8F
:10018000FFFFFFFFFFFFFFFFFFFFFFFFFFFFFFFF7F
:10019000FFFFFFFFFFFFFFFFFFFFFFFFFFFFFFFF6F
:1001A000FFFFFFFFFFFFFFFFFFFFFFFFFFFFFFFF5F
:1001B000FFFFFFFFFFFFFFFFFFFFFFFFFFFFFFFF4F
:1001C000FFFFFFFFFFFFFFFFFFFFFFFFFFFFFFFF3F
:1001D000FFFFFFFFFFFFFFFFFFFFFFFFFFFFFFFF2F
:1001E000FFFFFFFFFFFFFFFFFFFFFFFFFFFFFFFF1F
:1001F000FFFFFFFFFFFFFFFFFFFFFFFFFFFFFFFF0F
:100200000648854601F05AF900F018F800F000FDA4
:1002100000480047B118000001F036F80010001047
:100220000448804704480047FEE7FEE7FEE7FEE794
:10023000FEE7FEE71519000001020000042104A0FA
:1002400002F074FC0349086003490860FFF7DEFF11
:100250003A7474001C0400100804001038B50546F8
:10026000684605700C46086800230122694602F0C2
:10027000E3FC002802D00020C04338BDE068401CE9
:10028000E060284638BD30B50B46014600202022EC
:10029000012409E00D46D5409D4205D31D469540F9
:1002A000491B2546954040191546521E002DF1DC8C
:1002B00030BD70B500242546002801DA01244042F3
:1002C000002901DA01254942FFF7DDFFAC4200D0E9
:1002D0004042002C00D0494270BD421C0178401CB5
:1002E0000029FBD1801A70470122D207002800DBC9
:1002F000101A002900DB511A81427047FFFFFFFFEF
:10030000F8B5DC4C204602F003FD8011DA490860A4
:10031000DA490968D84A1268881A00F079FED84A82
:1003200003C2D748D7490CC803C900F085FDD64A97
:1003300003C2D348D5490CC803C900F06FFD064677
:10034000D3480CC8304600F077FD0446D14AD24B62
:1003500000F0DAFDD14A03C2C948D1490CC803C92B
:1003600000F06AFD0446CB4ACB4B00F065FD064623
:10037000CC480CC8304600F0ADFCCA4A03C200228B
:10038000C94BC84903C900F099FE04D80021C648EA
:10039000C44A116050600022C44BC24903C900F036
:1003A00079FE04D80021C148BE4A11605060BB48A4
:1003B000B5490CC803C900F031FD0446B9480CC862
:1003C000204600F087FCBA4A03C20022B94BB84964
:1003D00003C900F073FE03D20020B649B44A03C239
:1003E0000022B54BB24903C900F054FE04D20021EB
:1003F000B148AF4A11605060B04AB14BAC4903C933
:1004000000F05CFE04D20121AE4801F08DFC30E02A
:10041000AA4AAB4BA64903C900F03CFE0BD8002208
:100420001346A34903C900F049FE04D80221A54898
:1004300001F07AFC1DE0002213469D4903C900F03B
:1004400029FE0BD29D4AA04B994903C900F036FE04
:1004500004D804219B4801F067FC0AE0974A9A4BB4
:10046000934903C900F016FE03D20821954801F014
:100470005BFC834801684068844A116050607E4894
:1004800000689249884205DA7B4800682D210901FD
:10049000884208DC00218E4801F0CFFD00218D4804
:1004A00001F0CBFD11E0824903C900F01BFE0446B8
:1004B0002146874801F0C1FD7D4903C900F012FEC5
:1004C00004462146834801F0B8FDF8BD08B53F2138
:1004D00009067F4800F053FA3F2109067D4800F0E5
:1004E0004EFA02217C4801F0F2FA0121754801F030
:1004F0001BFC05E0784801F05FFB022800D100E01A
:10050000F8E700BF3F20000603F082F9734C744DFA
:10051000744F7549384600F0A0FB009000F0A5FD2F
:10052000064629462046143001F0C3FA31462046DB
:1005300001F068FC00BF00BF21E0674801F03CFB10
:10054000012812D1654801F06BFC614C0021614823
:1005500001F073FD0546284600F014FA06463146C0
:10056000204600F087F900BF00BF51480CC8424840
:1005700001685EA001F096FD624803F049F9DCE7EE
:1005800030B58DB00020C04309900A900B900C90BC
:1005900005900690079008900190029003900490B7
:1005A000CB20800075231B018722920056490090C2
:1005B000444801F055FB0446544A554900F038FBC5
:1005C0000020C04309900A900B900C900590069073
:1005D00007900890019002900390049003464D4AC2
:1005E0004D4900903C4801F083FA0446474A4B4984
:1005F00000F01EFB1F4C4A4D2946204602F050FBDE
:1006000000BF364C204601F029FA04464548002137
:1006100020602046143001F050FA0546143D3B4A54
:100620004149284600F004FB0023404A4049414824
:1006300001F080FB0446354A3F4900F0F9FA3F4B90
:100640003F4A4049224800F074F904462F4A3E4987
:1006500000F0EEFA91239B013C4A132149021D4808
:1006600000F067F90446294A374900F0E1FA0DB075
:1006700030BD0000C0000010C4000010C800001011
:10068000F8000010E0000010080100100001001048
:10069000E8000010FCA9F1D24D62503F1801001093
:1006A000F0000010100100100000E03F0000E0BF6B
:1006B000D00000100000F03F0000F0BF9A99999917
:1006C0009999E93F680100109999E9BF6603000014
:1006D0008802001028030010B0010010F80100107B
:1006E000010300006F12833A0024744970656E3A6A
:1006F00025642073706565643A25322E3266200DBC
:100700000A0000000AD7A33D702B00000000000083
:10071000011D0000582A0000AC330000911B0000AE
:10072000981B0000AC3F0000791E0000A4160000DA
:10073000A817000028020010611D000020270000FB
:10074000242800005429000019200000442500003E
:1007500070B504460E46251D00206060A060E06074
:1007600020613146284602F0E7FB00BF2C1F2046DF
:10077000143001F06DFB0446143C254644352846F0
:1007800001F066FB054631482C46443C2860204673
:1007900070BD01607047F8B504460D4616462560E9
:1007A0002B48009621460CC82046143003F078F8F8
:1007B000F8BD10B504462046143001F031FB10BDE1
:1007C00038B504462068002804DC0021201D01F013
:1007D000DFF80CE00121201D01F0DAF8206800901C
:1007E0001C4821460CC82046443003F059F838BD57
:1007F00010B504460021201D01F0CAF810BD70B5E7
:1008000004460E4600BF0020205E401C002804D194
:100810002122114911A002F0F3FB00BF0020205E4D
:100820000F21090208400512002E07D0E068006879
:100830000121A9400843E168086006E0E06800681B
:100840000121A9408843E168086070BDC03F0000F5
:10085000E4380000DC380000184000006F626A2DA8
:100860003E70696E20213D202850696E4E616D6595
:10087000294E4300FEB504460E467F21C905304689
:1008800000F04CFC01D27F26F60554493046FFF7B4
:100890002BFD00D2514E942006510021304600F02D
:1008A0003DFC0AD201212046743001F071F800218C
:1008B0002046843001F06CF809E0002120467430B5
:1008C00001F066F801212046843001F061F89C2097
:1008D0000159304600F0C1F9054600BF68004008E4
:1008E00000BF009098200159009800F0B6F90190DF
:1008F00000F0A2FB074639462046FFF74AFFFEBD3F
:10090000F8B504460D463649284600F0A6F90746D4
:1009100000F092FB064600F06FFB98210851085941
:1009200000F08AFB0646324600212046FFF733FFDF
:10093000F8BDF8B504460F4615461E46314620461A
:10094000FFF706FF044639462046743001F012F8DE
:100950000446743C29462046843001F00BF80446D6
:10096000843C7D21C9059C2001511E492046FFF78A
:10097000C7FF00212046FFF77DFF2046F8BD9C22DF
:1009800011507047014694204058704770B5044696
:100990000E4600BF0020205E401C002804D121220A
:1009A000114912A002F02CFB00BF0020205E0F2195
:1009B000090208400512002E07D0E06800680121F6
:1009C000A9400843E168086006E0E068006801218A
:1009D000A9408843E168086070BD0000000080BF46
:1009E000002474496F12033A184000006F626A2DA8
:1009F0003E70696E20213D202850696E4E616D6504
:100A0000294E430003460B439B0703D009E008C966
:100A1000121F08C0042AFAD203E00B780370401CAE
:100A2000491C521EF9D27047D2B201E00270401C3C
:100A3000491EFBD270470022F6E710B513460A465E
:100A400004461946FFF7F0FF204610BD10B50022FE
:100A500000E0521C835C8C5CA34201D1002BF8D1D6
:100A6000D8B2E1B2401A10BD30B5054600200346A9
:100A700000E05B1C934205D2EC5CC85C201A01D1FB
:100A8000002CF6D130BD00000FB400B58DB0099038
:100A90000B9010A900200091C0430A9000200C90F8
:100AA00006480690064807906A4609A80F9900F084
:100AB000ABFB0DB008BC04B01847000029120000C1
:100AC00049120000FFB50027FF4383B000205C6897
:100AD00001909E681D46A9697F1C04988847009074
:100AE000296A88470028F6D10098401C0CD00320C2
:100AF00040028443002E19DD600614D500982B288F
:100B000009D02D280FD103E00020C04307B0F0BD6D
:100B1000012080020443A9697F1C04988847761E3F
:100B20000090002E02DD0098302803D005980028A0
:100B300025D035E0012040020443A969761E7F1CC0
:100B4000049888470090002E03DD782805D05828A7
:100B500003D00598002810D022E00598002801D085
:100B600010281DD1012040028443A969761E7F1CF4
:100B7000049888470090102002E0082000E00A2036
:100B800005900DE0012149020C43059A0199761E5A
:100B9000514308180190A9697F1C04988847009068
:100BA000002E05DD0599009800F019FB0028E9DA10
:100BB000E96904988847A00502D40120C043A5E74D
:100BC000E00722D1600611D56005019800D54042AA
:100BD00029680A1D2A600968220501D5087014E0F9
:100BE000220701D5088010E008600EE02868011D8A
:100BF00029600068210502D50199017005E02107EF
:100C0000019901D5018000E0016038467EE70000CF
:100C100070B5054C054D03E0206800198047241D80
:100C2000AC42F9D170BD00007C4000008040000063
:100C3000F8B5074615460E46102002F0ABF9040041
:100C400009D06760A660E56000F010FB01682160D4
:100C500004600020F8BD0120F8BD024670B54A408E
:100C6000D30FDB0740002DD04A002AD0010E140E0E
:100C7000000212020919400A520A8418E5010446CA
:100C80005443000A120A2E045043A4194219200C9E
:100C9000C543AA18120C0125AD03521C52191204A7
:100CA0007F39240400D0521C104301D44000491E57
:100CB000C2B20C06C0092018401C4008802A02D08D
:100CC00003E0002070BD40084000002900DA002049
:100CD000184370BDF0B507460846584087B0C00FAE
:100CE000049048000E46590040084908BC1A884143
:100CF00005D2384631461E4617460B460246580076
:100D0000400810434CD0300D039040055900400D71
:100D1000490D0590401A0290402872DA180301210B
:100D2000000B09050843019004980092002805D0A3
:100D3000019952420020884100920190029840217E
:100D40000A1A0199009800F027FA05460C466B46EE
:100D500007CB00F031FAC0197141039A0E0D002340
:100D6000D71756401A467A40164344D0049A002AB0
:100D70002DD0029A012A039A15DC1205C01A91415E
:100D800001263605001C7141D20F059ED207009343
:100D9000019202962A46234600F0E5FA07B0F0BD1C
:100DA00038463146FAE71605224A0F46B218C01AED
:100DB000B74101210905001C4F4100187F41114630
:100DC00018187941E20F10436D19644113E0E207EE
:100DD0006D0815436408C2071443039A01261205DF
:100DE000C01A91413605001C7141CE0740083043BE
:100DF0004908C01851412A46234600F0A7FACDE71A
:100E0000FFE7049801224000C117121A00238B410A
:100E100004983146C417381AA141EEE730B40124D2
:100E2000E407634030BC55E730B40124E407614077
:100E300030BC4FE70000E0FFF0B51FB488B00B995D
:100E40000998002448400999C00F490049080991B0
:100E5000C0070B990090490049080B91099908981F
:100E6000A64608431CD00B990A98084318D0099845
:100E700001244000420D4800410D0998240500035B
:100E8000000B204309900B980003000B20430B90AC
:100E900050181C494018002201901446104605E0E5
:100EA000002001460DB0F0BD032801DA034600E042
:100EB00003239C46C11A0AAE0AE05F0008ADED5B51
:100EC0004F00F75B7D430027AA187C41491C5B1E3D
:100ED0006145F2DD410004AB5A522104120C0A4371
:100EE000240C401C0828DFDB019802900099704612
:100EF00001910090059B049A0799069800F033FA37
:100F0000D0E700000DFCFFFFF0B50C465C4085B05B
:100F1000E40FE40703944C0000266408590094464B
:100F2000490802460296224321D062460A431ED057
:100F30006200570D4A000E032303550D012402469B
:100F40002C492405781B1B0B360B401823432643E2
:100F5000614600901C46501AB44103D30098401CCF
:100F6000009002E0921800985B41002803DA00200C
:100F7000014605B0F0BD002001210905074686465F
:100F800011E064461D46141BB54106D36546521B4D
:100F9000B341744607430C43A646CD0740084908B1
:100FA000284392185B4105460D43EAD11046184389
:100FB00013D06046194650407140084306D0604641
:100FC000101AB34106D20122002306E000220123B9
:100FD000DB0702E00122D24353100098744601055A
:100FE000381C6141029C039D0019694100F0AEF973
:100FF000BFE70000FD030000C217C10F504010B54D
:101000004018CA079623002100F067F910BD0000C0
:101010000EB5C217C10F5040CA0740180021054B3A
:101020000293019200910A460B4600F09CF903B02E
:1010300000BD000033040000C20F41004002012344
:10104000400ADB05D207090EC0187F2901DA00200B
:101050007047962903DC9623591AC84001E0963957
:101060008840002AF4D040427047410040020122EB
:10107000400AD205090E80187F2901DA0020704746
:10108000962903DC9622511AC84070479639884049
:101090007047000010B5002904DB0124E40740423A
:1010A0008C412146002B04DB1C460123DB07524206
:1010B000A3418B4200D1824210BD000010B500292F
:1010C00004DB0124E40740428C412146002B04DB71
:1010D0001C460123DB075242A341994200D19042B2
:1010E00010BD0000CB0FDB07490010B549080246D0
:1010F0000A4307D00A0D07240903E401090B121B58
:10110000002A01DC002010BDC900440F0C43C100BF
:10111000E018D205801800F0D8F810BD0122D207DF
:10112000002800DB101A002900DB511A88427047A2
:1011300010B500F08BF910BDF0B51FB406460020C5
:1011400082B005464024019100901BE0019922469F
:101150000F46304600F0C4F9049A059B801A994165
:1011600010D310461946224600F016F8361A8F4161
:101170000197224601200021009F00F00DF8381849
:101180004D4100902046641E0028DFDC019B009842
:101190002946324607B0F0BD10B5202A04DB0146CF
:1011A000203A9140002010BD914020239C1A034614
:1011B000E3401943904010BD10B5202A06DBCB1741
:1011C0000846203A1041C1170B4306E00B46134175
:1011D000D0402024A21A91400843194610BD3A2855
:1011E00000D23038202302469A43412A01D31046C8
:1011F0003738884201D30020C04370470268137813
:10120000511801601846704710B5D160044951610A
:101210000449116200211161114600F079F910BDF5
:10122000FD110000031500004268002A08D0016883
:101230000B78491C002B03D0521E06C0184670477D
:101240000121C160881E70474268002A0BD0C36824
:101250000168002B07D183688B4204D0491E521CC1
:1012600006C0002070470020C04370470048704708
:1012700050010010034870470248001D011F88609C
:10128000001D704754010010F8B50646FFF7EEFF49
:101290000090054615E0002E02D0E068B0420FD164
:1012A000206828600098A168076860688847204621
:1012B00001F0A0FD00980068B84202D00098E8E76D
:1012C00025462C68002CE6D1F8BD002904DA401C24
:1012D000490001D140084000704770B40024050C5B
:1012E00005D11024000402D1002921D01124050EBB
:1012F00001D100020834050F01D10001241D850F22
:1013000001D18000A41C002801DB4000641C0029DE
:1013100008D020252E1B0D46F540A14000D001210C
:101320002943084301061B1B000ADB1D02D50020D0
:1013300070BC7047DB05181880180029F8DA401CCB
:101340004900F5D170BC40084000704710B5002B33
:1013500008DA0024401C614192185B411A4301D114
:101360004008400010BDF0B51FB482B005460C0027
:1013700003D0084600F0C6FE02E000F0C3FE2030B5
:101380000246009021462846FFF706FF049B059A77
:1013900004460F4618431143084314D0184610431F
:1013A0001BD0009840210A1A1846059900F098F8B9
:1013B00005460E46009A05990498FFF7EDFE08438E
:1013C00005D0012004E02046394607B0F0BD0020DA
:1013D000C11705430E432C43374300990E9863050C
:1013E000401A7905E40A00220C43FD0A0A3002D5AE
:1013F00000200146E9E70105101969410C9C0D9D8B
:1014000000196941FFF7A2FFDFE700004A00090366
:101410000123090B1B0519430A4B10B5520D9A42C3
:1014200002DA0020014610BD064B34339A4203DC39
:101430009A1A00F055F810BD034BD218FFF7ACFE16
:1014400010BD0000FF030000CDFBFFFF10B500F052
:101450000EF80169002903D000220261884701E0EB
:1014600080688047C046C04610B5C046C04670B5CB
:10147000FFF702FF04680546002C15D1202001F07B
:1014800089FD040012D0002009492C6003C40949D9
:1014900021602071A060E06007492061083C0029BC
:1014A00001D000F0D2F9E061204670BDC046C046D0
:1014B000000000006914000000000000064C012537
:1014C000064E05E0E36807CC2B430C3C98471034EC
:1014D000B442F7D3FEF798FE5C4000007C40000069
:1014E00010B5202A04DB0846203AD040002110BD68
:1014F0000B46D340D0402024A21A914008431946FD
:1015000010BD10B50F21C0B2490200F0BFF910BDE7
:10151000F3B58DB000200A9001200B9000260846FC
:101520000C300C4609906269012109989047051E0C
:101530002ED0252D2DD0216A8847002818D0626929
:10154000012109989047216A88470028F7D1411E58
:1015500062690998904700E0761CA1690D98884758
:10156000216A88470028F7D1E1690D988847DAE7B2
:10157000A1690D9888470746A84201D1761CD2E799
:10158000E1690D9888477F1C02D10A98002877D01E
:1015900049E1002762693D463946099890472A2863
:1015A0000CD16269012109989047012506E00A21C2
:1015B0004F433F18303FEBD41020054362690121AF
:1015C00009989047014630390A2903D29B498F4236
:1015D000DEDCECE7E90600D4994F6C280AD04C28F1
:1015E00010D0682824D06A282ED074280CD07A28ED
:1015F0000AD00DE062690121099890476C2823D038
:1016000004211CE0202005436269012109989047CC
:10161000A760656065284FD026DC582839D01ADCD1
:10162000452849D012DC252834D04128B0D143E0E8
:101630006269012109989047682802D008210D436A
:10164000E6E70120C002DEE70220DCE7462833D0CF
:1016500047282CD130E05B2870D061282CD063283B
:101660006CD0642823D161E06F284FD009DC662854
:1016700022D0672820D0692826D06E2817D12EE0E6
:10168000CDE070284DD073286FD075284ED07828C3
:101690000DD154E0A1690D9888470546252800D151
:1016A0006CE7E1690D9888476D1C00D16DE7BAE0E1
:1016B0000A224CE00A2252E0012023466A46C04337
:1016C0000D99C046C046A3E028464021084360600B
:1016D000A807234601D5002239E000223FE0E807B1
:1016E00000D020E72068011D21600068290501D590
:1016F000067018E7290701D5068014E7A90703D566
:10170000F117066041600EE706600CE728464021AD
:1017100008436060A807234601D5082217E0082285
:101720001DE0484928460840606016E028464021F0
:1017300008436060A8072346BCD5B9E715E02846F2
:10174000402108436060A80707D5234610220120E6
:10175000C0430D99C046C0465AE0234610220120DE
:10176000C0430D99FFF7AEF952E000210C910B46F2
:101770000091632802D05B2807D043E0E80601D43B
:101780000120A060012000903CE0626901210998DD
:1017900090475E2805D101200C90014662690998A6
:1017A00090472169002906D10B4601AA8F00491CE8
:1017B000D3510829FADB002835D0216900290ED140
:1017C000C117C90E09184A11930001AA9A184909AC
:1017D0004901411A0120136888400343136062697C
:1017E0000121099890475D28E5D10C98002808D080
:1017F000002001AB81005A58401CD2435A5008289F
:10180000F8DB01AB01202246C0430D99C046C0461B
:1018100000280ADA401C06D10B98002803D00020CB
:10182000C0430FB0F0BD0A98FBE7E90702D10A995F
:10183000491C0A91361800200B9074E6CCCCCC0CD5
:10184000FFFFFF7FF1F7FFFF704710B5882001F021
:10185000A1FB002801D00021017010BD802904D80F
:10186000002802D00178002901D000207047012112
:10187000017008307047002803D0024608329142B8
:1018800001D0002070470021017070477F2801D9E6
:10189000002207E0054B42089A5CC00700D11209FC
:1018A0001207120F0120904008407047543E00007C
:1018B00010B501F098FC01F095FCFEF707FE10BD95
:1018C00010B5002100F0F9F810BD0000F0B4844616
:1018D0000E48026893070E4A9B0F1768012B0ED023
:1018E00000252B463A469C002E59165166197668FB
:1018F000A41866609B1C302BF5DB01220260604659
:101900008000C0190164F0BC7047000000800440F2
:101910002401001070B413480024046001234360C4
:10192000446043604168C907FCD00F4923228A60A4
:101930000E4A956B8026B5439563CA68D207FCD0E2
:1019400003210163436344634363416BC907FCD0D4
:10195000836307480168012212041143016070BCCF
:101960007047000040800440008004400082044032
:101970008080044070B504460D4600202060606001
:10198000A060E0602946204601F0D6FA204670BDEE
:1019900070B504460D4600BF29462046FEF72FFFCE
:1019A00000BF204670BD000070B4084901600021EE
:1019B000074A10230D468C001659864200D1155156
:1019C000491C5B1EF7D170BC704700009C3E0000B4
:1019D000C803001010B50C46001D01F035FE20466E
:1019E00010BD1C22514310B508180C3000F054F8FB
:1019F00010BD000070B50E460E4901600021416027
:101A00008160154602231C220B490C3000F091FB2B
:101A100004464B200C3CC00160642A463146201D20
:101A200001F09EFD22460549201D01F003FE2046DF
:101A300070BD0000C83E0000C1180000E31900009E
:101A400001688968084710B50246001D01F040FE94
:101A500010BD10B5001D01F0A7FE10BD10B5044665
:101A60000548206000206060A060E060034801F04D
:101A7000BBFE204610BD0000D83E0000411A000009
:101A800010B5044603482060201D01F08DFE20465D
:101A900010BD0000D83E00000168002900D00847B2
:101AA0004368002B04D0014682690831184610476C
:101AB00070470160002141607047002242608261EE
:101AC0000160704710B50021C046C04610BD70B51A
:101AD0000D4606460024A00080194068002802D068
:101AE000294601F04FFA641C102CF4DB70BD000095
:101AF000F0B589B09E469446044624480F9F109E38
:101B0000139D199B0E9A20606846018061464180B2
:101B100071468180C2800781468111998181129925
:101B2000C181058214994182159981821699C182D9
:101B3000179901831899418383831A99C1830020DF
:101B400005466E4660646F00F05F401C0CD01020AC
:101B500000F086FA0890F15F002202604260826025
:101B6000C26001F0D7F90898A90009194860F05F30
:101B7000401C04D00120616CA840014361646D1CCD
:101B8000102DE0DB204609B0F0BD0000EC3E000067
:101B900070B50546074800242860A0004019406839
:101BA000002801D000F057FA641C102CF5DB284601
:101BB00070BD0000EC3E0000F8B500240746254645
:101BC000A800C0194668002E0FD00020305E401CCF
:101BD00004D12A220749084801F012FA7068006807
:101BE000002800D00120A84004436D1C102DE7DB25
:101BF0002046F8BD283C0000103C0000F3B581B041
:101C000007460025A800C0194468002C1ED0029881
:101C10002841C6070020205EF60F401C04D1212277
:101C20000D490E4801F0ECF920880005000F002E48
:101C300006D0E1680B680122824013430B6005E087
:101C4000E2681368012181408B4313606D1C102DE5
:101C5000D8DB03B0F0BD0000583B0000403B000063
:101C6000F0B589B09E469446044624480F9F109EC6
:101C7000139D199B0E9A2060684601806146418041
:101C800071468180C28007814681119981811299B4
:101C9000C181058214994182159981821699C18268
:101CA000179901831899418383831A99C18300206E
:101CB00005466E4660646F00F05F401C0CD010203B
:101CC00000F0CEF90890F15F00220260426082606D
:101CD000C26001F031F90898A90009194860F05F65
:101CE000401C04D00120616CA840014361646D1C5C
:101CF000102DE0DB204609B0F0BD0000FC3E0000E6
:101D000070B50546074800242860A00040194068C7
:101D1000002801D000F09FF9641C102CF5DB284648
:101D200070BD0000FC3E000010B50446FFF766FFE2
:101D3000204610BD10B51C46FFF75CFE214648301A
:101D400000F02CF84838034901600349C164034995
:101D5000816410BD0C3F0000583F0000243F00008C
:101D600010B5483000F03CF8483810BD00207047EE
:101D700000207047F8B58E180D4607460C46B14254
:101D800009D038682178426A641C38469047401C64
:101D900001D0B442F5D1601BF8BD000010B584B08D
:101DA00000F0CEF804460A4820600A48606000202F
:101DB0006061224608A1684600F084F907A16846E0
:101DC00000F0F7F96061FFF77DFE204604B010BD1A
:101DD000683F00009C3F00003A257000772B000010
:101DE00010B504460548206005486060606900F051
:101DF000C5F9204600F0B6F810BD0000683F0000AD
:101E00009C3F000070B50D460446FFF722FE256199
:101E100001F09CFC216941182046FFF714FE70BDBB
:101E200010B50446FFF715FE204600211430FFF7D9
:101E300040FE10BD10B50446406821694118204697
:101E4000FFF701FE20461430FFF726FE10BD00000C
:101E500010B504462046FFF701FE04460548002160
:101E6000206020461430FFF728FE0446143C20462C
:101E700010BD0000AC3F000010B5044606482060CD
:101E80002046FFF7E6FD204600211430FFF711FE43
:101E90002046FFF7F5FD10BDAC3F000010B5143033
:101EA000FFF7FAFD10BD007B7047000070B50646D5
:101EB0000C480D460468002C12D0A06800280CD0F5
:101EC0002A463146FEF7D0FD002806D1A068FEF76D
:101ED00004FAA84201D1204670BD6468002CECD100
:101EE000002070BD44010010064B036000234360D6
:101EF00081600273002903D003490A6842600860C8
:101F000070470000D43F0000440100100A490160FE
:101F10008168002905D0094A1168814202D14168CF
:101F2000116070474A68824203D01146526882426B
:101F3000FBD142684A607047D43F00004401001062
:101F400010B5054A04C00022FFF7CEFF001F034969
:101F500001600349416010BD9C3E0000E43F000069
:101F60001040000010B5001DFFF7D0FF001FFFF765
:101F70001BFD10BD10B504464068002803D0FFF7D4
:101F800092FF012801D0002010BD606810BD10B57F
:101F900004464068002803D0FFF785FF002801D0E1
:101FA000002010BD60680028FBD0001F10BD4068F5
:101FB000002800D00120704710B54068002804D0E8
:101FC000FFF771FF002801D0002010BD012010BDD7
:101FD0000068704710B504460020206060600878F3
:101FE0002F280FD1487800280CD04B1C00211A460E
:101FF000236010782F2807D0002807D0491C521CD6
:102000002260F6E7204610BD501C20601846FFF7FE
:102010004DFF6060204610BD70B50446254626463B
:1020200044363046FFF728FF0546443D3038FFF779
:1020300023FF0446143C204670BD70B504460D468F
:1020400029462046FEF716FC204670BD10B54838DC
:10205000FFF7C0FC10BD10B500F0CCFE10BD0000B5
:1020600010B5040008D1012406E0FFF703F9006869
:10207000002800D103488047204600F08BFF00284D
:10208000F3D010BD311100000FB410B5024604A901
:10209000034B039800F092F910BC08BC04B0184739
:1020A0005D0200000FB410B503A9044B044A029866
:1020B00000F084F910BC08BC04B018475D020000B1
:1020C000080400100FB410B504A9074B02AA039826
:1020D00000F074F9044602A9002000F00BFD204630
:1020E00010BC08BC04B01847F52A000070B51446AF
:1020F0000D460246024B2146284600F05FF970BDAE
:102100005D0200002021020C01D010211046020ABD
:1021100001D010460839020901D01046091F820873
:1021200001D01046891E420801D0881E7047081A47
:102130007047FFB581B01C4617460E0007D0019DC1
:1021400002E02846B047ED192046641EF9D20198F6
:1021500005B0F0BD10B50020C046C04610BD02E07D
:1021600008C8121F08C1002AFAD170477047002022
:1021700001E001C1121F002AFBD1704710B50446CF
:10218000006800F0BDFC002802DA0020C04310BD4A
:10219000204600F02FFE002010BD10B5C168006879
:1021A00000F036FD002802DA0020C04310BD0020F8
:1021B00010BD70B506460D46142000F0EBFE04007D
:1021C0000AD01421FEF737FC22462946304600F09B
:1021D000C5F8050002D004E0002070BD204600F0E4
:1021E00009FE284670BD0000F0B51FB486B00998FE
:1021F000089A030D0021024314D05148514A18187F
:10220000504305141198012810981AD0281A401C20
:1022100000264D4F4D49009601910490002812DA96
:10222000444211E01198012449A3012801D11098DA
:10223000C1430698119A84600360C26041600BB08C
:10224000F0BD4042E4E70446210500203F4A001C5F
:1022500051410391029012E0E00707D032463B461D
:1022600001990098FEF7E8FD0191009032463B4647
:1022700010461946FEF7E0FD06460F466410002C96
:10228000EAD10498039B0028029A0999089806DA73
:10229000FEF7D2FD019B009AFEF7CEFD05E0FEF7AA
:1022A00033FE019B009AFEF72FFE04460E460022E5
:1022B000284BFEF703FF03D80020C043014607E088
:1022C0000022254B20463146FEF704FDFFF79EF81D
:1022D000102409E0002C0ADB0A220023FEF72CFF61
:1022E000079B30321A55641E02460A43F2D111226E
:1022F000641C079B121B1C19119B012B03D001238B
:1023000008430ED10AE0084304D0112010900020A9
:10231000119077E71098151A6D1E0BE01098824205
:1023200002DD00236D1C03E0824201DA00236D1EF2
:10233000002BEED0069811998260C16030C07EE714
:1023400001FCFFFF104D0000000014400000F03FB2
:10235000300000000000F0430000E03F70B506468A
:10236000106815460C46002801D000F0C9FB207803
:10237000641C612808D0722802D077281CD101E0A3
:10238000002102E0042100E008210222012320783C
:10239000002809D0641C2B2802D062280CD101E04F
:1023A0001143F4E71943F2E7304600F0BFFB411C4C
:1023B00002D02860284670BD002070BDFFB597B0E0
:1023C0000646002518E2252877D100242746FD4936
:1023D000049400E00443761C32780120203A9040B7
:1023E0000842F7D130782A280ED0022230780146F0
:1023F0003039092916D804990A235943303940182D
:102400001443761C0490F1E7189802C804911890C0
:10241000002904DA012040030443484204900220CA
:102420000443761C30782E2814D10420044370789D
:10243000761C2A2809D11898761C80C8189009E0C3
:102440000A214F43303FC719761C30780146303996
:102450000929F5D930786C2810D006DC4C281AD020
:1024600068280ED06A2817D104E0742813D07A287F
:1024700012D110E00120400504430CE001210905C0
:1024800001E0032109050C437178814203D1012049
:1024900000052418761C761C3078119066280BD025
:1024A00013DC58287DD009DC00287BD04528F6D0E5
:1024B0004628F4D047281AD1A5E118E0632835D082
:1024C000642870D0652812D19DE170286CD008DC9A
:1024D0006728F1D069287BD06E280DD06F2806D1EF
:1024E000BAE073282ED0752871D0782859D01A9A5E
:1024F000199990476D1C7EE16002400F022809D0B7
:1025000003280DD00428189801680DD00D60001D17
:10251000189070E11898EA1701680D604A60F6E7B4
:10252000189801680D80F2E70D70F0E718986A4678
:1025300001781172001D18900020507202A80090BE
:10254000012005E0189802C8189000200091C043AF
:1025500061070DD5002101E00199491C0191B942A3
:1025600012DA8142F8DB009A515C0029F4D10BE0C9
:10257000002101E00199491C01918142FADB019A95
:102580000099895C0029F5D1019904981A9B471A92
:1025900021463846199A00F097FA019940194518D2
:1025A0000BE04FE02CE113E04EE00098009900783A
:1025B000491C00911A9A199990470198401E019060
:1025C000401CF2D1214638461A9B199A10E137E097
:1025D0000A200021009001916002410F022907D0DA
:1025E000189A01CA1892C2179446032908D00AE023
:1025F0001898C01DC108C90005C91891944607E084
:1026000000B2C2179446042902D140B2C1178C46C9
:1026100000226146944506DA0A4600214042914173
:102620008C462D2102E0210504D52B216A46117329
:10263000012103E0E10701D02021F7E7029155E0F5
:102640000A200AE0102008E0102000900021042059
:1026500004430191082703E0082000210191009024
:102660006002410F022907D0189A01CA189200226D
:102670009446032908D008E01898C01DC108C90075
:1026800005C91891944603E080B2042900D1C0B274
:1026900000210291210729D51199702906D0009AAD
:1026A0001021019B4A401A4305D00EE040216A46A2
:1026B0001173012108E06146014306D030216A46CA
:1026C00011731199517302210291009A0821019B03
:1026D0004A401A430AD16146014301D1610705D539
:1026E00030216A46117301217F1E029111995829E8
:1026F00004D035A10E910DA90D910DE037A1F9E798
:102700006146019B009AFEF717FD0E9B8C469B5C71
:102710000D9A521E0D92137061460143F0D10D982F
:1027200005A9081A20300190600703D50120000494
:10273000844300E001270198874201DD381A00E058
:102740000020019900904118029809180498401A35
:102750000490E00306D421461A9B199A049800F0CD
:10276000B3F94519002706E003A81A9AC05D199924
:1027700090476D1C7F1C02988742F5DBE0030CD567
:1027800021461A9B199A049800F09EF9451904E015
:102790001A9A3020199990476D1C0099481E009094
:1027A0000029F5DC08E00D980D990078491C0D9181
:1027B0001A9A199990476D1C0199481E0190002999
:1027C000F1DC63E10928010030313233343536372A
:1027D000383961626364656600000000303132336D
:1027E000343536373839414243444546000000000D
:1027F00000F05AF94519761C3078002800D0E2E53F
:1028000028461BB0F0BD600700D406271898C01DED
:10281000C108C90048680A680831C30FDB0718916E
:10282000190001D09CA108E0210501D59BA104E07D
:10283000E10701D09AA100E09AA1430011985B083A
:10284000109165280CD006DC452809D046281DD0FB
:10285000472841D141E0662818D067283CD13CE0A8
:102860000021112F01DB112000E0781C0191009064
:1028700008A911A8FFF7B8FC139905910021119A36
:1028800015927F1C12980197009150E00120C0071B
:1028900003900120019008A9009711A8FFF7A4FC5C
:1028A000139A149905920022119B00921298159385
:1028B000059A0192002901D0104602E0791C4018C7
:1028C0000190381A01D5019804E04042401E009062
:1028D000781C0190C01B029043E0012F00DA012711
:1028E0000021112F01DD112000E0384601910090F8
:1028F00008A911A8FFF778FC13990591119A0021F6
:10290000129815920091019721070CD40599B942AC
:1029100001DB019900E00191012904DD159A491EAE
:10292000515C302906D0B84201DA011D05DA0121D7
:10293000029115E00199491EEDE7002805DC009998
:10294000411800910199091A03E0019A411C914232
:1029500000DD01910099401A401C02900120C0073F
:102960000390200706D402990198814202DB0020DF
:10297000C043029000206946C87707AF0121039841
:102980000337C907884224D0022011902B201290CF
:10299000039800280CDA404203902D20129007E0A3
:1029A0000A210398FDF76FFC30317F1E03903970C8
:1029B0001199481E11900029F2DC03980028EFD1EC
:1029C000791E129808703078202108404530BF1ECB
:1029D000387006A8C01BC01D03901098007800280E
:1029E00000D00120019941180298C01709180398D6
:1029F00009180498401A401E0490E00306D42146AA
:102A00001A9B199A049800F05FF8451910980078FD
:102A1000002803D01A9A199990476D1CE00324D519
:102A200021461A9B199A049800F04EF845191CE0AB
:102A30000098002807DB00990598884203DD159867
:102A4000405C199901E0199930201A9A9047009832
:102A50006D1C401C00900298401E0290002804D17A
:102A60001A9A2E20199990476D1C0199481E0190C1
:102A70000029DDDC05E038781A9A7F1C1999904707
:102A80006D1C0399481E03900029F4DC21461A9B13
:102A9000199A0498ACE600002D0000002B000000FD
:102AA0002000000000000000F8B5044600251E4686
:102AB0001746880404D405E039462020B0476D1C31
:102AC000641EF9D52846F8BDFFB50446002581B03F
:102AD0001E46C80301D5302700E02027880404D50E
:102AE00005E038460399B0476D1C641EF9D52846A9
:102AF00005B0F0BD0A68531C0B60107070470000F1
:102B0000032801DA002070478100074800220918D5
:102B10004039486B4A63002802D001684968084779
:102B20000020C04370470000C8030010F0B50E46F7
:102B300083B0044632A1FDF789FF002809D0314F48
:102B40000025A8003858002809D06D1C102DF8D396
:102B500051E02D490868421C0A6003B0F0BD102DF9
:102B600049D220783A2811D021466846FFF732FA38
:102B70006846FFF71CFA00283DD06846FFF71CFAAC
:102B80000028684609D0FFF702FA2DE06A461FA127
:102B90002046FDF779FF009826E0FFF7EBF90028C3
:102BA00029D0B10701D5022408E0710701D501241D
:102BB00004E0310701D5092400E000243107890F22
:102BC00002D0012149020C43710702D5012189027B
:102BD0000C43264604466846FFF7FAF9014620688A
:102BE0003246836820469847002804D0A9007850D0
:102BF000E81C03B0F0BD0020C04303B0F0BD0000EE
:102C00003A747400C8030010200100103A257000C7
:102C1000032801DA00207047064A800080184038F7
:102C2000406B002803D00268136900221847002077
:102C3000C0437047C803001070B514460E46032801
:102C400014DA12480068002804D1114A11491248C8
:102C500000F086FC0025002C06D9715D0E4800F0BE
:102C6000F3FC6D1CA542F8D320460AE00B49800016
:102C700040184038406B002805D001680B68314689
:102C80009847201A70BD0020C04370BD300100106D
:102C9000A4160000A817000038010010C803001097
:102CA00070B50C4605461349204600F005FB287018
:102CB0001148816B102291438163104801685202D0
:102CC000114301600E49E0B240180168802291432F
:102CD00001600C480C4900684A1E8018FDF7E9FAAB
:102CE000401E0A49000208600249204600F012FB1B
:102CF00070BD0000743900000082044080800440F0
:102D0000004004402801001020AA440000C00140F7
:102D1000F0B429490A68120A12020A600A680478A3
:102D200001273B46A3401A430A600A683B061A4340
:102D30000A604A68002AFCDA0C689C430C601204A2
:102D40000C68920D240A24020C600D6806783C463B
:102D5000B44025430D600C681C430C604C68002C8B
:102D6000FCDA0D689D430D6024040D68A40D2D0A46
:102D70002D020D600D68007887403D430D600868A6
:102D80001843086048680028FCDA0D689D430D6010
:102D90000004800DA24202D9114622460C4684420C
:102DA00000D90446A24200D91446A001A105F0BCF6
:102DB000890E08437047000000C001400FB410B5F1
:102DC00003AA03480299FFF791F9012000F002F8E5
:102DD0001C04001004460548FFF7DFF90448FFF71C
:102DE000DCF9002C01D000F033F9FEE708040010F4
:102DF0001C04001010B5002823D0124B0022001F25
:102E0000196803E0814203D80A4649680029F9D1CC
:102E1000002A0AD01368841A9C4204D1006818184A
:102E20001060104602E0506000E01860002907D0F2
:102E300002680B1A934203D10B68D21802604968EA
:102E4000416010BD6001001070B504460020205E96
:102E50000D46401C04D138220B490CA000F0D0F8DC
:102E600020880005020F0120002D07D0012D04D17C
:102E7000A1680B68904003430B6070BDA1680B68AC
:102E800090408343F8E700007C3D00006F626A2DAC
:102E90003E70696E20213D202850696E4E616D653F
:102EA000294E430070B505460180481C29D008040E
:102EB000000F052200041207861800200C460C297A
:102EC0000CD010498C4209D00F498C4206D00F49D2
:102ED0008C4203D02521C9018C4200D1012001463A
:102EE000204600F081F92005000F01218140880073
:102EF000801968600120C0033018A86004483018A9
:102F0000E86070BD740B0000781000007C110000B8
:102F1000FC3F000070B5012605460C46FFF7C2FFD6
:102F2000611C07D000212846FFF78EFF3146284656
:102F300000F028F870BD000070B50D46044600266C
:102F4000FFF7B0FF6D1C18D0A05F401C04D12122F8
:102F50000A490B4800F054F820880005010FE0688A
:102F6000026801238B409A43026001212046FFF74B
:102F70006BFF3146204600F005F870BDF83C0000BC
:102F8000E03C000010B502460020105E00F050F951
:102F900010BD0000F0B50B30C108C900144F002669
:102FA000144A0FE003688B420BD38B4205D95C1A9D
:102FB0004318456830C3083B00E04368136002C013
:102FC00004E0021D10680028ECD13046002803D12F
:102FD0003868002801D00020F0BD064A064810607D
:102FE000064A121AD208D20044C001203860D7E73E
:102FF000640100106001001034040010300400105F
:1030000008B500920B46024603A11048FFF73CF8B2
:1030100000F01EF808BD00006D62656420617373E6
:103020006572746174696F6E206661696C65643A7B
:103030002025732C2066696C653A2025732C206C42
:10304000696E65202564200A000000001C04001041
:1030500090B072B6AD24640121466846FFF76CFF5C
:1030600075252D01294604A8FFF766FF214608A80B
:10307000FFF762FF29460CA8FFF75EFF01256946AE
:103080000020085E401C04D1212254495448FFF717
:10309000B7FF69460888039900050968000F2A46AA
:1030A000824003981143016069461020085E401C6D
:1030B00004D1212249494A48FFF7A2FF6846008A05
:1030C000079900050968000F2A4682400798914336
:1030D000016068462021415E491C04D121223F49FC
:1030E0003F48FFF78DFF6846008C0B990005096883
:1030F000000F2A4682400B989143016068463021B8
:10310000415E491C04D1212234493548FFF778FF3C
:103110006846008E0F9900050968000F2A46824014
:103120000F9811430160962000F084FB684600214F
:10313000415E491C04D1212228492948FFF760FF3C
:1031400068460088039900050968000F2A468240F6
:1031500003989143016068461021415E491C04D1E7
:1031600021221E491E48FFF74BFF6846008A079937
:1031700000050968000F2A468240079811432C4633
:10318000016068462021415E491C04D12122134977
:103190001348FFF735FF6846008C0B990005096856
:1031A000000F224682400B9811430160684630218F
:1031B000415E491C04D1212208490948FFF720FF3C
:1031C0006846008E0F9900050968000F84400F982B
:1031D000A1430160962000F02DFB50E70439000068
:1031E000EC3800007047704770B504460D46401C2F
:1031F00004D11522074908A0FFF702FF0B49E0B2EE
:10320000401801686A07C908C900520F11430160DC
:1032100070BD0000E83D000070696E20213D20284F
:1032200050696E4E616D65294E43000000400440B8
:1032300070B504460D46401C04D11E220A490BA05D
:10324000FFF7DEFE69070E4AE0B2C90F83181A685D
:1032500018208243A807C00E104301229202904317
:1032600089020143196070BDE83D000070696E205D
:10327000213D202850696E4E616D65294E43000046
:1032800000400440884202D0421C01D108467047E9
:1032900010B5491C04D003A0FFF790FD0020C043E7
:1032A00010BD000070696E6D6170206D69732D6DC9
:1032B0006174636800000000002210B5D243431C13
:1032C0000BD00023CB5E5B1C0ED00023CB5E834271
:1032D00005D14C68601C08D00AE0104610BD0C31C6
:1032E0000023CB5E5B1CF0D1144602A0FFF766FD05
:1032F000204610BD70696E6D6170206E6F7420661F
:103300006F756E6420666F72207065726970686593
:1033100072616C0010B50446401C0FD00020085E9E
:10332000401C11D00020085EA04208D189682046C8
:10333000FFF75AFF00212046FFF77AFF10BD0C313E
:103340000020085E401CEDD101A0FFF737FD10BD45
:10335000636F756C64206E6F742070696E6F757426
:1033600000000000F3B543498BB00120886142485A
:10337000006801900C9801010198FCF784FF80B26D
:10338000069000200990012000270790002953D0C3
:103390000C9801240025049002E00025002C45D95A
:1033A0000198604340000ED50C9829194143019AB9
:1033B00060005043FCF767FF0009C1030120C00310
:1033C0000818060C0DE00C9829194143019AA00039
:1033D0005043FCF758FF4009C1030120C0030818FF
:1033E000060C002E00D10126002D02D0022E00D2A4
:1033F000022628197043C10001986043FCF743FF7F
:10340000401C0C994008401A00D54042049988425B
:1034100008DA07940C99099506960490884201D120
:10342000012703E06D1CEDB2A542B9D3641CE4B2E0
:10343000102C01D2002FB0D00B980068C2688021F8
:103440000A43C2600698020A0B9800684260069818
:10345000C2B20B98006802600798099A00011043F5
:103460000B9A126890620B980068C2688A43C26027
:103470000DB0F0BD8080044028010010F8B51D4655
:1034800014460F460646012B06D0022D04D0BC225E
:103490001E491FA0FFF7B4FD042F01DD092F04DB37
:1034A000BD221A4924A0FFF7ABFD002C0CD0012C43
:1034B0000AD0022C08D0032C06D0042C04D0BE2243
:1034C00012492648FFF79CFD681E7F1F052C14D269
:1034D00023007B441B79DB189F440204070A0D007C
:1034E000002500E00125002407E001252C4604E02A
:1034F0000125022401E00125032480003843E9006E
:103500000843210108433168C860F8BD4C3A000007
:103510002873746F705F62697473203D3D20312998
:10352000207C7C202873746F705F62697473203D07
:103530003D2032290000000028646174615F6269E7
:103540007473203E2034292026262028646174616B
:103550005F62697473203C2039290000BC3A000086
:10356000F7B5044628490198FFF7A6FE0546274906
:103570000298FFF7A1FE01462846FFF783FE0546A5
:10358000401C04D13C22224922A0FFF739FD2548E6
:1035900025600168012212031143016020680126A1
:1035A00086602068002747604B21C9012046FFF74D
:1035B000D9FE0123002208212046FFF75FFF1249B0
:1035C0000198FFF7A7FE11490298FFF7A3FE0198A3
:1035D000401C03D002210198FFF72AFE0298401CEC
:1035E00003D002210298FFF723FE0F48281800D1CC
:1035F00067600E48854205D10D48466062682168C3
:103600000261C16003B0F0BDD4390000103A00007F
:103610004C3A000028696E74297561727420213D4E
:10362000204E4300808004400080FFBF00800040A7
:103630002C010010034B99604068194680000A5025
:10364000704700002C0100100068202342691A42D4
:10365000FCD00160704700000149012008607047FC
:1036600000800140024841694908490041617047B2
:10367000008001400F48016800291AD170B501256A
:1036800005600D4801680215114301600B480C4CA0
:103690000068022161600B49FCF7F5FD401EE06007
:1036A000656009491320FEF711F90849E80408602C
:1036B00070BD704740010010808004402801001058
:1036C0000080014040420F000D37000000E100E0A3
:1036D00070B5054672B642600B4A0160146800205E
:1036E000002C0CD02368CB1A03D42046A468002CED
:1036F000F8D1002803D08560AC6062B670BD084682
:10370000156000F07BF8F7E74801001010B5FFF7EF
:10371000A3FF0D4C206800280ED000F017F8216898
:103720000A68101A00280ADC886820606268002A8B
:10373000F0D048689047EDE7FFF794FF10BD0868A8
:1037400000F05CF810BD00004801001070B50F4893
:103750000F4C0168002917D1012505600D4801684B
:103760000215114301600C480221006861600B4999
:10377000FCF789FD401EE060656009491320FEF7F3
:10378000A5F80849E8040860A06870BD4001001071
:1037900000800140808004402801001040420F005A
:1037A0000D37000000E100E010B572B60D4A116857
:1037B00081420AD180681060002803D0006800F0C0
:1037C0001DF80CE0FFF74EFF09E0002907D08A68DA
:1037D000824202D18068886001E01100F7D162B6B0
:1037E00010BD00004801001010B50446FFF742FF6D
:1037F0000148446010BD0000480100100349886181
:103800004869012210434861704700000080014070
:1038100070B50749FDF721FAFDF70EFC0446FFF7E6
:1038200095FF0546FFF792FF401BA042FAD370BDFB
:103830000024744970B57D21C90048430446FFF750
:1038400085FF0546FFF782FF401BA042FAD370BDFB
:10385000F3B58BB004460A94082208A80C99FDF72A
:10386000D1F8099908980191009048100A9C05190F
:10387000089803910290C807C00F002804D1099945
:1038800008980591049006E0099908980791069018
:1038900029684618306807462846B8470DB0F0BD7D
:1038A0007FB582B005460C460A9E28461430059A1C
:1038B0000499019200914460019A0099C26081606C
:1038C000054981610021016000BF31462846FEF7AD
:1038D00099FA06B070BD000051380000F1070000F1
:1038E00000000000C1070000000000006F626A2DA8
:1038F0003E70696E20213D202850696E4E616D65D5
:10390000294E4300433A5C436F64655C6769745FAA
:103910007265706F5C6769746875625C6D6265641E
:103920002D6F6666696369616C5C6275696C645C65
:103930006D6265645C5441524745545F4C5043315D
:103940003131345C5441524745545F4E58505C54B9
:1039500041524745545F4C5043313158585F3131E3
:103960004358585C6770696F5F6F626A6563742E55
:1039700068000000740B000000000000020000005E
:103980007810000001000000020000007C1100001F
:10399000020000000200000080120000030000008E
:1039A0000200000094140000050000000100000067
:1039B0006C1A00000600000001000000981B0000C7
:1039C0000700000001000000FFFF0000FFFFFFFFF5
:1039D00000000000242800000080004002000000D9
:1039E00048350000008000400200000084300000E4
:1039F0000080004003000000A81700000080004085
:103A000001000000FFFF0000FFFFFFFF00000000BB
:103A10002027000000800040020000003C3400002D
:103A2000008000400200000088310000008000405B
:103A300003000000A4160000008000400100000008
:103A4000FFFF0000FFFFFFFF00000000433A5C4360
:103A50006F64655C6769745F7265706F5C676974D9
:103A60006875625C6D6265642D6F66666963696125
:103A70006C5C6C69627261726965735C6D626564CD
:103A80005C746172676574735C68616C5C5441520C
:103A90004745545F4E58505C5441524745545F4C23
:103AA0005043313158585F31314358585C73657217
:103AB00069616C5F6170692E63000000287061723B
:103AC000697479203D3D205061726974794E6F6E42
:103AD0006529207C7C2028706172697479203D3DC5
:103AE000205061726974794F646429207C7C20289D
:103AF000706172697479203D3D20506172697479FA
:103B00004576656E29207C7C202870617269747905
:103B1000203D3D20506172697479466F726365641F
:103B20003129207C7C2028706172697479203D3DA8
:103B300020506172697479466F7263656430290040
:103B40006F626A2D3E70696E20213D202850696E9B
:103B50004E616D65294E4300433A5C436F64655C7A
:103B60006769745F7265706F5C6769746875625CC1
:103B70006D6265642D6F6666696369616C5C627510
:103B8000696C645C6D6265645C5441524745545F86
:103B90004C5043313131345C5441524745545F4EAF
:103BA00058505C5441524745545F4C504331315852
:103BB000585F31314358585C6770696F5F6F626A54
:103BC0006563742E68000000433A5C436F64655C73
:103BD0006769745F7265706F5C6769746875625C51
:103BE0006D6265642D6F6666696369616C5C6C69A2
:103BF000627261726965735C6D6265645C636F6D4E
:103C00006D6F6E5C4275734F75742E63707000003B
:103C10006F626A2D3E70696E20213D202850696ECA
:103C20004E616D65294E4300433A5C436F64655CA9
:103C30006769745F7265706F5C6769746875625CF0
:103C40006D6265642D6F6666696369616C5C62753F
:103C5000696C645C6D6265645C5441524745545FB5
:103C60004C5043313131345C5441524745545F4EDE
:103C700058505C5441524745545F4C504331315881
:103C8000585F31314358585C6770696F5F6F626A83
:103C90006563742E68000000433A5C436F64655CA2
:103CA0006769745F7265706F5C6769746875625C80
:103CB0006D6265642D6F6666696369616C5C6C69D1
:103CC000627261726965735C6D6265645C636F6D7D
:103CD0006D6F6E5C427573496E2E637070000000EC
:103CE0006F626A2D3E70696E20213D202850696EFA
:103CF0004E616D65294E4300433A5C436F64655CD9
:103D00006769745F7265706F5C6769746875625C1F
:103D10006D6265642D6F6666696369616C5C62756E
:103D2000696C645C6D6265645C5441524745545FE4
:103D30004C5043313131345C5441524745545F4E0D
:103D400058505C5441524745545F4C5043313158B0
:103D5000585F31314358585C6770696F5F6F626AB2
:103D60006563742E6800000070696E20213D202874
:103D700050696E4E616D65294E430000433A5C43C5
:103D80006F64655C6769745F7265706F5C676974A6
:103D90006875625C6D6265642D6F666669636961F2
:103DA0006C5C6C69627261726965735C6D6265649A
:103DB0005C746172676574735C68616C5C544152D9
:103DC0004745545F4E58505C5441524745545F4CF0
:103DD0005043313158585F31314358585C677069EE
:103DE0006F5F6170692E6300433A5C436F64655C8A
:103DF0006769745F7265706F5C6769746875625C2F
:103E00006D6265642D6F6666696369616C5C6C697F
:103E1000627261726965735C6D6265645C74617223
:103E2000676574735C68616C5C5441524745545FCC
:103E30004E58505C5441524745545F4C50433131C9
:103E400058585F31314358585C70696E6D61702EFF
:103E500063000000DDDDDDDDDCBBBBDDDDDDDDDDE8
:103E6000DDDDDDDD988888888888888877777777B2
:103E7000778888888555555666666666666666667E
:103E80006668888883333332222222222222222229
:103E90002228888D0000000000000000552100004D
:103EA000552100005521000055210000552100003A
:103EB0005521000000000000A919000000000000CA
:103EC00000000000000000000000000000000000F2
:103ED0000000000000000000811A00000000000047
:103EE000552100000000000000000000911B0000B0
:103EF000000000000000000000000000011D0000A4
:103F0000000000000000000000000000611D000033
:103F1000000000000000000000000000B8FFFFFFEC
:103F200000000000751D00006D1D00000000000075
:103F300000000000711D00000000000000000000F3
:103F400000000000000000004D2000000000000004
:103F5000B4FFFFFF000000000000000000000000B0
:103F60000000000000000000751D00006D1D000035
:103F70000000000000000000711D000000000000B3
:103F800000000000E11D00000000000055210000BD
:103F900055210000FCFFFFFF0000000000000000B2
:103FA000000000000000000000000000791E00007A
:103FB00000000000351E00000000000000000000AE
:103FC00000000000000000009D1E00000000000036
:103FD000000000000D1F00000000000000000000B5
:103FE000000000005521000055210000552100006F
:103FF000552100005521000055210000000000005F
:10400000651F000000000000FCFFFFFF0000000033
:1040100000000000000000006D6265642F544152F2
:104020004745545F4C5043313131342F544152474E
:1040300045545F4E58502F5441524745545F4C50A1
:1040400043313158585F31314358582F6770696F89
:104050005F6F626A6563742E680000008040000034
:10406000C0000010A80000005E21000028410000F0
:1040700068010010C80200006E21000005C5FFFFA6
:1040800000000000000000001D0300000000000010
:104090000000000000000000000000000000000020
:1040A0007B14AE47E17AC43F691D554D10751F3F23
:1040B000FCA9F1D24D62503F00000000000000005A
:1040C00000000000000000000000000000000000F0
:1040D00000000000000000000000000000000000E0
:1040E0000000000000000010006CDC020000000076
:1040F00000000000000000000000000000000000C0
:1041000000000000000000000000000000000000AF
:10411000000000000000000000000000000000009F
:08412000000000000000000097
:0400000500000201F4
:00000001FF
