:020000040000FA
:10000000001000102102000033020000290200004D
:1000100000000000000000000000000000000000E0
:100020000000000000000000000000002B020000A3
:1000300000000000000000002D0200002F02000060
:1000400033020000330200003302000033020000DC
:1000500033020000330200003302000033020000CC
:1000600033020000330200003302000033020000BC
:1000700033020000330200003302000033020000AC
:10008000330200003302000033020000330200009C
:100090003302000033020000310200003102000090
:1000A000330200003302000033020000310200007E
:1000B000330200003302000033020000330200006C
:1000C000FFFFFFFFFFFFFFFFFFFFFFFFFFFFFFFF40
:1000D000FFFFFFFFFFFFFFFFFFFFFFFFFFFFFFFF30
:1000E000FFFFFFFFFFFFFFFFFFFFFFFFFFFFFFFF20
:1000F000FFFFFFFFFFFFFFFFFFFFFFFFFFFFFFFF10
:10010000FFFFFFFFFFFFFFFFFFFFFFFFFFFFFFFFFF
:10011000FFFFFFFFFFFFFFFFFFFFFFFFFFFFFFFFEF
:10012000FFFFFFFFFFFFFFFFFFFFFFFFFFFFFFFFDF
:10013000FFFFFFFFFFFFFFFFFFFFFFFFFFFFFFFFCF
:10014000FFFFFFFFFFFFFFFFFFFFFFFFFFFFFFFFBF
:10015000FFFFFFFFFFFFFFFFFFFFFFFFFFFFFFFFAF
:10016000FFFFFFFFFFFFFFFFFFFFFFFFFFFFFFFF9F
:10017000FFFFFFFFFFFFFFFFFFFFFFFFFFFFFFFF8F
:10018000FFFFFFFFFFFFFFFFFFFFFFFFFFFFFFFF7F
:10019000FFFFFFFFFFFFFFFFFFFFFFFFFFFFFFFF6F
:1001A000FFFFFFFFFFFFFFFFFFFFFFFFFFFFFFFF5F
:1001B000FFFFFFFFFFFFFFFFFFFFFFFFFFFFFFFF4F
:1001C000FFFFFFFFFFFFFFFFFFFFFFFFFFFFFFFF3F
:1001D000FFFFFFFFFFFFFFFFFFFFFFFFFFFFFFFF2F
:1001E000FFFFFFFFFFFFFFFFFFFFFFFFFFFFFFFF1F
:1001F000FFFFFFFFFFFFFFFFFFFFFFFFFFFFFFFF0F
:100200000648854600F08CFE00F018F800F064FB0C
:10021000004800479513000000F05AFC0010001041
:100220000448804704480047FEE7FEE7FEE7FEE794
:10023000FEE7FEE7F913000001020000042104A01C
:1002400002F012F80349086003490860FFF7DEFF77
:100250003A747400EC010010D801001038B505465E
:10026000684605700C46086800230122694602F0C2
:1002700081F8002802D00020C04338BDE068401C4F
:10028000E060284638BD30B50B46014600202022EC
:10029000012409E00D46D5409D4205D31D469540F9
:1002A000491B2546954040191546521E002DF1DC8C
:1002B00030BD70B500242546002801DA01244042F3
:1002C000002901DA01254942FFF7DDFFAC4200D0E9
:1002D0004042002C00D0494270BD421C0178401CB5
:1002E0000029FBD1801A704710B5002296231146D1
:1002F00000F017FC10BD704700207047FFFFFFFFA4
:1003000070B500240026002521E098A19B4801F04B
:1003100048F900BF00BF00BF00BF00BF00BF00BF63
:1003200097490020085E401C002804D12A229549E4
:1003300095A002F003FA00BF9148406800680028C9
:1003400001D0012000E00020002800D10126002E6D
:10035000DBD0D1E0924801F069F90446224691A130
:10036000864801F01EF99349934801F0D8F893A10B
:10037000824801F016F90CE0894801F057F904466B
:1003800091498D4801F0D3F890A17C4801F009F91A
:1003900001259048844201DB012DEDD10CE080481D
:1003A00001F044F904468C49834801F0C0F88BA160
:1003B000724801F0F6F802258A48844204DA8A4835
:1003C000844201DB022DEAD10CE0754801F02EF9E0
:1003D00004468649784801F0AAF885A1674801F0EB
:1003E000E0F803258448844204DA8448844201DB2F
:1003F000032DEAD10CE06A4801F018F9044680495F
:100400006D4801F094F87FA15C4801F0CAF804251A
:100410007E48844204DA7E48844201DB042DEAD11E
:100420000CE05F4801F002F904467A49624801F0A5
:100430007EF879A1514801F0B4F805257D2000022D
:10044000844204DA7648844201DB052DE9D10CE0D0
:10045000534801F0EBF804467249574801F067F839
:1004600071A1464801F09DF806257148844204DADE
:100470007048844201DB062DEAD10CE0484801F0C7
:10048000D5F804466C494C4801F051F86BA13B4843
:1004900001F087F807256B48844204DA6A488442F1
:1004A00001DB072DEAD10CE03D4801F0BFF804461E
:1004B0006649414801F03BF865A1304801F071F808
:1004C00008256548844204DA6448844201DB082D2B
:1004D000EAD10CE0324801F0A9F804460021364880
:1004E00001F01DF85EA1254801F05BF809255E4882
:1004F000844201DA092DEDD1012E00D12AE7002036
:1005000070BD70B5264C594D2946204601F066FF56
:1005100000BF294C564D2946204602F0C1FA00BFC3
:10052000544C554D002020606060A060E06029467A
:10053000204602F09FF800BF0023504A50490F4860
:10054000483800F0FDFF04464E4A4F4900F0D4F908
:100550000B4C4E4D002020606060A060E06029469A
:10056000204602F075F800BF70BD00003F3F3F3FDE
:100570003F3F3F3F3F3F0A0D000000007001001069
:1005800088010010B83500006F626A2D3E70696EF8
:1005900020213D202850696E4E616D65294E430033
:1005A000C00000106D6561737572653D2564206D36
:1005B000560A0D00CDCCCC3EC10000103F3F3F3F5E
:1005C0003F7E0A0D000000009018FB3A543D310AAE
:1005D0000D000000F8A70000F8ABDF3A543D320AE6
:1005E0000D00000028A00000409C0000AF32C73A78
:1005F000543D0A0D00000000709400008890000037
:1006000018C8BB3A543D340A0D000000B8880000F9
:10061000D0840000679CA73A543D350A0D000000C5
:1006200018790000EAF1943A543D360A0D000000B2
:1006300048710000606D00001EAA843A543D370ADC
:100640000D00000090650000A86100006B9D7A3AE3
:10065000543D380A0D000000D8590000F055000044
:10066000543D390A0D000000204E00009C3200006D
:100670003819000018010010702B0000A4160000AB
:10068000A8170000000000006D150000AC3300004A
:10069000F0B51FB40646002082B005464024019103
:1006A00000901BE0019922460F46304600F0B3F956
:1006B000049A059B801A994110D310461946224688
:1006C00000F099F9361A8F41019722460120002146
:1006D000009F00F090F938184D4100902046641EAC
:1006E0000028DFDC019B00982946324607B0F0BDA8
:1006F000D2B201E00270401C491EFBD270470022BA
:10070000F6E710B513460A4604461946FFF7F0FF10
:10071000204610BD10B5002200E0521C835C8C5CAA
:10072000A34201D1002BF8D1D8B2E1B2401A10BDDA
:1007300030B505460020034600E05B1C934205D21D
:10074000EC5CC85C201A01D1002CF6D130BD000051
:100750000FB400B58DB009900B9010A90020009146
:10076000C0430A9000200C90064806900648079067
:100770006A4609A80F9900F075F90DB008BC04B0DD
:1007800018470000850A0000A50A0000FFB50027F1
:10079000FF4383B000205C6801909E681D46A969F4
:1007A0007F1C049888470090296A88470028F6D162
:1007B0000098401C0CD0032040028443002E19DD19
:1007C000600614D500982B2809D02D280FD103E0FE
:1007D0000020C04307B0F0BD012080020443A96996
:1007E0007F1C04988847761E0090002E02DD00983A
:1007F000302803D00598002825D035E0012040029C
:100800000443A969761E7F1C049888470090002E37
:1008100003DD782805D0582803D00598002810D08B
:1008200022E00598002801D010281DD101204002A7
:100830008443A969761E7F1C049888470090102085
:1008400002E0082000E00A2005900DE001214902A5
:100850000C43059A0199761E514308180190A96925
:100860007F1C049888470090002E05DD05990098AC
:1008700000F0E2F80028E9DAE96904988847A00561
:1008800002D40120C043A5E7E00722D1600611D5BC
:100890006005019800D5404229680A1D2A60096850
:1008A000220501D5087014E0220701D5088010E068
:1008B00008600EE02868011D29600068210502D546
:1008C0000199017005E02107019901D5018000E03F
:1008D000016038467EE7000070B5054C054D03E029
:1008E000206800198047241DAC42F9D170BD00007A
:1008F0001C36000020360000F8B5074615460E46A7
:10090000102001F0E5FE040009D06760A660E560F4
:1009100000F0DAF80168216004600020F8BD0120D1
:10092000F8BD024670B54A40D30FDB0740002DD01A
:100930004A002AD0010E140E000212020919400AC0
:10094000520A8418E50104465443000A120A2E0490
:100950005043A4194219200CC543AA18120C0125B2
:10096000AD03521C521912047F39240400D0521CCA
:10097000104301D44000491EC2B20C06C009201821
:10098000401C4008802A02D003E0002070BD4008CF
:100990004000002900DA0020184370BDC20F41005A
:1009A00040020123400ADB05D207090EC0187F2947
:1009B00001DA00207047962903DC9623591AC840B3
:1009C00001E096398840002AF4D040427047410047
:1009D00040020122400AD205090E80187F2901DA5F
:1009E00000207047962903DC9622511AC8407047B0
:1009F00096398840704710B5202A04DB0146203A1A
:100A00009140002010BD914020239C1A0346E340F2
:100A10001943904010BD10B5202A04DB0846203A47
:100A2000D040002110BD0B46D340D0402024A21A54
:100A300091400843194610BD3A2800D2303820238F
:100A400002469A43412A01D310463738884201D3DF
:100A50000020C043704700000268137851180160FD
:100A60001846704710B5D1600449516104491162BC
:100A700000211161114600F07FFA10BD590A0000F3
:100A80006B0F00004268002A08D001680B78491CEF
:100A9000002B03D0521E06C0184670470121C160CA
:100AA000881E70474268002A0BD0C3680168002B7B
:100AB00007D183688B4204D0491E521C06C0002017
:100AC00070470020C0437047004870470C01001079
:100AD000F8B50646FFF7F8FF0090054615E0002E32
:100AE00002D0E068B0420FD1206828600098A16869
:100AF000076860688847204601F01AFD0098006882
:100B0000B84202D00098E8E725462C68002CE6D1D0
:100B1000F8BD002904DA401C490001D1400840001A
:100B2000704770B40024050C05D11024000402D1D4
:100B3000002921D01124050E01D100020834050F2F
:100B400001D10001241D850F01D18000A41C0028C3
:100B500001DB4000641C002908D020252E1B0D4617
:100B6000F540A14000D001212943084301061B1B89
:100B7000000ADB1D02D5002070BC7047DB05181889
:100B800080180029F8DA401C4900F5D170BC4008F3
:100B900040007047F0B507460846584087B0C00F80
:100BA000049048000E46590040084908BC1A884184
:100BB00005D2384631461E4617460B4602465800B7
:100BC000400810434CD0300D039040055900400DB3
:100BD000490D0590401A0290402872DA180301214D
:100BE000000B09050843019004980092002805D0E5
:100BF00001995242002088410092019002984021C0
:100C00000A1A01990098FFF7F6FE05460C466B4656
:100C100007CB00F097F9C0197141039A0E0D00231C
:100C2000D71756401A467A40164344D0049A002AF1
:100C30002DD0029A012A039A15DC1205C01A91419F
:100C400001263605001C7141D20F059ED207009384
:100C5000019202962A46234600F037FB07B0F0BD0A
:100C600038463146FAE71605224A0F46B218C01A2E
:100C7000B74101210905001C4F4100187F41114671
:100C800018187941E20F10436D19644113E0E2072F
:100C90006D0815436408C2071443039A0126120520
:100CA000C01A91413605001C7141CE0740083043FF
:100CB0004908C01851412A46234600F0F9FACDE709
:100CC000FFE7049801224000C117121A00238B414C
:100CD00004983146C417381AA141EEE730B4012414
:100CE000E407634030BC55E730B40124E4076140B9
:100CF00030BC4FE70000E0FFF0B51FB488B00B999F
:100D00000998002448400999C00F490049080991F1
:100D1000C0070B990090490049080B910999089860
:100D2000A64608431CD00B990A98084318D0099886
:100D300001244000420D4800410D0998240500039C
:100D4000000B204309900B980003000B20430B90ED
:100D500050181C494018002201901446104605E026
:100D6000002001460DB0F0BD032801DA034600E083
:100D700003239C46C11A0AAE0AE05F0008ADED5B92
:100D80004F00F75B7D430027AA187C41491C5B1E7E
:100D90006145F2DD410004AB5A522104120C0A43B2
:100DA000240C401C0828DFDB019802900099704653
:100DB00001910090059B049A0799069800F085FA26
:100DC000D0E700000DFCFFFFF0B50C465C4085B09D
:100DD000E40FE40703944C0000266408590094468D
:100DE000490802460296224321D062460A431ED099
:100DF0006200570D4A000E032303550D01240246DD
:100E00002C492405781B1B0B360B40182343264323
:100E1000614600901C46501AB44103D30098401C10
:100E2000009002E0921800985B41002803DA00204D
:100E3000014605B0F0BD00200121090507468646A0
:100E400011E064461D46141BB54106D36546521B8E
:100E5000B341744607430C43A646CD0740084908F2
:100E6000284392185B4105460D43EAD110461843CA
:100E700013D06046194650407140084306D0604682
:100E8000101AB34106D20122002306E000220123FA
:100E9000DB0702E00122D24353100098744601059B
:100EA000381C6141029C039D0019694100F000FA61
:100EB000BFE70000FD0300004A0009030123090BFE
:100EC0001B0519430A4B10B5520D9A4202DA002055
:100ED000014610BD064B34339A4203DC9A1AFFF7E1
:100EE0009AFD10BD034BD218FFF785FD10BD000021
:100EF000FF030000CDFBFFFF10B5002904DB012438
:100F0000E40740428C412146002B04DB1C460123B0
:100F1000DB075242A341994200D1904210BD00002C
:100F2000064C0125064E05E0E36807CC2B430C3C3C
:100F300098471034B442F7D3FFF766F9FC35000048
:100F40001C36000010B5202A06DBCB170846203AD5
:100F50001041C1170B4306E00B461341D04020243B
:100F6000A21A91400843194610BD10B50F21C0B216
:100F7000490200F0FDF910BDF3B58DB000200A90D4
:100F800001200B90002608460C300C46099062693F
:100F9000012109989047051E2ED0252D2DD0216ABC
:100FA0008847002818D06269012109989047216A72
:100FB00088470028F7D1411E62690998904700E0F0
:100FC000761CA1690D988847216A88470028F7D1C7
:100FD000E1690D988847DAE7A1690D9888470746C7
:100FE000A84201D1761CD2E7E1690D9888477F1CA1
:100FF00002D10A98002877D049E1002762693D466E
:101000003946099890472A280CD16269012109982C
:101010009047012506E00A214F433F18303FEBD4AB
:101020001020054362690121099890470146303933
:101030000A2903D29B498F42DEDCECE7E90600D4A3
:10104000994F6C280AD04C2810D0682824D06A28E0
:101050002ED074280CD07A280AD00DE062690121C4
:10106000099890476C2823D004211CE020200543D8
:101070006269012109989047A760656065284FD093
:1010800026DC582839D01ADC452849D012DC25281E
:1010900034D04128B0D143E06269012109989047DA
:1010A000682802D008210D43E6E70120C002DEE7F0
:1010B0000220DCE7462833D047282CD130E05B28DB
:1010C00070D061282CD063286CD0642823D161E0D3
:1010D0006F284FD009DC662822D0672820D06928E5
:1010E00026D06E2817D12EE0CDE070284DD0732881
:1010F0006FD075284ED078280DD154E0A1690D9895
:1011000088470546252800D16CE7E1690D98884796
:101110006D1C00D16DE7BAE00A224CE00A2252E0D1
:10112000012023466A46C0430D99C046C046A3E04D
:101130002846402108436060A807234601D50022C5
:1011400039E000223FE0E80700D020E72068011DD9
:1011500021600068290501D5067018E7290701D527
:10116000068014E7A90703D5F117066041600EE772
:1011700006600CE72846402108436060A807234624
:1011800001D5082217E008221DE0484928460840FA
:10119000606016E02846402108436060A8072346A7
:1011A000BCD5B9E715E02846402108436060A80790
:1011B00007D5234610220120C0430D99C046C046E2
:1011C0005AE0234610220120C0430D99FFF7DEFAB2
:1011D00052E000210C910B460091632802D05B285D
:1011E00007D043E0E80601D40120A0600120009070
:1011F0003CE062690121099890475E2805D10120F1
:101200000C9001466269099890472169002906D12E
:101210000B4601AA8F00491CD3510829FADB00288C
:1012200035D0216900290ED1C117C90E09184A11FC
:10123000930001AA9A1849094901411A012013682B
:1012400088400343136062690121099890475D2833
:10125000E5D10C98002808D0002001AB81005A5835
:10126000401CD2435A500828F8DB01AB012022462B
:10127000C0430D99C046C04600280ADA401C06D17A
:101280000B98002803D00020C0430FB0F0BD0A988F
:10129000FBE7E90702D10A99491C0A913618002098
:1012A0000B9074E6CCCCCC0CFFFFFF7FF1F7FFFF77
:1012B00010B5002B08DA0024401C614192185B41F4
:1012C0001A4301D14008400010BDF0B51FB482B0F0
:1012D00005460C0003D0084600F09AFA02E000F040
:1012E00097FA20300246009021462846FFF783FBFC
:1012F000049B059A04460F4618431143084314D033
:10130000184610431BD0009840210A1A1846059928
:10131000FFF781FB05460E46009A05990498FFF7F2
:101320006AFB084305D0012004E02046394607B097
:10133000F0BD0020C11705430E432C4337430099ED
:101340000E986305401A7905E40A00220C43FD0A51
:101350000A3002D500200146E9E70105101969416C
:101360000C9C0D9D00196941FFF7A2FFDFE700000B
:101370007F2801D9002207E0054B42089A5CC0078C
:1013800000D112091207120F012090400840704747
:101390005034000010B501F0C4FA01F0C1FAFEF7B4
:1013A000AFFF10BD10B5002100F0AFF810BD000078
:1013B000F0B484460E48026893070E4A9B0F1768E4
:1013C000012B0ED000252B463A469C002E59165173
:1013D00066197668A41866609B1C302BF5DB012229
:1013E000026060468000C0190164F0BC70470000D4
:1013F00000800440C800001070B41348002404604A
:1014000001234360446043604168C907FCD00F4931
:1014100023228A600E4A956B8026B5439563CA687D
:10142000D207FCD003210163436344634363416BF0
:10143000C907FCD0836307480168012212041143E5
:10144000016070BC70470000408004400080044090
:10145000008204408080044070B40849016000218B
:10146000074A10230D468C001659864200D11551AB
:10147000491C5B1EF7D170BC704700009834000017
:101480009801001010B50C46001D01F05DFD2046CE
:1014900010BD1C22514310B508180C3000F028F87C
:1014A00010BD000070B50E460E490160002141607C
:1014B0008160154602231C220B490C3000F0D8F93C
:1014C00004464B200C3CC00160642A463146201D76
:1014D00001F0C6FC22460549201D01F02BFD2046E7
:1014E00070BD0000C4340000A51300009314000078
:1014F0000168002900D008474368002B04D001464A
:1015000082690831184610477047002242608261A4
:101510000160704710B50021C046C04610BD70B5CF
:1015200004460D462946204601F068FB70BD70B5A3
:1015300004460D462946204601F00CFB70BD000014
:1015400010B51C46FFF7AEFF2146483000F03AF8D0
:101550004838034901600349C1640349816410BDEF
:10156000D434000020350000EC34000010B54830C1
:1015700000F04AF8483810BD00207047F8B58E18C2
:101580000D4607460C46B14209D038682178426AB8
:10159000641C38469047401C01D0B442F5D1601B12
:1015A000F8BD0FB470B5054606AC406900F094F97B
:1015B00022466869059900F01FF970BC08BC04B0A8
:1015C0001847000010B584B000F082F804460A48BD
:1015D00020600A48606000206061224608A16846D9
:1015E00000F0F6F807A1684600F082F96061FFF7A5
:1015F00091FF204604B010BD303500006435000076
:101600003A257000772B000010B50446054820608D
:1016100005486060606900F050F9204600F06AF803
:1016200010BD0000303500006435000010B50446E0
:10163000204600F00BFF10BD007B704770B50646DA
:101640000C480D460468002C12D0A06800280CD06D
:101650002A463146FFF76CF8002806D1A068FEF74D
:101660003CFEA84201D1204670BD6468002CECD13C
:10167000002070BD00010010064B03600023436092
:1016800081600273002903D003490A684260086040
:101690007047000074350000000100100A49016025
:1016A0008168002905D0094A1168814202D1416848
:1016B000116070474A68824203D0114652688242E4
:1016C000FBD142684A607047743500000001001089
:1016D00010B5054A04C00022FFF7CEFF001F0349E2
:1016E00001600349416010BD98340000843500005A
:1016F000B035000010B5001DFFF7D0FF001FFFF749
:10170000ABFE10BD10B504464068002803D0FFF7BB
:1017100093FF012801D0002010BD606810BD10B5F6
:1017200004464068002803D0FFF786FF002801D058
:10173000002010BD60680028FBD0001F10BD40686D
:10174000002800D00120704710B54068002804D060
:10175000FFF772FF002801D0002010BD012010BD4E
:101760000068704710B5044600202060606008786B
:101770002F280FD1487800280CD04B1C00211A4686
:10178000236010782F2807D0002807D0491C521C4E
:101790002260F6E7204610BD501C20601846FFF777
:1017A0004DFF6060204610BD10B54838FFF76AFE57
:1017B00010BD00000FB410B5024604A9034B0398F6
:1017C00000F09AF910BC08BC04B018475D02000094
:1017D0000FB410B504A9074B02AA039800F08CF9C6
:1017E000044602A9002000F023FD204610BC08BCDE
:1017F00004B018473122000070B514460D46024669
:10180000024B2146284600F077F970BD5D020000CA
:101810002021020C01D010211046020A01D01046EE
:101820000839020901D01046091F820801D010466C
:10183000891E420801D0881E7047081A7047F0B40C
:10184000040C8BB2264682B25E430D0C1046370C58
:101850005843360480190021794116466E43370CEF
:1018600036048019794126466E438919F0BC7047C9
:10187000FFB581B01C4617460E0007D0019D02E05F
:101880002846B047ED192046641EF9D2019805B0EC
:10189000F0BD10B50020C046C04610BD02E008C82B
:1018A000121F08C1002AFAD170477047002001E0DA
:1018B00001C1121F002AFBD1704710B50446006811
:1018C00000F0BCFC002802DA0020C04310BD204616
:1018D00000F02EFE002010BD10B5C168006800F0B9
:1018E00035FD002802DA0020C04310BD002010BDE5
:1018F00070B506460D46142000F0EAFE04000AD03A
:101900001421FEF7FCFE22462946304600F0C4F8BA
:10191000050002D004E0002070BD204600F008FE63
:10192000284670BDF0B51FB486B00998089A030D1B
:101930000021024314D05148514A1818504305144D
:101940001198012810981AD0281A401C00264D4FD3
:101950004D49009601910490002812DA444211E0AA
:101960001198012449A3012801D11098C143069878
:10197000119A84600360C26041600BB0F0BD4042C8
:10198000E4E70446210500203F4A001C5141039131
:10199000029012E0E00707D032463B4601990098DA
:1019A000FFF7AAF90191009032463B4610461946CE
:1019B000FFF7A2F906460F466410002CEAD10498FE
:1019C000039B0028029A0999089806DAFFF794F910
:1019D000019B009AFFF790F905E0FFF7F5F9019BED
:1019E000009AFFF7F1F904460E460022284BFFF754
:1019F00083FA03D80020C043014607E00022254BAC
:101A000020463146FFF7C6F8FFF756FA102409E0E2
:101A1000002C0ADB0A220023FEF73AFE079B303235
:101A20001A55641E02460A43F2D11122641C079B18
:101A3000121B1C19119B012B03D0012308430ED14B
:101A40000AE0084304D0112010900020119077E79D
:101A50001098151A6D1E0BE01098824202DD0023CB
:101A60006D1C03E0824201DA00236D1E002BEED0D4
:101A7000069811998260C16030C07EE701FCFFFFCB
:101A8000104D0000000014400000F03F3000000046
:101A90000000F0430000E03F70B5064610681546B0
:101AA0000C46002801D000F0C9FB2078641C612896
:101AB00008D0722802D077281CD101E0002102E072
:101AC000042100E00821022201232078002809D007
:101AD000641C2B2802D062280CD101E01143F4E7EA
:101AE0001943F2E7304600F0BFFB411C02D02860EA
:101AF000284670BD002070BDFFB597B00646002592
:101B000018E2252877D100242746FD49049400E0F7
:101B10000443761C32780120203A90400842F7D1E5
:101B200030782A280ED0022230780146303909292F
:101B300016D804990A235943303940181443761CA7
:101B40000490F1E7189802C804911890002904DA6B
:101B50000120400304434842049002200443761CC1
:101B600030782E2814D1042004437078761C2A285B
:101B700009D11898761C80C8189009E00A214F43B3
:101B8000303FC719761C3078014630390929F5D91C
:101B900030786C2810D006DC4C281AD068280ED07B
:101BA0006A2817D104E0742813D07A2812D110E0E3
:101BB0000120400504430CE00121090501E0032157
:101BC00009050C437178814203D1012000052418D6
:101BD000761C761C3078119066280BD013DC5828C0
:101BE0007DD009DC00287BD04528F6D04628F4D0EB
:101BF00047281AD1A5E118E0632835D0642870D0B1
:101C0000652812D19DE170286CD008DC6728F1D0DE
:101C100069287BD06E280DD06F2806D1BAE07328D2
:101C20002ED0752871D0782859D01A9A19999047D2
:101C30006D1C7EE16002400F022809D003280DD000
:101C40000428189801680DD00D60001D189070E1EF
:101C50001898EA1701680D604A60F6E7189801685D
:101C60000D80F2E70D70F0E718986A46017811725E
:101C7000001D18900020507202A80090012005E07D
:101C8000189802C8189000200091C04361070DD534
:101C9000002101E00199491C0191B94212DA814207
:101CA000F8DB009A515C0029F4D10BE0002101E03F
:101CB0000199491C01918142FADB019A0099895CE2
:101CC0000029F5D1019904981A9B471A21463846F4
:101CD000199A00F097FA0199401945180BE04FE066
:101CE0002CE113E04EE0009800990078491C009127
:101CF0001A9A199990470198401E0190401CF2D100
:101D0000214638461A9B199A10E137E00A20002133
:101D1000009001916002410F022907D0189A01CA70
:101D20001892C2179446032908D00AE01898C01DDB
:101D3000C108C90005C91891944607E000B2C2174E
:101D40009446042902D140B2C1178C460022614654
:101D5000944506DA0A460021404291418C462D21E5
:101D600002E0210504D52B216A461173012103E00D
:101D7000E10701D02021F7E7029155E00A200AE0AF
:101D8000102008E01020009000210420044301915D
:101D9000082703E008200021019100906002410F14
:101DA000022907D0189A01CA1892002294460329E2
:101DB00008D008E01898C01DC108C90005C91891CD
:101DC000944603E080B2042900D1C0B20021029100
:101DD000210729D51199702906D0009A1021019B5D
:101DE0004A401A4305D00EE040216A461173012192
:101DF00008E06146014306D030216A46117311990B
:101E0000517302210291009A0821019B4A401A4312
:101E10000AD16146014301D1610705D530216A46E7
:101E2000117301217F1E02911199582904D035A107
:101E30000E910DA90D910DE037A1F9E76146019BC7
:101E4000009AFEF725FC0E9B8C469B5C0D9A521E59
:101E50000D92137061460143F0D10D9805A9081A3F
:101E600020300190600703D501200004844300E086
:101E700001270198874201DD381A00E0002001990E
:101E800000904118029809180498401A0490E00341
:101E900006D421461A9B199A049800F0B3F9451903
:101EA000002706E003A81A9AC05D199990476D1C97
:101EB0007F1C02988742F5DBE0030CD521461A9B74
:101EC000199A049800F09EF9451904E01A9A3020F6
:101ED000199990476D1C0099481E00900029F5DC67
:101EE00008E00D980D990078491C0D911A9A1999DE
:101EF00090476D1C0199481E01900029F1DC63E1B7
:101F000009280100303132333435363738396162CF
:101F10006364656600000000303132333435363793
:101F200038394142434445460000000000F05AF968
:101F30004519761C3078002800D0E2E528461BB011
:101F4000F0BD600700D406271898C01DC108C9005D
:101F500048680A680831C30FDB071891190001D0DF
:101F60009CA108E0210501D59BA104E0E10701D077
:101F70009AA100E09AA1430011985B08109165288E
:101F80000CD006DC452809D046281DD0472841D171
:101F900041E0662818D067283CD13CE00021112F91
:101FA00001DB112000E0781C0191009008A911A824
:101FB000FFF7B8FC139905910021119A15927F1C27
:101FC00012980197009150E00120C0070390012072
:101FD000019008A9009711A8FFF7A4FC139A14997F
:101FE00005920022119B009212981593059A019276
:101FF000002901D0104602E0791C40180190381ADF
:1020000001D5019804E04042401E0090781C0190E8
:10201000C01B029043E0012F00DA01270021112F9D
:1020200001DD112000E038460191009008A911A8B7
:10203000FFF778FC13990591119A002112981592D7
:102040000091019721070CD40599B94201DB019950
:1020500000E00191012904DD159A491E515C3029E7
:1020600006D0B84201DA011D05DA0121029115E01E
:102070000199491EEDE7002805DC009941180091FF
:102080000199091A03E0019A411C914200DD019176
:102090000099401A401C02900120C00703902007BD
:1020A00006D402990198814202DB0020C0430290CD
:1020B00000206946C87707AF012103980337C90795
:1020C000884224D0022011902B20129003980028DF
:1020D0000CDA404203902D20129007E00A21039869
:1020E000FEF7D1F830317F1E039039701199481EE8
:1020F00011900029F2DC03980028EFD1791E129884
:1021000008703078202108404530BF1E387006A87E
:10211000C01BC01D039010980078002800D001203B
:10212000019941180298C0170918039809180498D2
:10213000401A401E0490E00306D421461A9B199AC7
:10214000049800F05FF8451910980078002803D033
:102150001A9A199990476D1CE00324D521461A9BC1
:10216000199A049800F04EF845191CE000980028D0
:1021700007DB00990598884203DD1598405C1999A2
:1021800001E0199930201A9A904700986D1C401C64
:1021900000900298401E0290002804D11A9A2E2026
:1021A000199990476D1C0199481E01900029DDDCAA
:1021B00005E038781A9A7F1C199990476D1C03998D
:1021C000481E03900029F4DC21461A9B199A0498B2
:1021D000ACE600002D0000002B00000020000000F5
:1021E00000000000F8B5044600251E461746880486
:1021F00004D405E039462020B0476D1C641EF9D593
:102200002846F8BDFFB50446002581B01E46C80328
:1022100001D5302700E02027880404D505E03846A2
:102220000399B0476D1C641EF9D5284605B0F0BD72
:102230000A68531C0B60107070470000032801DA15
:102240000020704781000748002209184039486B78
:102250004A63002802D00168496808470020C0434B
:102260007047000098010010F0B50E4683B0044698
:1022700032A1FEF74FFA002809D0314F0025A800FF
:102280003858002809D06D1C102DF8D351E02D4985
:102290000868421C0A6003B0F0BD102D49D22078B6
:1022A0003A2811D021466846FFF75CFA6846FFF7E6
:1022B00046FA00283DD06846FFF746FA00286846EF
:1022C00009D0FFF72CFA2DE06A461FA12046FEF741
:1022D0003FFA009826E0FFF715FA002829D0B10749
:1022E00001D5022408E0710701D5012404E031077B
:1022F00001D5092400E000243107890F02D0012113
:1023000049020C43710702D5012189020C4326467C
:1023100004466846FFF724FA01462068324683687F
:1023200020469847002804D0A9007850E81C03B044
:10233000F0BD0020C04303B0F0BD00003A7474004B
:1023400098010010C40000103A257000032801DA3B
:1023500000207047064A800080184038406B0028F3
:1023600003D002681369002218470020C043704759
:102370009801001070B514460E46032814DA12486E
:102380000068002804D1114A1149124800F068FD84
:102390000025002C06D9715D0E4800F0D5FD6D1C9E
:1023A000A542F8D320460AE00B4980004018403887
:1023B000406B002805D001680B6831469847201A09
:1023C00070BD0020C04370BDEC000010A4160000DA
:1023D000A8170000F40000109801001070B50C461A
:1023E00005461349204600F005FB28701148816B13
:1023F0001022914381631048016852021143016029
:102400000E49E0B2401801688022914301600C48F7
:102410000C4900684A1E8018FDF74BFF401E0A4910
:10242000000208600249204600F012FB70BD000067
:10243000C830000000820440808004400040044016
:10244000CC00001020AA440000C00140F0B429498B
:102450000A68120A12020A600A68047801273B46D9
:10246000A3401A430A600A683B061A430A604A6896
:10247000002AFCDA0C689C430C6012040C68920D74
:10248000240A24020C600D6806783C46B4402543BB
:102490000D600C681C430C604C68002CFCDA0D6865
:1024A0009D430D6024040D68A40D2D0A2D020D60BE
:1024B0000D68007887403D430D6008681843086048
:1024C00048680028FCDA0D689D430D600004800D0B
:1024D000A24202D9114622460C46844200D9044643
:1024E000A24200D91446A001A105F0BC890E084300
:1024F0007047000000C001400FB410B503AA0348A4
:102500000299FFF779F9012000F002F8EC010010C0
:1025100004460548FFF7E0F90448FFF7DDF9002C11
:1025200001D000F033F9FEE7D8010010EC010010F3
:1025300010B5002823D0124B0022001F196803E0B9
:10254000814203D80A4649680029F9D1002A0AD0F5
:102550001368841A9C4204D1006818181060104651
:1025600002E0506000E01860002907D002680B1AF2
:10257000934203D10B68D21802604968416010BDD4
:102580001001001070B504460020205E0D46401C6E
:1025900004D138220B490CA000F0D0F820880005A7
:1025A000020F0120002D07D0012D04D1A1680B6876
:1025B000904003430B6070BDA1680B68904083435B
:1025C000F8E70000783300006F626A2D3E70696E94
:1025D00020213D202850696E4E616D65294E4300D3
:1025E00070B505460180481C29D00804000F05225B
:1025F00000041207861800200C460C290CD0104944
:102600008C4209D00F498C4206D00F498C4203D02E
:102610002521C9018C4200D101200146204600F04D
:1026200081F92005000F0121814088008019686030
:102630000120C0033018A86004483018E86070BD5D
:10264000740B0000781000007C110000FC3F0000BB
:1026500070B5012605460C46FFF7C2FF611C07D086
:1026600000212846FFF78EFF3146284600F028F863
:1026700070BD000070B50D4604460026FFF7B0FFA0
:102680006D1C18D0A05F401C04D121220A490B48C0
:1026900000F054F820880005010FE068026801236B
:1026A0008B409A43026001212046FFF76BFF3146C1
:1026B000204600F005F870BDF4320000DC32000066
:1026C00010B502460020105E00F050F910BD000069
:1026D000F0B50B30C108C900144F0026144A0FE0B2
:1026E00003688B420BD38B4205D95C1A43184568AB
:1026F00030C3083B00E04368136002C004E0021DE1
:1027000010680028ECD13046002803D13868002832
:1027100001D00020F0BD064A06481060064A121A91
:10272000D208D20044C001203860D7E7140100105D
:1027300010010010040200100002001008B5009201
:102740000B46024603A11048FFF734F800F01EF8CC
:1027500008BD00006D626564206173736572746109
:1027600074696F6E206661696C65643A2025732C0C
:102770002066696C653A2025732C206C696E652093
:102780002564200A00000000EC01001090B072B631
:10279000AD24640121466846FFF76CFF75252D01C5
:1027A000294604A8FFF766FF214608A8FFF762FF45
:1027B00029460CA8FFF75EFF012569460020085E48
:1027C000401C04D1212254495448FFF7B7FF694601
:1027D0000888039900050968000F2A46824003987B
:1027E0001143016069461020085E401C04D121227B
:1027F00049494A48FFF7A2FF6846008A0799000541
:102800000968000F2A468240079891430160684694
:102810002021415E491C04D121223F493F48FFF756
:102820008DFF6846008C0B9900050968000F2A4649
:1028300082400B989143016068463021415E491CFB
:1028400004D1212234493548FFF778FF6846008ECD
:102850000F9900050968000F2A4682400F9811431E
:102860000160962000F0DEFB68460021415E491CB5
:1028700004D1212228492948FFF760FF68460088D3
:10288000039900050968000F2A4682400398914386
:10289000016068461021415E491C04D121221E4975
:1028A0001E48FFF74BFF6846008A07990005096834
:1028B000000F2A468240079811432C460160684663
:1028C0002021415E491C04D1212213491348FFF7FE
:1028D00035FF6846008C0B9900050968000F2246F9
:1028E00082400B981143016068463021415E491CCB
:1028F00004D1212208490948FFF720FF6846008ECD
:102900000F9900050968000F84400F98A1430160EA
:10291000962000F087FB50E7583000004030000060
:102920007047704770B504460D46401C04D115220F
:10293000074908A0FFF702FF0B49E0B24018016801
:102940006A07C908C900520F1143016070BD000039
:10295000E433000070696E20213D202850696E4EDE
:10296000616D65294E4300000040044070B5044687
:102970000D46401C04D11E220A490BA0FFF7DEFEC3
:1029800069070E4AE0B2C90F83181A6818208243FB
:10299000A807C00E1043012292029043890201430E
:1029A000196070BDE433000070696E20213D20285D
:1029B00050696E4E616D65294E4300000040044031
:1029C000884202D0421C01D10846704710B5491C0C
:1029D00004D003A0FFF790FD0020C04310BD00000D
:1029E00070696E6D6170206D69732D6D61746368BF
:1029F00000000000002210B5D243431C0BD000237E
:102A0000CB5E5B1C0ED00023CB5E834205D14C68AD
:102A1000601C08D00AE0104610BD0C310023CB5ECC
:102A20005B1CF0D1144602A0FFF766FD204610BDE6
:102A300070696E6D6170206E6F7420666F756E6464
:102A400020666F72207065726970686572616C00D3
:102A500010B50446401C0FD00020085E401C11D069
:102A60000020085EA04208D189682046FFF75AFF7F
:102A700000212046FFF77AFF10BD0C310020085ED0
:102A8000401CEDD101A0FFF737FD10BD636F756CE1
:102A900064206E6F742070696E6F757400000000A2
:102AA000F3B581B0044624490298FFF7A3FFC0B2F2
:102AB0002070224E400080190078214982008958F8
:102AC00000224A601F4A13680125C01D2F46874017
:102AD0003B4313600F204867101548611A48814234
:102AE00002D01A48814201D11E20C86020461849F0
:102AF00000F040F820780027400080190688300652
:102B0000810D0F484458606AFDF7EEFB3946FDF72A
:102B100008FFFDF75CFF616A081A401C0221616032
:102B20003104090E8900091988616560024902981B
:102B3000FFF78EFF03B0F0BD28310000D000001079
:102B4000DC0000108080044000C000400000014014
:102B5000204E000010B50A46044605491046FDF710
:102B6000E0FEFDF71BFF0146204600F003F810BD14
:102B70000024744970B50D4600781C494000401887
:102B800000781B4980000C58666A1B481949006888
:102B9000FDF779FBE1686843491CFDF774FB0546C6
:102BA000022060606562002E1DD0A0692946FEF7F4
:102BB00046FE32460023FDF76BFD281AA061E0694E
:102BC0002946FEF73CFE32460023FDF761FD281A38
:102BD000E061206A2946FEF732FE32460023FDF707
:102BE00057FD281A20620120606070BDD0000010DF
:102BF000DC00001040420F00CC00001070B50C4605
:102C000015498C4201D3002404E07F21C9058C4280
:102C100000DD0C4600781149400040180688104934
:102C20003006800D0D58686AFDF75EFB2146FDF702
:102C300078FEFDF7CCFE696A081A6100090E00D122
:102C4000401C022169603104090E8900491988611C
:102C50000120686070BD000000008080D00000107E
:102C6000DC000010F3B543498BB001208861424875
:102C7000006801900C9801010198FDF704FB80B2F7
:102C8000069000200990012000270790002953D0CA
:102C90000C9801240025049002E00025002C45D961
:102CA0000198604340000ED50C9829194143019AC0
:102CB00060005043FDF7E7FA0009C1030120C0039B
:102CC0000818060C0DE00C9829194143019AA00040
:102CD0005043FDF7D8FA4009C1030120C00308188A
:102CE000060C002E00D10126002D02D0022E00D2AB
:102CF000022628197043C10001986043FDF7C3FA0A
:102D0000401C0C994008401A00D540420499884262
:102D100008DA07940C99099506960490884201D127
:102D2000012703E06D1CEDB2A542B9D3641CE4B2E7
:102D3000102C01D2002FB0D00B980068C2688021FF
:102D40000A43C2600698020A0B980068426006981F
:102D5000C2B20B98006802600798099A00011043FC
:102D60000B9A126890620B980068C2688A43C2602E
:102D70000DB0F0BD80800440CC000010F8B51D46B9
:102D800014460F460646012B06D0022D04D0BC2265
:102D90001E491FA0FFF7D2FC042F01DD092F04DB21
:102DA000BD221A4924A0FFF7C9FC002C0CD0012C2D
:102DB0000AD0022C08D0032C06D0042C04D0BE224A
:102DC00012492648FFF7BAFC681E7F1F052C14D253
:102DD00023007B441B79DB189F440204070A0D0083
:102DE000002500E00125002407E001252C4604E031
:102DF0000125022401E00125032480003843E90075
:102E00000843210108433168C860F8BDE83100007B
:102E10002873746F705F62697473203D3D2031299F
:102E2000207C7C202873746F705F62697473203D0E
:102E30003D2032290000000028646174615F6269EE
:102E40007473203E20342920262620286461746172
:102E50005F62697473203C203929000058320000F9
:102E6000F7B5044628490198FFF7C4FD05462749F0
:102E70000298FFF7BFFD01462846FFF7A1FD054672
:102E8000401C04D13C22224922A0FFF757FC2548D0
:102E900025600168012212031143016020680126A8
:102EA00086602068002747604B21C9012046FFF754
:102EB000D9FE0123002208212046FFF75FFF1249B7
:102EC0000198FFF7C5FD11490298FFF7C1FD019870
:102ED000401C03D002210198FFF748FD0298401CD6
:102EE00003D002210298FFF741FD0F48281800D1B6
:102EF00067600E48854205D10D48466062682168CA
:102F00000261C16003B0F0BD70310000AC3100005F
:102F1000E831000028696E74297561727420213DC2
:102F2000204E4300808004400080FFBF00800040AE
:102F3000E8000010034B99604068194680000A5071
:102F400070470000E80000100068202342691A4220
:102F5000FCD0016070470000014901200860704703
:102F600000800140024841694908490041617047B9
:102F70000080014010B5FFF7EFFF0D4C20680028DE
:102F80000ED000F017F821680A68101A00280ADC31
:102F9000886820606268002AF0D048689047EDE7B2
:102FA000FFF7E0FF10BD086800F032F810BD000028
:102FB0000401001070B50F480F4C0168002917D1AB
:102FC000012505600D4801680215114301600C4898
:102FD0000221006861600B49FDF755F9401EE06071
:102FE000656009491320FEF7E3F90849E804086021
:102FF000A06870BDFC00001000800140808004408B
:10300000CC00001040420F00752F000000E100E0EE
:1030100003498861486901221043486170470000F4
:103020000080014070B57D21C90048430446FFF788
:10303000C1FF0546FFF7BEFF401BA042FAD370BD9B
:103040006F626A2D3E70696E20213D202850696EA6
:103050004E616D65294E4300433A5C436F64655C85
:103060006769745F7265706F5C6769746875625CCC
:103070006D6265642D6F6666696369616C5C62751B
:10308000696C645C6D6265645C5441524745545F91
:103090004C5043313131345C5441524745545F4EBA
:1030A00058505C5441524745545F4C50433131585D
:1030B000585F31314358585C6770696F5F6F626A5F
:1030C0006563742E68000000740B000000000000AF
:1030D0000200000078100000010000000200000063
:1030E0007C110000020000000200000080120000BD
:1030F000030000000200000094140000050000001E
:10310000010000006C1A0000060000000100000031
:10311000981B00000700000001000000FFFF0000F6
:10312000FFFFFFFF0000000060080000000000003B
:10313000020000006409000001000000020000001D
:103140003819000002000000010000006C1A0000A5
:103150000300000002000000100100000400000055
:1031600002000000FFFF0000FFFFFFFF0000000063
:1031700024280000008000400200000048350000C4
:103180000080004002000000843000000080004009
:1031900003000000A81700000080004001000000AC
:1031A000FFFF0000FFFFFFFF0000000020270000DE
:1031B00000800040020000003C340000008000401D
:1031C0000200000088310000008000400300000081
:1031D000A41600000080004001000000FFFF000076
:1031E000FFFFFFFF00000000433A5C436F64655C33
:1031F0006769745F7265706F5C6769746875625C3B
:103200006D6265642D6F6666696369616C5C6C698B
:10321000627261726965735C6D6265645C7461722F
:10322000676574735C68616C5C5441524745545FD8
:103230004E58505C5441524745545F4C50433131D5
:1032400058585F31314358585C73657269616C5FDF
:103250006170692E630000002870617269747920C2
:103260003D3D205061726974794E6F6E6529207CF6
:103270007C2028706172697479203D3D2050617214
:103280006974794F646429207C7C2028706172699C
:103290007479203D3D205061726974794576656E80
:1032A00029207C7C2028706172697479203D3D2042
:1032B000506172697479466F726365643129207C4C
:1032C0007C2028706172697479203D3D20506172C4
:1032D000697479466F726365643029006F626A2D84
:1032E0003E70696E20213D202850696E4E616D65EB
:1032F000294E4300433A5C436F64655C6769745FC1
:103300007265706F5C6769746875625C6D62656434
:103310002D6F6666696369616C5C6275696C645C7B
:103320006D6265645C5441524745545F4C50433173
:103330003131345C5441524745545F4E58505C54CF
:1033400041524745545F4C5043313158585F3131F9
:103350004358585C6770696F5F6F626A6563742E6B
:103360006800000070696E20213D202850696E4E73
:10337000616D65294E430000433A5C436F64655CB0
:103380006769745F7265706F5C6769746875625CA9
:103390006D6265642D6F6666696369616C5C6C69FA
:1033A000627261726965735C6D6265645C7461729E
:1033B000676574735C68616C5C5441524745545F47
:1033C0004E58505C5441524745545F4C5043313144
:1033D00058585F31314358585C6770696F5F61704E
:1033E000692E6300433A5C436F64655C6769745F90
:1033F0007265706F5C6769746875625C6D62656444
:103400002D6F6666696369616C5C6C69627261727A
:103410006965735C6D6265645C7461726765747321
:103420005C68616C5C5441524745545F4E58505C37
:103430005441524745545F4C5043313158585F31E5
:10344000314358585C70696E6D61702E63000000E6
:10345000DDDDDDDDDCBBBBDDDDDDDDDDDDDDDDDDE1
:103460009888888888888888777777777788888821
:1034700085555556666666666666666666688888B9
:103480008333333222222222222222222228888DB2
:1034900000000000000000009318000093180000D6
:1034A0009318000093180000931800009318000070
:1034B000000000005914000000000000000000009F
:1034C00000000000000000000000000000000000FC
:1034D000000000006D15000000000000000000006A
:1034E00000000000B8FFFFFF000000007D15000095
:1034F000F902000000000000000000007915000043
:1035000000000000000000000000000000000000BB
:10351000A917000000000000B4FFFFFF000000003A
:10352000000000000000000000000000000000009B
:103530007D150000F90200000000000000000000FE
:1035400079150000000000000000000009160000CE
:10355000000000009318000093180000FCFFFFFF1C
:10356000000000000000000000000000000000005B
:10357000000000009D160000000000000000000098
:10358000000000009318000093180000931800003A
:10359000931800009318000093180000000000002A
:1035A000F516000000000000FCFFFFFF0000000017
:1035B00000000000000000006D6265642F5441525D
:1035C0004745545F4C5043313131342F54415247B9
:1035D00045545F4E58502F5441524745545F4C500C
:1035E00043313158585F31314358582F6770696FF4
:1035F0005F6F626A6563742E680000002036000009
:10360000C0000010580000009C1800007836000030
:1036100018010010E8000000AC180000E7CEFFFF22
:10362000000000000000000000000010006CDC0240
:1036300000000001010001010202000000C0004082
:1036400000000140004001400000000000000000B8
:10365000000000000000000000000000000000006A
:10366000000000000000000000000000000000005A
:08367000000000000000000052
:0400000500000201F4
:00000001FF
